:1000000000100020F5070000CB8D0100CB8D010012
:10001000CB8D0100CB8D0100CB8D0100CB8D01007C
:10002000CB8D0100CB8D0100CB8D0100CB8D01006C
:10003000CB8D0100CB8D0100218C0100CB8D010007
:10004000CB8D01000BE30100CB8D0100CB8D0100B6
:10005000993C01001BE3010017E30100A5440100E6
:100060000FE30100DD0F0000857F0000CB8D010054
:1000700055060000A58C0100CB8D0100CB8D010041
:10008000CB8D0100117F0000657F0000CB8D01004A
:10009000CB8D0100CB8D0100CB8D0100CB8D0100FC
:1000A000CB8D0100CB8D0100CB8D0100C97E0000FE
:1000B000D944010013E30100F95D0100F56E000071
:1000C00015450100CB8D010071280100CB8D010089
:1000D000CB8D0100CB8D0100CB8D0100CB8D0100BC
:1000E000CB8D0100CB8D0100CB8D0100CB8D0100AC
:1000F000CB8D0100CB8D0100CB8D010000000000F5
:10010000013800D0FCE7704700000000000000004C
:1001100001F0FF01102A2BDB10F0070F08D010F8B8
:10012000013B013A8B422DD010F0070F42B3F6D1BC
:10013000F0B441EA012141EA014122F007047FF0D5
:1001400000070023F0E80256083C85EA010586EA2C
:10015000010685FA47F5A3FA87F586FA47F6A5FA68
:1001600087F68EB9EED1F0BC01F0FF0102F0070274
:1001700032B110F8013B013A83EA010313B1F8D11F
:100180000020704701387047002D06BF3546033800
:10019000073815F0010F07D1013015F4807F02BF39
:1001A000013015F4C03F0130F0BC0138704700BF8A
:1001B00070B5414C00238AB0E363054618B100884E
:1001C000236008F051FE3D4E3D481DF065FD3D4B5E
:1001D000336030463C4B73601AF0CDFF002130464F
:1001E00010F05EF832A3D3E90023A062C4E906232D
:1001F0001AF0CCFFD4E9062319431043C4E90601E1
:10020000CDE900014FF0FF334FF0FF32A06A1DF03F
:10021000C5FD02224FF0FF31A06A1DF0C1FD012093
:1002200008F034FB2949A06A4FF4007300221DF046
:1002300009FEB0F5007F38D10023CDE907330993DB
:1002400094223C23CDE903320593A06A962303A9A7
:10025000069310F03DF935B3287C08F0A5FE05465D
:10026000F0B9A06A1DF0C8FE08F04CFE08F0F0FAE4
:1002700020B14FF48070002107F0CEFF08F0F8FAAB
:1002800020B14FF40060002107F0C6FF1BF09AF880
:10029000012010F059F80E4A0E49A06A1AF069FFC1
:1002A00028460AB070BDFF20D7E70725F8E700BF52
:1002B0000DD5015520000000301300209C1A0020AD
:1002C000690345EC11870000AC1A00209C1800203F
:1002D0001BB101005BB101000348044B834202D013
:1002E000034B03B1184770470C1300200C13002078
:1002F000000000000548064B1B1AD90F01EBA301B3
:10030000491002D0034B03B1184770470C1300206B
:100310000C1300200000000010B5064C237843B9F0
:10032000FFF7DAFF044B13B10448AFF30080012359
:10033000237010BDDE220020000000003C3B0200C4
:1003400008B5054B1BB105490548AFF30080BDE872
:100350000840FFF7CFBF00BF00000000501500208D
:100360003C3B0200A3F5803A704700BF174B002BBF
:1003700008BF134B9D46FFF7F5FF00218B460F4644
:100380001348144A121A1EF0E5FB0E4B002B00D046
:1003900098470D4B002B00D0984700200021040007
:1003A0000D000D48002802D00C48AFF3008016F075
:1003B00037F92000290018F027FC16F01FF900BFBC
:1003C00000000800000000000000000000100020F5
:1003D0000C130020EC2300200000000000000000AF
:1003E000F7B50E4C0E4F0F4E1AF0D8FD204607F011
:1003F0001FFE1AF0CFFD204607F01AFE18F084FC0D
:1004000018F083FC3D681AF0CDFD074B07490096B4
:100410000246284619F0ADF9E6E700BF40420F005A
:100420006816002079FD010060FD010066FD0100F5
:1004300008B506F0CBFD18B10648282118F0CCFC11
:100440000AF0E2FC28B1BDE8084002482E2118F06D
:10045000C3BC08BD0A02020038B501F0A7FF0E4870
:100460000E4C012101F0D2F901221146002001F0C9
:100470009DFE022501221146C4F88050002001F0A3
:1004800095FE0122C4F884501146002001F08EFE32
:10049000C4F88850002038BD30253E0000400E4092
:1004A00007B51E4B01225A641A6842F480721A6022
:1004B00001A803F031FD9DF80530012B03D89DF80C
:1004C0000430022B0DD9164B4FF41872C3F88C224E
:1004D000144AC3F89022144AC3F8F022134AC3F80E
:1004E000F822134AD2F8A43143F4F843C2F8A431F5
:1004F00005F0A6F900F0EEF805F03EF905F08CF9EC
:1005000005F050F9FFF7A8FF19F0DAF800F0D4F879
:1005100003B05DF804EB05F063BE00BF00000E40C1
:1005200000400E409A6F0500180100040084320854
:1005300000300E4008B50448012101F067F9BDE81C
:100540000840024800F098BA00350A000010002068
:1005500030B597B0264D0FCD0FAC0FC495E807000E
:10056000302384E80700234A8DF85530224BCDE92B
:1005700003234FF08073059303F1022306934FF09A
:10058000F0511E23CDE907130E2200210DF12E009C
:100590001EF0E0FA194B4FF44020CDE909030C237B
:1005A0008DF82C300D238DF82D30154B0C93202316
:1005B0000D9301238DF83930124B0093124803AB91
:1005C0000FAA09A905F09CFC044618B10F48882120
:1005D00018F002FC9DF83A30002B0CBF03210021DB
:1005E0004FF4E13018F0E2FB204617B030BD00BFF9
:1005F0005402020000000140003204001C000140CF
:10060000DF22002068150020BC1500202402020013
:10061000012905D8034B1B68186808B1436A1847BD
:10062000704700BF1810002008B50749074805F0BB
:10063000A7FEFFF78DFF28B1BDE808400448B821A8
:1006400018F0CABB08BD00BF1C100020E015002038
:1006500024020200014819F050B900BFBC15002067
:10066000014B1A6A18681047BC150020024B034959
:10067000186800F0CBBE00BF4010002024100020FE
:1006800008B5084B01221A70074B00221A70074B5D
:1006900004221A70064B1F221A7005F0FBF8054B56
:1006A000186008BDCE120020FF220020CD120020CD
:1006B000CC1200206816002008B50548012101F081
:1006C000A5F818F0C5FABDE8084000F015B800BF5D
:1006D00000350A000148012101F098B800350A00F0
:1006E000014B1022DA60704700A00046014B102237
:1006F000DA60704700A0004470B588B0374D384EBE
:100700000FCD01AC0FC495E8070084E80700354C15
:100710003548012101F07AF83046012101F076F8E0
:100720000125324B039301A920468DF8125003F0A6
:1007300071FD2B4604220621022002F073FE2A4698
:1007400000230721022002F06DFE2B46042208211F
:10075000022002F067FE042211462B46002002F020
:1007600061FE234BA3670B2363674FF4487006F0C9
:1007700003FC1420FFF7BAFF06F0FEFB2320FFF76F
:10078000AFFF06F0F9FBB9212046FFF7AFFF18F0E5
:100790008AFCFFF7A5FF00231A460621022002F07B
:1007A00041FE00231A460721022002F03BFE2B46A1
:1007B00000220821022002F035FE002210462B46BE
:1007C000042102F02FFE204603F094FC0021A167D3
:1007D0003046616701F01AF808B070BD700202007F
:1007E000004204000004014000350A0000127A00B3
:1007F0000B0B000B08B500F083F8124B12498B422B
:1008000012D3124B124900208B4218D3FFF7AEFDD2
:10081000186850F82240586840F822400132986821
:100820008242F5D30C33EAE70022F8E71C6844F86B
:10083000220001325C68A242F8D30833E4E70022C8
:10084000F8E700BF443B0200503B0200503B02006F
:10085000503B02000048704700F04902104AD2F8AD
:10086000943003F00703023B032B13D8DFE803F0B7
:100870000C14020E0B4B1B68D2F80001C0F30420CD
:100880000130B3FBF0F07047074BF4E7074B1B68F0
:100890005B08F1E7054BEEE74FF40043ECE700BFE0
:1008A00000400E404C10002050100020441000204A
:1008B00008B5FFF7D3FF054BD3F80831C3F308237E
:1008C0000133B0FBF3F0024B186008BD00400E404E
:1008D00048100020014B1868704700BF50100020DE
:1008E000054B1860054BD3F8943003F00703022B37
:1008F00001D1FFF7DDBF70475010002000400E40CF
:10090000044B054A9A60D3F8882042F47002C3F879
:100910008820704700ED00E000000000014B1868DF
:10092000704700BF4C10002038B504460D4601B199
:1009300018B90448372118F04FFA23682B60256056
:1009400038BD00BF8C020200054A06490346106804
:1009500003448B4294BF13604FF0FF30704700BFD9
:10096000541000200000012008B52948012100F0A2
:100970004DFF012304220221052002F053FD002037
:1009800002F0B0FC234B0122C3F8102811460420CA
:1009900001F00CFC204801F00DFA204BD3F8F020B8
:1009A00042F00102C3F8F020D3F8FC2042F080723C
:1009B000C3F8FC20A3F55D43194A1A6000F5D52061
:1009C000184B00F2FC40B0FBF3F0174B0138022249
:1009D0001861C3F8F0204FF48072C3F804234FF07D
:1009E0006043124AC3F8B02F114AC3F8802ED3F8DF
:1009F000002E42F48072C3F8002EFF2283F82020DC
:100A0000D3F8002E22F48072C3F8002E002008BD17
:100A100000350A000080144206000E0000ED00E0E0
:100A2000FF030040F8590D00000004E055CEACC5AE
:100A30000900010030B54FF06043D3F8802ED20793
:100A400015D501240B4D8440D5F8FC2042F080726E
:100A5000C5F8FC20D3F8002E2243C3F8002E53F82B
:100A60002020002AF0D003F82010002030BD1120F3
:100A7000FCE700BF00ED00E02DE9FF47044618B990
:100A80004448392118F0A8F94348012100F0BEFE7E
:100A90002368424A93420AD002F58062934276D09C
:100AA0003C484F2104B0BDE8F04718F095B93C48E8
:100AB0003C4FDFF8FC80012100F0A8FE617920792D
:100AC00001230A2202F0AEFCE179A07901230A2277
:100AD00002F0A8FC0A25012694F804A094F80590D9
:100AE000BAF1050F05D838F81A3023FA09F3DA07F6
:100AF00004D440F2FE31384618F06EF90C21302350
:100B000013FB0A1303F1884303F5204306FA09F2A5
:100B10001A60642006F030FA94F804A094F8059066
:100B2000BAF1050F06D8204B33F81A3023FA09F32F
:100B3000DB0704D440F22D41384618F04DF90C2162
:100B4000302313FB0A1303F18C4303F5204306FA09
:100B500009F21A60642006F00FFA013DBCD120684A
:100B60000323436423895BBA9BB2836440F201137D
:100B7000ADF8003023690293E36801936946237D51
:100B80008DF80C3002F03AFD04B0BDE8F08707485C
:100B90008EE700BFD70202004041050000C00040C0
:100BA000006204002A0302007403020000720400C1
:100BB000740302002DE9F04F85B09A46544BDDF8DE
:100BC0003C901B789DF844B0DDF8508006460F46F7
:100BD0001546002B00F09680072A00F295800E9BA8
:100BE000002B00F09180B9F1000F00F08D80129B76
:100BF000B3F5006F00F38880012803D1109B002B10
:100C000000F08280434B03EB05131B7B002B7DD050
:100C1000414C1022002168461DF09CFF04EB451456
:100C200010229FBB394620461DF094FF43F210036B
:100C30006380BBF1000F03D1E37843F00303E3705B
:100C4000354A0E9BCDF800A002EB451CCCE9019380
:100C5000129B581E9DF84C30690103F00303C0F34A
:100C60000A009B0643EA001E53582C4818404EEADF
:100C70000003012E535017D0B8F1000F2ED19CF86D
:100C8000023068F304138CF8023027E0002120467C
:100C90001DF060FF4FF444736380BBF1000FCFD1B0
:100CA000E37843F03003CAE71323CCF80C309CE818
:100CB0000F000CF1100E8EE80F00DCF81C20109BCA
:100CC000CCF814306FF0030161F39F02012FCCF8D0
:100CD0001C2003D1CCF81890CCF804300D4A29011F
:100CE00002EB051342F80180159A5A600027284646
:100CF000224669469F605E7302F022FE384605B0C8
:100D0000BDE8F08F0648FAE70648F8E70648F6E738
:100D1000002300206C1700206C1600200F80FFF3CA
:100D2000028000F0018000F0078000F038B5124B1F
:100D30001B780546DBB1E0B118F092F80F4A0023AA
:100D40001146147B54B92B601A0101EB03130125E2
:100D50008C501D7318F08AF8204638BD0133082BDB
:100D600002F11002EDD118F081F80548F5E70548C9
:100D7000F3E70548F1E700BF002300206C170020CF
:100D8000048000F0028000F0018000F038B518F017
:100D900067F80C4A05460023147B6CB90133082B15
:100DA00002F11002F8D102F057FD074B28461C70E3
:100DB00018F05CF8204603E0284618F057F803487E
:100DC00038BD00BF6C17002000230020058000F014
:100DD00010B50D4B1B78044693B1072812D818F0B4
:100DE0003FF80A4B03EB04131A7B2AB100241C734F
:100DF00018F03CF8204610BD18F038F80448FAE71F
:100E00000448F8E70448F6E7002300206C170020A8
:100E1000068000F0028000F0018000F013B5164B50
:100E20001868019000238DF8043018F019F8134B5E
:100E30001C7824B118F01AF8114802B010BD012234
:100E40001A7018F013F80F4B1C731C7783F82C40A2
:100E500083F83C4083F84C4083F85C4083F86C4056
:100E600083F87C4004230DEB03008DF8073002F07B
:100E700025FD2046E1E700BF80030200002300209B
:100E8000038000F06C17002008B50A4A12785AB1A6
:100E900007280BD8084A02EB00131B7B43B1002143
:100EA00002F0F0FC002008BD0448FCE70448FAE723
:100EB0000448F8E7002300206C170020028000F0AF
:100EC000018000F0078000F008B50A4A12785AB194
:100ED00007280BD8084A02EB00131B7B43B1012102
:100EE00002F0D0FC002008BD0448FCE70448FAE703
:100EF0000448F8E7002300206C170020028000F06F
:100F0000018000F0078000F008B50A4A127852B15B
:100F100007280AD8084A02EB00131B7B3BB102F0FA
:100F200095FD002008BD0548FCE70548FAE705489F
:100F3000F8E700BF002300206C170020028000F0BB
:100F4000018000F0078000F00D4B1B7893B107285B
:100F500012D889B10B4B03EB00131B7B73B10A4B07
:100F60001A6E01238340134214BF012300230B7028
:100F7000002070470548704705487047054870478E
:100F8000002300206C17002000200E40028000F09B
:100F9000018000F0078000F010B50B4A12780C4673
:100FA00062B107280CD859B1084A02EB00131B7B29
:100FB00043B102F06BFD2070002010BD0448FCE737
:100FC0000448FAE70448F8E7002300206C170020E3
:100FD000028000F0018000F0078000F02DE9F04170
:100FE000DFF86480D8F86070D8F86C301F4000D506
:100FF000FEE7134C01260025374218D02368C8F8B5
:101000006860A3B1A16862680131A1602846984771
:10101000637B012B0BD150B90A4B03EB45131A7BB1
:1010200060F341021A731A7F60F341021A770135A7
:10103000082D4FEA460604F11004DDD1BDE8F08129
:101040006C1700206C16002000200E4070B503685D
:10105000684A934240F0A580037AF3B15A1ED2B297
:101060001E2A1CD8644CA25C0A70447A002C3AD028
:10107000621E1E2A2FD8DFE802F0363636361414E8
:1010800014141430303030303032323232323232A6
:10109000343434343434343436001A46E4E7FF222E
:1010A000E2E701228A70827A002A40D0551E1E2D66
:1010B00035D8DFE805F03C3C3C1A1A1A1A1A3636C5
:1010C00036363636383838383838383A3A3A3A3A9E
:1010D0003A3A3A3C3C00FF22E4E70222E2E70322EC
:1010E000E0E70522DEE70022DCE701250D71C57A85
:1010F000002D4CD0681E1E2841D8DFE800F048487B
:101100001A1A1A1A1A42424242424244444444447D
:101110004444464646464646464648484800FF251B
:10112000E4E70225E2E70325E0E70525DEE7002501
:10113000DCE70120887133B1581EC0B21E289ABF67
:101140002E4B1B5CFF234B701CB3013CE4B21E2CE6
:1011500021D82B4B1B5DCB70FAB1013AD2B21E2ABB
:101160001DD8284B9B5C4B71002D00F0CF806B1E6F
:10117000DBB21E2B00F22C81234AD35CC7E0FF2098
:10118000D8E70220D6E70320D4E70520D2E70020E5
:10119000D0E70123DFE7FF23DDE70223E3E7FF23B7
:1011A000E1E71A4A934240F0B580037AF3B15A1E40
:1011B000D2B21E2A1CD8164CA25C0A70447A002CAB
:1011C0004AD0621E1E2A3FD8DFE802F04646464655
:1011D0002424242424404040404040424242424291
:1011E0004242444444444444444446001A46E4E7EA
:1011F000FF22E2E7000001402D0402000E0402007D
:10120000EF030200D0030200B1030200000401401A
:101210002D04020001228A70827A002A40D0551ED5
:101220001E2D35D8DFE805F03C3C3C1A1A1A1A1A74
:10123000363636363636383838383838383A3A3A34
:101240003A3A3A3A3A3C3C00FF22E4E70222E2E72B
:101250000322E0E70522DEE70022DCE701250D712D
:10126000C57A002D48D0681E1E283DD8DFE800F062
:1012700044441A1A1A1A1A3E3E3E3E3E3E40404030
:101280004040404042424242424242424444440082
:10129000FF25E4E70225E2E70325E0E70525DEE791
:1012A0000025DCE70120887133B1581EC0B21E282A
:1012B0009ABF494B1B5CFF234B70FCB1013CE4B26D
:1012C0001E2C1DD8454B1B5DCB70DAB1013AD2B252
:1012D0001E2A19D8424B9B5C4B71BDB16B1EDBB211
:1012E0001E2B75D83F4A48E7FF20DCE70220DAE7EB
:1012F0000320D8E70520D6E70020D4E70123E3E761
:10130000FF23E1E70223E7E7FF23E5E70323CB71B0
:10131000002070BD344A93425CD1037A002B47D041
:10132000A3F10E02062A8CBFFF2205220A70467A1C
:10133000002E3FD0A6F10D02D2B2122A3AD82B4C81
:10134000A25C8A70827A002A36D0A2F10C04E4B240
:10135000122C31D8264D2C5D0C71C57A75B3A5F1D0
:101360000B04E4B2122C29D82248005D88713BB3EB
:101370000E3BDBB2062B25D81F48C35C4B701EB357
:10138000A6F10D00C0B212281ED81C4B1B5CCB70FE
:10139000E2B10C3AD2B2122A18D8194B9B5C4B71AD
:1013A000B5B1A5F10B03DBB2122B11D8154AE4E657
:1013B0001A46BBE7FF22C4E7FF24CDE7FF20D5E7AD
:1013C0000523DBE7FF23D9E7FF23E0E7FF23E6E779
:1013D000FF239CE70C489CE70E040200EF03020089
:1013E000D0030200B1030200000801409E03020086
:1013F0009E0302009E030200970302008403020082
:101400008403020084030200022000F02DE9F0476B
:101410008AB0924F04460D460FCF03AE0FC697E831
:10142000070086E80700002C00F0158125B98C4DD7
:1014300028460AB0BDE8F0878022002120461DF032
:1014400089FB0023874A63652B68934200F0C480C0
:1014500002F58062934200F0C48002F580629342FC
:10146000E5D1814881494FF460222360002384F84C
:1014700058302F46C4E90A12E0640FCF261D0FC66C
:1014800097E8070086E807006B7D012B08BF8DF801
:101490001A30AB7D4BB1012B00F0A880022B00F07D
:1014A000A880032BC3D14FF44073ADF81C302B7DC3
:1014B0006F48012B0ABF0023AB688DF819304FF03D
:1014C000010108BF4FF4E133059300F09FF969482B
:1014D000012100F09BF9E06C012100F097F9EB6825
:1014E0001A1F0C2AA3D8033B28688DF8183003A9CB
:1014F00002F090FE6A69236822F47F0222F47F42A0
:101500001AB91A6842F480321A60AA792979120647
:1015100042EA012269790A43E97D00296CD1996F79
:10152000E87901F0E03141EA00410A439A670F226D
:101530005A6701A92046FFF789FD054600287FF478
:1015400077AF94F81880BDF80A309DF804009DF834
:1015500005109DF806909DF807A09DF808609DF87D
:101560000970A4F84030B8F1000F4ED14346042270
:1015700001F058FF434601225146484601F052FF10
:10158000A37E012B94BF43460123042239463046F3
:1015900001F048FFE37E3BB90123042294F8411097
:1015A00094F8400001F03EFF17F05AFC324B1A78D5
:1015B000002A44D101221A7017F058FC05F01CFAD9
:1015C000FFF72CFC002104F12000FFF7AFFB0146E0
:1015D000002837D0294D2BE729482A494FF44022CB
:1015E00043E7294829494FF450223EE74FF400735E
:1015F0005BE74FF4807358E7996F21F01F2121F0CA
:101600001F01114399670B2292E72B46012201F03B
:1016100009FF2B4604225146484601F003FFA37EF2
:10162000012B94BF2B46012302223946304601F09C
:10163000F9FEE37E002BB7D101230222AEE717F0BB
:1016400015FCBDE704F12400FFF770FB05460028F8
:101650003FF4EEAEBEE70E4DEAE600BF4C040200DA
:10166000022000F0000001400052040001000E00C2
:101670004041050000350A0001230020092000F048
:101680000032040001000C000042040001000D00C3
:10169000012000F00C4B984205D90C4B984210D811
:1016A0000122012301E00022134609490B64094984
:1016B000D1F8003123F0807343EA0263C1F80031AE
:1016C00070470222EDE700BF0048E8010090D00318
:1016D0000000C84300400E4038B5114B5B68114B09
:1016E00000221C46C9B21D798D4202D11D68854277
:1016F0000BD20132052A03F10803F4D141F614019B
:10170000094817F069FB032102E004EBC204617988
:10171000034A536823F0407343EA0163536038BDC2
:1017200000000E40480502006804020038B5074C6E
:1017300041F67133256C2364FFF78CF8ADB20021BC
:10174000FFF7CAFF0DB10023236438BD00000E402F
:10175000044BDB6B5B0604D4034AD2F8C830002B81
:10176000FBD1704700300E400000C64308B5FFF7BC
:10177000EFFF024B5868C0F3014008BD00300E4037
:10178000044BD3F84421D20703D4D3F840211042AC
:10179000FBD1704700400E4038B5B0F5004F05460C
:1017A00000F1010412D30F4840F6326117F014FB28
:1017B00064B90D4840F2771117F00EFB4FF0FF347B
:1017C000084840F6396117F007FB08E0B4FA84F4E2
:1017D000C4F11F040123A340013BAB42F0D12046DA
:1017E00038BD00BFB0040200F904020038B5064C51
:1017F000256C41F671332364ADB2FFF76DFF0DB177
:101800000023236438BD00BF00000E4038B5C0F38C
:101810000323013B092B06D8DFE803F00C2E050556
:10182000322924051C18BDE83840174841F6B0514C
:1018300017F0D2BA154DC0F3043405F1424505F551
:10184000801504EBC5008000016038BD104DC0F369
:101850000434F2E70F4DC0F304344FF48030FFF747
:101860008FFFEAE7C0F304340B4D1020F7E7C0F315
:1018700004340A4D0120F2E7094DC0F30434DCE7DB
:10188000084DC0F30434D8E76804020000400E405D
:1018900050410E40F0400E40E8400E40E0400E4007
:1018A000C0400E40B0400E4008B5C0F30313013BEA
:1018B000092B60D8DFE803F0050B0F195F5F1F23CA
:1018C0003C532E4BD3F80001C0F3042008BD2B4B32
:1018D000D3F81401F8E7294BD3F80031C3F30063C0
:1018E0000133012098400138F0E7244BD3F80C0174
:1018F000C0F30820EAE7214BD3F80801F8E7204BB2
:10190000984209D01F4B98420CD041F654711E48A2
:1019100017F062FA0020D9E7184BD3F8203103F012
:101920000F03DEE7154BD3F82031C3F30113D8E7DB
:10193000164B984208D003F5B01303F58053984234
:1019400006D041F67871E2E70C4BD3F82831ECE78A
:101950000A4BD3F82831C3F301230433C1E70C4BFE
:10196000984205D1054BD3F8300100F00300ADE7F4
:1019700041F68771CBE741F6AC71C8E700400E40F5
:101980008006160080162E006804020090171A00C8
:10199000A009140010B5C0F30313013B0C46092B3A
:1019A00000F22B81DFE813F00A002E003F005A00FE
:1019B000290129016E008E00E0001D011F2904D9B4
:1019C0008F4841F6D57117F007FAFFF7AFFE8D4843
:1019D000FFF760FE8C4AD2F8003123F4F85343EA53
:1019E0000423C2F80031FEF763FF0446FFF7BEFE92
:1019F00001462046FFF7FAFEFEF730FFBDE8104033
:101A0000FFF748BE1F2904D97D4841F6EB7117F056
:101A1000E3F97D4AD2F8143123F4F85343EA04235E
:101A2000C2F8143110BD4B1EB3F5004F0DD2B4FAFD
:101A300084F4754AD2F80031C4F11F0423F0807396
:101A400043EA0463C2F80031ECE7704840F6935172
:101A500017F0C2F9002CEAD12024EAE7B1F5007FA3
:101A600004D3674841F6F87117F0B6F9664AD2F820
:101A70000C3123F4FF3323F4807343EA0423C2F8C8
:101A80000C31CFE7B1F5007F04D35D4842F20E017F
:101A900017F0A2F9FFF74AFE5B4AD2F8083123F4A7
:101AA000FF3323F4807343EA0423C2F80831FEF7BE
:101AB000FFFE0446FFF75AFE01462046BDE81040EF
:101AC000FFF794BE524B984219D0524B98422ED0F9
:101AD000514B984241D1022904D942F23101484880
:101AE00017F07AF94FF48020FFF74AFE464AD2F801
:101AF000303123F003032343C2F8303192E7B1F5CC
:101B0000004F04D93E4842F24E0117F065F92046D5
:101B1000FFF742FE01460420FFF732FE3A4AD2F8B0
:101B2000203123F00F030B43C2F820317AE7082954
:101B300004D9334842F26C0117F04EF92046FFF702
:101B40002BFE01460420FFF71BFE2F4AD2F820315E
:101B500023F0300343EA0113E6E742F28A01BDE8CD
:101B60001040274817F038B92C4B984208D003F59D
:101B7000B01303F5805398421AD04FF40351EEE7A7
:101B8000082904D91E4842F2930117F025F920468E
:101B9000FFF702FE01464020FFF7F2FD1A4AD2F895
:101BA000283123F0300343EA0113C2F8283139E722
:101BB000A1F10F03702B04D9114842F2B10117F0C3
:101BC0000BF92046FFF7E8FD01464020FFF7D8FD5E
:101BD0000D4AD2F82831043923F4407343EA012333
:101BE000E3E70D4B984205D102297FF67BAF42F225
:101BF000CA0174E742F2DA01B1E742F20211AEE73C
:101C0000680402000148E80100400E40B0040200F0
:101C10008006160080162E00A009140090171A00E6
:101C200008B500F00F000138072852D8DFE800F0AF
:101C300004152251313B51432E4BD3F8943003F01D
:101C40000703023B052B06D8DFE803F0502B2903DE
:101C5000054A0B2008BD0520FCE7264BD3F8803051
:101C600003F00703013B042B17D8DFE803F01A1831
:101C7000163B3D001F4BD3F8843003F00703013BB4
:101C8000042B0AD8DFE803F00D0B032E30000620EA
:101C9000E0E7184BD3F88830E2E70120DAE70220CA
:101CA000D8E70320D6E7134B1B6F13F0010F0CBFCF
:101CB00007200920CEE70F4BD3F85C3103F0300347
:101CC000202B13D0302B13D0102B0CBF072001205A
:101CD000C0E7094842F2013117F07EF80020B9E769
:101CE0000C20B7E70A20B5E70D20B3E70420B1E7E1
:101CF0000820AFE700400E406804020010B5284BF2
:101D0000984204460DD1FFF78BFF264BD3F8844051
:101D100004F00704052C3BD8DFE804F03F2428300A
:101D20002C24214B984205D1FFF77AFF1D4BD3F8A5
:101D30008840EDE71D4B984205D1FFF771FF194B25
:101D4000D3F88040E4E741F61311194817F044F83E
:101D50002046FFF765FF41F642110446144817F08C
:101D60003BF8D7E7BDE8104017F030B8BDE81040A9
:101D7000FEF7D4BDBDE8104017F02BB8FEF76EFD9E
:101D8000084BD3F80031C3F300630133D84005E0BA
:101D9000074841F6941117F01FF8002010BD00BF4E
:101DA0000300200000400E400500240002001E0039
:101DB0006804020038B500F47813B3F5B01F054687
:101DC0007DD02ED8B3F5402F67D011D8B3F5802F32
:101DD00052D006D843B1B3F5003F58D04FF4F75175
:101DE0001AE0B3F5202FF9D1BDE83840FEF736BD33
:101DF000B3F5801F00F09880B3F5A01F55D0B3F560
:101E0000602FEBD15748FFF70BFF072800F08C80BD
:101E10000928E9D041F2D661534816F0DDFF0020D1
:101E200034E0B3F5381F53D013D8B3F5001F58D0A2
:101E30000AD8B3F5D01F56D0B3F5F01FCED14B481A
:101E4000BDE83840FFF75ABFB3F5101FC6D1484868
:101E5000F6E7B3F5481F4DD0B3F5781F78D0B3F54A
:101E6000401FBBD14348FFF749FF434BD3F828310C
:101E7000C3F30123043320E0FEF7F0FC3E4BD3F81C
:101E80000C31C3F308230133B0FBF3F038BDFEF788
:101E9000E5FC394BD3F80831F3E7FEF7DFFC364BAE
:101EA000D3F81431C3F30423EDE73148FFF726FFDD
:101EB000314BD3F8303103F00303D840E6E72B4829
:101EC000FFF71CFF2C4BD3F8203103F00F03F4E78E
:101ED0002648FFF713FF284BD3F82031C3F3011333
:101EE000EBE72448ACE72348FFF708FF224BD3F881
:101EF0002831F3E72148FFF793FE0138072824D85B
:101F000001A353F820F000BF1F1E00004B1F00006C
:101F10004B1F00002F1F00004B1F00004B1F000035
:101F2000291F0000371F0000154B1868AEE7BDE8F9
:101F30003840FEF7CFBCFEF791FC0F4BD3F80031D1
:101F4000C3F3042303FB0000A0E741F20D7163E734
:101F5000FEF784FC0446284616F073FFB4FBF0F04D
:101F600094E700BF06000E006804020002001E0095
:101F7000050024000300200000400E40B80032009D
:101F80005810002010B5FFF7D1FB094B07225A6704
:101F9000FEF764FCFFF77EFBFEF78AFC0446FFF7C2
:101FA000E5FB01462046BDE81040FFF71FBC00BF1F
:101FB00000400E4008B5FFF733FE022806D00D287A
:101FC0004FF6FF7008BF4FF4FA7008BD014B188838
:101FD000FBE700BFBA120020014B1880704700BF1A
:101FE000BA120020014B1880704700BFB8120020C1
:101FF00038B50C4604287BD8DFE800F06403451BA5
:102000003000B1F5007F04D33D4842F6B44116F0EC
:10201000E3FE3C4AC4F30804D2F86838002BFBD135
:10202000394A136A23F4FF7323F001032343136235
:1020300038BD7F2904D9324842F6C14116F0CCFEA2
:10204000304A04F07F04D2F86038002BFBD12E4ACE
:10205000136923F07F031C431461E9E77F2904D946
:10206000274842F6DC4116F0B7FE264A04F07F040A
:10207000D2F86438002BFBD1234A936923F07F0305
:102080001C439461D4E7204DD5F890305B0704D50C
:102090001B4842F6EC4116F09FFE6B6A23F03003BA
:1020A00043F010036B62296B184BC4F3C312033265
:1020B0000F2A03EA010328BF0F22234343EA0273D6
:1020C0002B63B5E77F2904D90D4842F6075116F076
:1020D00083FE4F2C0B4A28BF4F24D2F87438002BB4
:1020E000FBD1094A936B23F07F03234393639FE75C
:1020F000BDE83840024842F6155116F06DBE00BFEB
:10210000680402000020C84300400E4000F8FF0FA2
:1021100038B502280C4604D0134842F62D5116F06B
:102120005BFE124D6B6A13F0300F1AD0202C15D0C5
:10213000302C16D0ACB10C4842F6485116F04CFE8B
:102140000B4BD5F8902033EA0202FAD15B024ABF6A
:10215000D5F8A0000120C0F3802038BD4FF4000363
:10216000EFE74FF44003ECE76804020000400E4044
:10217000FFF3E17F08B502280CD129B1094B4FF4D8
:102180008060C3F8A80059664AB1BDE80840022043
:10219000FFF7BEBF044842F67E5116F01DFE012037
:1021A00008BD00BF00400E40680402002DE9F34165
:1021B00080460C461746072831D8DFE800F0383F44
:1021C0004B504530300401A801F0A6FE9DF80530C3
:1021D000012B0AD89DF80430022B06D8564C42F643
:1021E000EB31204616F0F8FDF9E7002C40F0858031
:1021F0004FF400420E240F2350490A660122A240E8
:10220000D1F890001042FBD1002F73D001224B492E
:1022100002FA03F3D1F890201A42FBD16AE0464853
:1022200042F6F93102B0BDE8F04116F0D5BD002903
:1022300069D14FF4007208240923DDE7002967D132
:10224000802206240723D7E7002965D12022042411
:102250000523D1E741B9082202240323CCE7002952
:102260005ED102220123C7E7344D6B6A13F0300FB1
:102270005AD1334BDB6B5A0504D42F4842F6084140
:1022800016F0AAFD6B6ADB0741BF6B6A23F03003CF
:1022900043F010036B62042602230321274A1666CB
:1022A000284A13449B0018680028FCD017B3114437
:1022B0008D002B68002BFCD0B8F1020F1AD1CCB1E5
:1022C0001E4C616A11F0010132D0012220214046EA
:1022D000FFF750FFD4F89C70012200210220FFF785
:1022E00065FFC7F30A010220FFF782FE26662B680E
:1022F000002BFCD002B0BDE8F0814FF480460E23E5
:102300000F210024CAE74FF4807608230921F8E75B
:10231000402606230721F4E7102604230521F0E7D1
:10232000012600233146ECE7042602230321E8E7D7
:102330004046FFF7EDFECDE76804020000400E4086
:1023400000300E408004F21010B50246B8B90122E8
:102350001146FFF72BFFFFF7E9F9124B04225A67EA
:10236000FEF77CFAFFF796F9FEF7A2FA0446FFF7AC
:10237000FDF901462046BDE81040FFF737BA0128B5
:1023800007D10146FFF712FFFFF7D0F9054B0322F3
:10239000E5E7054842F23A3116F01EFDFFF7C6F9AF
:1023A000DEE700BF00400E406804020038B5FEF7CB
:1023B00091FA0021044600F09BFC1248FFF76AF9ED
:1023C000012211460220FFF7F1FEFFF7AFF90CB131
:1023D000FFF7BEF90C4B02225A67FEF73FFAFFF7F0
:1023E00059F9FEF765FA0546FFF7C0F90146284698
:1023F000FFF7FCF92CB920460121BDE8384000F078
:1024000077BC38BD0148E80100400E4070B51C4B58
:102410001C681C4B9C4221D81B48FFF73BF901224A
:1024200011460320FFF7C2FEFFF780F90024174B87
:1024300001265E67FEF712FAFFF72CF9FEF738FA6D
:102440000546FFF793F901462846FFF7CFF9B4B9DF
:1024500031462046BDE8704000F04ABC00212046CD
:1024600000F046FC0848FFF715F901221146032049
:10247000FFF79CFEFFF75AF9FFF76AF9D7E770BD3F
:1024800044100020002D31010148E80100400E40B9
:1024900010B5012211460320FFF788FEFFF746F929
:1024A000084B05225A67FEF7D9F9FFF7F3F8FEF754
:1024B000FFF90446FFF75AF901462046BDE81040EF
:1024C000FFF794B900400E4038B5112829D10429EE
:1024D00016D1FEF7FFF90446002858D0002100F07D
:1024E00007FC8B48FFF7D6F802200546012211466B
:1024F000FFF75CFEFFF71AF994B3FFF729F92FE015
:1025000005291ED1834B1C68834B9C4241D9002175
:10251000204600F0EDFB7E48FFF7BCF801250320C4
:10252000E4E700F00F000138072800F2ED80DFE853
:1025300010F008005A009500EB007100B600EB00A7
:10254000C40002390A292DD8DFE801F0432F2123E6
:102550002C2C2C2C25390600FFF7E8F80024072541
:102560006E4B5D67FEF7A4F90546FEF777F9FFF7B6
:1025700091F8FFF7FBF801462846FFF737F9002CE2
:1025800077D120460121BDE8384000F0B1BB0024DE
:10259000A7E70024BFE742F22F51BDE8384060486A
:1025A00016F01ABC42F23451F7E7012211461046E8
:1025B000FFF7FCFD0024FFF7B9F80325D0E701225F
:1025C00011460320FFF7F2FD0024FFF7AFF80525C1
:1025D000C6E7012211460020FFF7E8FD0024FFF7BF
:1025E000A5F80425BCE706293AD14D484D4C42F2E6
:1025F000735116F0F1FB4A4842F2835116F0ECFB9E
:10260000FEF72CF9FFF746F8474B0122C3F80826DE
:1026100003232DE00629454CEDD001390C2937D88C
:1026200001A353F821F000BF9726000065260000A3
:10263000752600009126000091260000012600006A
:102640009126000091260000912600009B260000A4
:10265000912600009126000083260000344CDCE720
:10266000304CDAE7012211460020FFF79FFD0223DC
:10267000236038BD012211461046FFF797FD012364
:10268000F6E7012211460720FFF790FD0523EFE74B
:1026900042F2AE5181E70023EAE70423E8E7072985
:1026A00004D0092906D042F2386176E71B4B00229C
:1026B0001A67DEE7194B0122FAE7013907291CD80E
:1026C000DFE801F01E1B1B141B1B04200122114616
:1026D0000420FFF76BFD01221049D1F85C3123F093
:1026E000300343EA0213C1F85C31C2E7012211460C
:1026F0000220FFF75BFD0222EEE742F296614CE713
:102700000022E9E70322E7E742F26D7145E700BFE7
:102710000148E80144100020002D310100400E4026
:102720006804020080400E400010C84388400E40FC
:1027300084400E4010B504461120FFF771FA0428BA
:1027400004D1214842F6732116F046FB01220021F4
:102750000220FFF72BFD237C012B04D11A4842F6FF
:10276000B02116F039FB194A217C536A23F001038A
:10277000022908BF43F001035362154B2178C3F8C7
:10278000A014637AA18843EAC123D362136BA07AB1
:10279000217A03F07F630343E08843EAC02343EADE
:1027A000C11303310F2928BF0F2143EA01731363BB
:1027B000A37B617B1B0143EA0133E17B0B43217B5C
:1027C00043EA0143536310BD6804020000400E4019
:1027D0000000C84370B505461120FFF721FA022812
:1027E00004D10F4842F62B3116F0F6FA0D4E0E4C7E
:1027F000B26B6B7814402A78144344EAC324AB7854
:1028000044EA0364EB7844EA0324B36BA34205D0A3
:10281000002101220846FFF7C9FCB46370BD00BF68
:102820006804020000400E4080E4FFF8436823F093
:102830001F030E2910D8DFE801F008080808080B6C
:102840000B0B080808080B0B0B001943416070477D
:10285000194341F01001F9E702484FF4EA7116F00C
:10286000BBBA00BF7005020070B5064615460C469F
:1028700021B9094840F2ED1116F0AEFA214606F1F1
:10288000200016F00EFB102D05D104F11001BDE85B
:10289000704016F006BB70BD70050200034BD86B8C
:1028A00080F04000C0F38010704700BF00300E4041
:1028B00010B542EA0322B2F5007F194C29D00AD89C
:1028C000B2F5807F22D040F201139A4215D062B94E
:1028D000D4F81C320BE0B2F5407F1DD040F201333A
:1028E0009A4210D0D4F8283201E0D4F82432C3F34D
:1028F0000722DBB203600A6010BDD4F824321A0E3E
:10290000C3F30743F6E7D4F82832F8E7D4F81C32CB
:10291000F5E7D4F82032EAE7D4F82032EFE700BF39
:102920000081E00F08B5FFF7B9FF20B1024AD2F8E5
:10293000C830002BFBD108BD0000C64308B5FFF727
:10294000ADFF80B1FFF7EEFF074B19685A68C1F37E
:102950000121C2F3014291421A688CBF42F0100279
:1029600022F010021A6008BD00300E40064B1B68B2
:10297000DB0608D5054B1B69C3F30443082B02BFD4
:10298000034B044A1A60704700300E4000400E406E
:1029900044100020C0EA210170B5FFF77FFF38B175
:1029A0002D4B1A781023C2F1020293402B4A136177
:1029B0002B492C4DD1F8804145F60E03C1F88031EA
:1029C0002B6823F0AA03DB05DB0D0B66FFF7AAFFDC
:1029D000224B1B68D80604F0010415D5D1F840310C
:1029E000DA01FBD4204B1B680B61204B1B78052BB5
:1029F0000AD11F4B1E68FFF795FF184B59683046E8
:102A0000C1F30141FEF7F2FE184B1B78023B0A2B83
:102A10000AD8DFE803F00615170909090909091A98
:102A20001D000020FFF790FC2B68DB075EBF0C4BFE
:102A300002221A661CB10A4B0022C3F8802170BD25
:102A40000120EFE7FFF7B2FCEEE7FFF721FDEBE730
:102A5000FFF798FAE8E700BF0223002000300E409D
:102A600000400E40F0170020EC1700200323002048
:102A70004410002010B50B4C0B4BD4F890201A607A
:102A80001120FFF7CDF8094B1870FFF74BFF084BEB
:102A9000084A5B68C3F301431370074B22691A604D
:102AA00010BD00BF00400E40F0170020032300209F
:102AB00000300E4002230020EC1700200949427824
:102AC0000B6823F4407343EA0223022A0B6008D107
:102AD000054B5B6A9B0004D5044840F2313116F087
:102AE0007BB9704700300E4000400E40BB0502002D
:102AF00038B5054608B1FFF7BDFFFFF71FFF1A4ABB
:102B0000136943F00403136116F0B3FA16F0B2FA36
:102B1000164B174AC3F8242403F559231B68DB0618
:102B200014D516F096F91DF007F916F096F916F07F
:102B3000A2FA104C03F000FE55B1FFF72DFFD4F8B8
:102B40004C3123F00043C4F84C3138BD30BFEEE7C0
:102B5000FFF70CFFD4F84C3123F00043C4F84C319C
:102B6000BDE83840FDF7A4BE00ED00E000A0004045
:102B70000000FFFF00300E4038B5054608B1FFF7F2
:102B800079FFFFF7DBFE1F4B1F4CD3F8802145F682
:102B90000E01D207C3F8801148BF00224FF4207104
:102BA000196648BFC3F88021184A136943F004032B
:102BB0001361174B174AC3F8242416F05AFA2368F6
:102BC000DB0611D516F045F91DF0B6F816F045F9FB
:102BD00003F0B2FD55B1FFF7DFFED4F84C3123F01E
:102BE0000043C4F84C3138BD30BFF1E7FFF7BEFEFB
:102BF000D4F84C3123F00043C4F84C31BDE83840E0
:102C0000FDF756BE00400E4000300E4000ED00E0E3
:102C100000A000400000FFFF0E4A0379916921F0F7
:102C20003F010B43017843EA8103417843EA4103C2
:102C3000817843EAC103C178012908BF43F0010349
:102C400093611368417923F4403343EA01431360ED
:102C5000704700BF00300E402DE9F04104460F469A
:102C6000FFF71CFEC8B3DFF88480FFF75BFED8F8DF
:102C70000430C3F301439C422FD0194BD3F80061B9
:102C8000FDF7ECFD022C054617D1164BC6F30426C2
:102C900006FB00069E4204D9134840F2AD7116F0BF
:102CA0009BF802212846FEF7A1FD104B10221A6165
:102CB0009FB1BDE8F041FFF735BEC4F10202102319
:102CC0009340C8F810300FB1FFF72CFE2CB9214605
:102CD0002846BDE8F041FEF789BDBDE8F08100BFA0
:102CE00000400E40002D3101BB05020000300E40B7
:102CF00038B505460C46FFF7D1FDB8B145B90C4BC8
:102D0000D3F80051FDF7AAFDC5F3042505FB000526
:102D1000084B1B7821463BB1074B9D4204D802204B
:102D2000BDE83840FFF798BF0020F9E738BD00BF85
:102D300000400E4004230020002D3101034B027897
:102D40001A7001210020FFF7D3BF00BF0423002029
:102D500010B5174B4AF6E852596B5A639A6FD4076D
:102D6000FCD41B6C13F0030306D0124A01249842D2
:102D7000C2F8B44A05D110BD18B90E4BC3F8B40A55
:102D8000F9E70B4B9A6FD207FCD41A6C22F00302BE
:102D900002431A649A6F12F00102FBD10038054C0D
:102DA00018BF01200129C4F8B40A08BF5A63E2E73A
:102DB00000300E400000C6432DE9F04F8BB00023D9
:102DC000CDE90433CDE90633CDE90833A0F5E1635D
:102DD000B3F5966F05460191934608D94FF44161CA
:102DE0006E4815F0F9FF00200BB0BDE8F08F6C4B7A
:102DF000DFF8B081D3F81842B0F5E16F15BF4FEAA4
:102E0000146AC4F3072AC4F30744E4B20694CDF865
:102E100024A0D8F84C60C6F301768CBF01220022B2
:102E2000334607A904A815BF4FF4E1674FF496672E
:102E30004FF496694FF416790392FFF739FDD8F8ED
:102E4000E030039AC3F3012308A905A80293FFF712
:102E50002FFDA5EB070CAAEB04020CFB02F2B2FB60
:102E6000F9F214445445079F0498089A05991ED80E
:102E7000A2EB010E0CFB0EFEBEFBF9FE11EB0E01E8
:102E80002CBF4FF0010E4FF0000E8A420FD3BEF15F
:102E9000000F0CD13A1A0CFB02F2B2FBF9F28018C7
:102EA0002CBF01220022874201D3029B12B140F6BF
:102EB0005E4195E7BBF1000F0FD0D8F85C20B5F567
:102EC000E16722F4FE4218BF012722F0020242EA23
:102ED000470242EA0422C8F85C20019A0AB901209C
:102EE00082E72F4A022ED2F8302212D0032E13D0BE
:102EF000012E14BFD2B2C2F30722120312F4702FB4
:102F00000CD040F61621254815F066FF40F66D41BD
:102F100066E7C2F30742F0E7120EEEE7214EF46EC9
:102F200024F470442243F2661D4A022BD2F8302268
:102F300012D0032B13D0012B14BFD2B2C2F307223D
:102F4000120312F4702F0CD040F62221134815F012
:102F500043FF40F6754143E7C2F30742F0E7120E24
:102F6000EEE7104CD4F8E03023F470431343C4F878
:102F7000E030636E884238BF084623F4FF73E728C9
:102F800023F0010328BFE720B5F5E16F18BF43F038
:102F9000010343EA40036366A1E700BFBB050200EB
:102FA0000081E00F00300E4008B5324A136FD16C3B
:102FB00011F0010F03F0060342D0002B40D013287C
:102FC00055D9143813288CBF102308232949013BF5
:102FD000CA6C180322F47F4240EA03231343CB64F4
:102FE000254BCA6C1B88C2F303222833013202EB43
:102FF000820003EB5303B3FBF0F3C86C013B072BD8
:1030000028BF072320F0EE6040EA036343F48013F7
:10301000CB641A4BB3F90030002B10DB2833500877
:1030200000EB420203EB5303B3FBF2F30A6D072BF1
:1030300028BF072322F0700242EA03130B6508BD84
:10304000D16C01F00101194304D109280FD90A38C4
:103050000928B8E7D26CD20702D50BB92728B2E706
:10306000074840F6B34115F0B7FE0023AEE704234E
:10307000ACE700BF00300E40A02200209C220020C0
:10308000BB05020010B50C4BD3F88039044633B9A8
:10309000012804D9094840F6D14115F09DFE084A9F
:1030A000136F23F0070323431367064BBDE810405B
:1030B0001888FFF779BF00BF0000C643BB050200B8
:1030C00000300E409E22002038B50389C82B0446EC
:1030D00004D9514840F6B52115F07EFEA288238917
:1030E0009A4204D94C4840F6B62115F075FEB4F961
:1030F0000C30C82B04DD484840F6B72115F06CFEB3
:103100006378012B55D1A388C82B04D940F6BB2185
:10311000414815F061FEE28842F210739A4204D9E8
:103120003D4840F6C82115F057FEE2884A2A48D9A2
:10313000B2F5FA7F47D340F6C3139A428CBF4FF0E3
:1031400040524FF000523549B4F90C00CB6C23F0DB
:10315000405323F001030028A8BF43F001031343A9
:10316000CB64D1F8E030A28843F44073C1F8E0307A
:103170002B4B1A80CB6E43F08073CB66294BD3F870
:10318000800900B10420FFF77DFF274B21891980BA
:10319000264BB4F90C20A0881A80FFF705FFA37B0B
:1031A000A3B1012B23D01C4840F6C71115F014FE23
:1031B0000FE0022BAFD1A3880A2BACD94FF42C61BE
:1031C000A6E70022BFE74FF08052BCE7134B184A36
:1031D0009A65012260881146FFF7EEFD054648B961
:1031E0000D4840F6FF2115F0F7FD284638BD0B4B82
:1031F000104AEDE7094AD36B43F48063D3636078E8
:10320000FFF7A6FDA37AA3F1200253425341054ADA
:10321000C2F89437E9E700BFBB05020000300E405A
:103220009E2200200000C643A02200209C220020F5
:1032300077402057372110B770B51F2905460C4637
:10324000164603D90648912115F0C6FD05F1424006
:1032500000F5801004EBC004A400266070BD00BF20
:103260000306020038B5052804460D4605D80B4B69
:1032700033F81030CB40DB0704D4094840F22D412D
:1032800015F0AAFD30230C2113FB041303F18C432A
:10329000012203F52043AA401A6038BD96060200B9
:1032A0002A03020038B5052804460D4605D80B4B05
:1032B00033F81030CB40DB0704D4094840F2FE312C
:1032C00015F08AFD30230C2113FB041303F188430E
:1032D000012203F52043AA401A6038BD9606020079
:1032E0002A03020010B51F28044603D906485221BC
:1032F00015F072FD054AD2F8443423F0030323434A
:10330000C2F8443410BD00BF4C06020000A00040CB
:1033100038B5032804460D4601D9052802D135F0F9
:10332000011303D008487D2115F056FD04EB440439
:10333000200100F180402A464FF00111BDE83840DD
:1033400000F5204015F09CBE4C0602002DE9F04728
:1033500005289DF820909DF8248006468A4614464C
:103360001F4605D8254B33F81030CB40DB0703D47C
:103370002348BF2115F030FD8AEA0403032B03D94B
:103380001F48C12115F028FD072C0AF0030A4FF051
:103390000F0123D8A5001B4806FA05F2A94015F035
:1033A0006FFE032118480AFA05F2A94015F068FEDD
:1033B0003A4621461548FFF73FFF4A462146144842
:1033C000FFF73AFF134A14480123A340C2F82434FC
:1033D00021464246BDE8F047FFF72EBFA4F108059D
:1033E000AD000E4806FA05F2A94015F049FE03218A
:1033F0000B480AFA05F2A940D8E700BF960602007A
:103400004C06020000A4004008A4004010A40040A4
:1034100014A4004000A0004028A4004004A40040E0
:103420000CA40040F8B5052804460D4616461F4674
:1034300005D81C4B33F81030CB40DB0704D41A48B6
:103440004FF4B07115F0C8FC26B129462046CFB123
:10345000FFF708FF04EB4403072D4FEA03134FF077
:103460000F0112D8A80006FA00F281400F48184454
:1034700015F006FEAEB92946204677B1BDE8F84002
:10348000FFF7F0BEFFF70EFFE4E7A5F108008000AC
:1034900006FA00F281400648E9E7BDE8F840FFF788
:1034A00001BFF8BD960602004C06020004A00040D1
:1034B00008A00040F8B506460F461546002A6AD017
:1034C00003F00304036823F44073036015F0C1FCA8
:1034D000326882EA042303F440735340336015F0EA
:1034E000BCFC37B92D4B9E420DD12D48FEF762FC36
:1034F000074633689A0717D5012C1BD0022C27D01A
:1035000064B9284B17E0284B9E4201D12748EDE7CC
:10351000274840F22F1115F05FFC336824484FF420
:10352000B27115F059FC08E0012C13D0022CE7D140
:10353000204B00E0204B9F42F0D9204B1B5D6B439A
:103540000AD140F27511BDE8F840194815F044BCA5
:103550001B4BF0E71B4BEEE7A3EBC504013C3C44DF
:10356000B4FBF3F4013C0CD5114840F27B1115F08B
:1035700033FC0F484FF4BE7115F02EFC33683461F4
:10358000F8BDB4F5007FF4D233689B07F7D5002C63
:1035900008BF0124F3E740F21511D4E700C0004052
:1035A0000062040080841E0000C400400072040019
:1035B000A2060200002D3101404B4C00EA06020039
:1035C000809FD5004054890038B50A4B9842044684
:1035D0000D4608D003F58063984204D0064840F2B7
:1035E000951115F0F9FB04F1424404F580146401CF
:1035F000256038BD00C00040A206020038B5124B5D
:10360000984204460D4608D003F58063984204D0E2
:103610000E484FF4D57115F0DFFB002323640C4BEB
:10362000E3636A78630103F1844382F001025A6024
:10363000D5E9011220462B7BFFF73CFF2978204675
:10364000BDE83840FFF7C0BF00C00040A20602003E
:10365000FFFF070070B57C4B98420BD003F58063E9
:1036600098421DD0794840F2012115F0B5FB6FF06A
:10367000030070BD764B9968426B12F4C06F15D091
:1036800091050FD5FD225A7009221A70002202649A
:1036900093F90110012900D15A7093F90100E8E76C
:1036A0006C4BE8E75605EFD5FE22ECE71C78082CBA
:1036B00000F2C680DFE814F009001F0041004D0051
:1036C0006A00760094009D00BD004C880A88E506DB
:1036D0000AD5120A02F0060242F0F0020121197026
:1036E000C26241600120C4E702F0FE02A10748BFA8
:1036F00042F00102F2E7160606D58022C2634FF6B9
:1037000008721A80022316E05506EBD54022C263E8
:103710004A88D40604D502221A700B78C362E1E706
:10372000960764D507221A701B7901EBC3031B8926
:10373000012BD7D108234360D4E71506DDD4540606
:10374000D0D54022C2634A88920750D503221A700E
:1037500092E74C880A88E60643BF120A02F0060286
:1037600042F0F00202F0FE02650709D51C7901EB78
:10377000C40142F001020989012904BF0821416006
:103780000421197001234360C262ABE71406B4D46C
:103790005206A7D54022C2634A88560727D507227A
:1037A0001A709FE71A795D8801EBC2042689AE4240
:1037B0000FD80132D2B200241A715C804C886507A0
:1037C000C4D4E40702D4012A7FF656AF08221A7047
:1037D00098E76268691C5980525DC2620622DFE781
:1037E00016068AD455067FF57DAF4022C2630522B6
:1037F000ADE794067FF576AF1A795C88C56901EB71
:10380000C2010A89A24281BF4968661C5E800D55CB
:1038100059888A42DAD90424012A446004D0013A42
:10382000914201D1082242601A78092A3FF42EAF52
:1038300058E7D2057FF556AF4FF48072C26323E795
:103840004FF609321A8021E700C00040A2060200AC
:10385000F417002000180020084B4FF40072C3F842
:103860008020BFF34F8FBFF36F8F054B0021D966C8
:103870004FF4AA401962FDF7C9BF00BF00E100E0A4
:1038800000200E4038B5072805460C4603DD0848E1
:10389000772115F0A1FA1F2D84F0010403D9054802
:1038A000912115F099FA044B2B449B001C6038BD04
:1038B000EE06020003060200A001F11010B5044656
:1038C00018B91C48912115F087FA23781B0613F0CC
:1038D000784F03D01748922115F07EFAE378072B32
:1038E00003D91448A32115F077FA01214FF4AA4017
:1038F000FDF78CFFB4F8013022785BBA9BB243EA43
:1039000002630D4A136000231362D36253634FF0C6
:103910000043D3664FF0FF339366084A4FF40071BB
:10392000C2F88011E3785B01DBB282F809331160E1
:1039300010BD00BFEE06020000200E4000E100E0D6
:103940002DE9F041C3B20126072805460C469046F2
:1039500006FA03F603DD3A48EC2115F03DFA1CB9EE
:103960003748ED2115F038FA236823F47C1323F04F
:103970000F031BB13248F22115F02EFAA37A1B0473
:1039800013F47C0F04D02E4840F2091115F024FAEC
:10399000E37A1B0513F07E6F04D0294840F20B1127
:1039A00015F01AFA237B5B0513F0FE5F04D0244860
:1039B00040F20D1115F010FA224F3022BE6602FBC4
:1039C00005702368C0F88030637BC0F88830E37AE4
:1039D000A27A1B0543EA0243227B43EA4253C0F822
:1039E000843028F00303C0F8983015F039FAFB6EE4
:1039F0003343FB66237A13B17B6B33437B63637A78
:103A000013B1FB6A3343FB6223793A6823B1DB438A
:103A10001B0263F47F431A4063790BB142EA03222D
:103A2000A3790BB122EA0302E3791343054A136039
:103A3000054B9E62D663BDE8F04115F017BA00BF92
:103A4000EE06020000200E4000200E4410B5C3B266
:103A50000124072804FA03F404DD094840F2971111
:103A600015F0BAF915F0FCF9064AD36E23EA0403FF
:103A7000D366054B1C62BDE8104015F0F7B900BFD6
:103A8000EE06020000200E4000200E4410B5C3B226
:103A90000124072804FA03F404DD0B4840F2B511B1
:103AA00015F09AF915F0DCF9084B1A6A224208D190
:103AB0009B6A9C430CBF0124002415F0D7F92046D3
:103AC00010BD0024F9E700BFEE06020000200E4002
:103AD00070B5114B984205460C46164611D1012986
:103AE00005D9BDE870400D48D92115F075B9B2F57A
:103AF000803F03D30948D92115F06EF954B92E61DE
:103B000007E00648D92115F067F9002CF7D0012C01
:103B100000D070BD6E61FCE7006004403707020012
:103B200038B5094B984204460D4604D0074840F288
:103B3000091115F051F9636B9B07FCD415B10123F2
:103B4000636038BD0223FBE70060044037070200D2
:103B500038B5204B984205460C4604D01E484FF419
:103B6000B37115F039F9217839B9AB68DB0704D5A1
:103B70006B6B9807FCD402236B606378A078E268D3
:103B80001B0320B93AB143F400732A6103E043F404
:103B90000073002AF9D1E2780AB143F480732279E4
:103BA0000AB143F0400362790AB143F08003E2793D
:103BB000A079120142EA8002207A024313432B606B
:103BC00039B1AB68DA0704D46B6B9B07FCD40123D3
:103BD0006B6038BD006004403707020010B50D4C23
:103BE00063685B0304D50C4840F21F3115F0F4F80C
:103BF000636813F4403F04D007484FF4487115F050
:103C0000EBF8064B41F671321A649A6822F0010211
:103C10009A6010BD00300E408307020000000E4085
:103C2000034B9A6822F001029A6000221A647047DE
:103C300000000E40094A0A4BD969C90705D512B9D7
:103C40006FF002007047013AF6E7002AF8D001222F
:103C50001861DA60D86940F3800070478096980058
:103C600000000E4070B505460C4609B9002070BD35
:103C7000134B1A68134B9A4204D8134840F213416D
:103C800015F0AAF8114A0023082055F82310916175
:103C90000F49D0600133D669F60705D511B96FF029
:103CA0000200E4E70139F6E70029F8D0D169890775
:103CB00002D56FF00100DAE79C42E6D1D6E700BFFB
:103CC000481000203F420F008307020000000E4012
:103CD000809698002DE9F8432F4B1F6C154610F085
:103CE000030F41F6713280460E46BFB21A6404D00B
:103CF0002A484FF48C6115F06FF8AA0704D02748C2
:103D000040F2634115F068F8254C63685B0304D505
:103D1000224840F2674115F05FF8636813F4403FB2
:103D200004D01E484FF48D6115F056F81A4A936876
:103D3000AD0843F0010393602BD118484FF48E6116
:103D400015F04AF800201AE0C4F30A04C4F5006430
:103D5000A408A5EB09039C4228BF1C462146304617
:103D6000FFF780FF58B9A14406EB8406A945E9D2C4
:103D700008EB89042046FFF75DFF0028E4D0064BDE
:103D80009A6822F001029A600FB100221A64BDE81D
:103D9000F8834FF00009E9E700000E4083070200B6
:103DA00000300E4070B5304B41F671321C6C1A6415
:103DB000C0F30A030546A4B223B12C4840F2D64111
:103DC00015F00AF82A4E73685B0304D5274840F2C1
:103DD000D94115F001F8736813F4403F04D023482B
:103DE00040F2DA4114F0F8FF1F4B9A6842F00102EA
:103DF0009A6001221D61DA60DA69500709D59A6874
:103E000022F001029A600CB100221A644FF0FF30D8
:103E100070BD0222DA60174AD969C90700D56AB9AC
:103E2000D96911F002010BD09A6822F001029A6060
:103E30000CB100221A646FF00100E9E7013AEBE7E8
:103E400042B9996821F00101996004B11A646FF0D8
:103E50000200DDE79A6822F001029A600CB90020A6
:103E6000D6E71964FBE700BF00000E40830702009D
:103E700000300E408096980038B5022804460D4662
:103E800003D911484C2114F0A7FF6B791F2B03D9DC
:103E90000D484F2114F0A0FFAB786A789B0143EAEC
:103EA00082032A781343EA7843EA02132A7943EA21
:103EB000C2236A7943EA0233AA79043443EA4243CB
:103EC0002401024A135138BDCB07020000200440F0
:103ED000014B1860704700BF00008442437882782D
:103EE0009B0043EA021302781343C27843EA421369
:103EF000027943EA0223427943EA0233827943EAB0
:103F0000C233C27943EA0243027A43EA4243014A96
:103F1000136070470020044010B5044618B91048DB
:103F2000572114F059FF0F4AD2F8E430D2F8E010CC
:103F30009B0003F03C03C1F381110B43A370D2F843
:103F4000E03003F03F036370D2F8E830D2F8EC20A1
:103F500003F0F003C2F303121343237010BD00BF3C
:103F60001408020000FF0FE0024BD3F8F000D3F872
:103F7000F41070470081E00F024BD3F8F80080B2D4
:103F8000704700BF0081E00FF8B507460C461D469C
:103F900016464AB932484FF4A17114F01DFF24B1FE
:103FA000402D08D1062327E019B92E48FDF702FF5E
:103FB0000446402D42D0402D09D87DB1202D17D088
:103FC000BDE8F840264840F2891114F005BF602D85
:103FD000F6D1B6EB940F3CD804230DE0B6EB141FDA
:103FE00004D91F484FF4BA7114F0F6FE102303E011
:103FF000B6EBD40F1CD808235E43730803EB4413BD
:10400000B3FBF6F3184E203BB6EBC30F4FEAC304E5
:1040100004D213484FF4D07114F0DEFE3B6823F055
:1040200060033B603B6834401D433D607C61F8BDEC
:104030000B4840F2791114F0CFFEDCE70623B4FB05
:10404000F3F3B342AED206484FF4BF7114F0C4FE8E
:10405000A8E7034840F2831114F0BEFEBCE700BF9E
:104060005F08020040410500F8FF7F0070B506467A
:104070000C46154622B90D4840F28E2114F0ACFED4
:104080001CB90B48FDF796FE04460A4B6D00013C37
:10409000B4FBF5F413EA04234FEA042504D00348E3
:1040A00040F2B32114F098FE756170BD5F08020004
:1040B00040410500070080FF38B50C4B984204468C
:1040C0000D460CD003F58063984208D003F5806359
:1040D000984204D006484FF4337114F07DFEEB4350
:1040E0005B0003F00A03E360E56038BD00000140B7
:1040F0005F08020010B51A4B984204460CD003F535
:104100008063984208D003F58063984204D0154834
:1041100040F2424114F060FE40F6AA63E36041F2CF
:1041200005020023236062600F4AA3606361E364B9
:10413000A2640B4A236694426367A367E3670DD0CA
:1041400002F58062944205D002F58062944205D067
:10415000A36502E02365A365E36510BD2365F7E76A
:10416000000001405F080200F9FF010038B5274B4D
:10417000984204460D460CD003F58063984208D05F
:1041800003F58063984204D0214840F2FD2114F0E9
:1041900023FE2046FFF7AEFFAB7C1BB1236843F044
:1041A00080432360EB7C1BB12B7D43F08003A36530
:1041B0002A8A6B7B1343EA89134363602B7BD5E91F
:1041C00001122046FFF7E0FE6B7D1BB1236843F42C
:1041D00080332360AB7D1BB1236843F4004323602D
:1041E000EB7D2A7E1B07120502F4E00203F0E04398
:1041F00013432366636F23F030036367626F6B7E44
:10420000134363672B78E36038BD00BF00000140B3
:104210005F08020038B5274B984204460D460CD083
:1042200003F58063984208D003F58063984204D078
:10423000214840F2693114F0CFFD2046FFF75AFFC4
:104240002B8A226843F001031343AA7B43EA8223AB
:10425000236023682A7D43EA42732360AB7C1BB151
:10426000EB7C43F08003A3652B7B43F480536360B6
:10427000D5E901122046FFF7F9FE6B7B0BB1102345
:10428000E3606B7D1BB1236843F480332360AB7D17
:104290001BB1236843F400432360EB7D2A7E1B0798
:1042A000120503F0E04302F4E002134323662B7887
:1042B000E36038BD000001405F08020038B50446E5
:1042C00019F0A4FD0FCC044D0FC594E80F0085E84C
:1042D0000F00002038BD00BF0C180020F0B547F6D5
:1042E000FF739A4272D0062972D83A4B5B5C022B5C
:1042F0006ED8394D05EBC304DF00A17815F83330D3
:10430000012938BF0121012B13D1E0780025401A83
:10431000A84202D80844C0B2F0BD431BA0EB53032F
:10432000666836F913609642CCBF03F1FF301D4634
:10433000EEE760680028EFD0B0F90040944204DB5B
:10434000B0F902409442B8BF14468388FF2B04BFE3
:10435000B0F90620B0F908C03D440FBF0126002681
:10436000C8224FF0280C131B93FBFCF333446E78E8
:104370001BB29E4201DD002B01DA731E1BB201331A
:104380009BB24FF47A7C071D5D1E2DB24FEAC50E1D
:1043900000EBC5059E42EA88AD6814FB025222EA92
:1043A000E27202F15C02B2FBFCF205DD37F8335039
:1043B000954203F10103E7D200EB0E039888904287
:1043C00028BF1046884238BF0846A4E7FF20A3E76D
:1043D0000020A1E7A90802000C180020F0B506296A
:1043E00061D8324B595C02295DD8314B13F831004A
:1043F000012816D103EBC1039C78D8785B68012CA7
:10440000214638BF0121904294BFC1EB0001C1EBAE
:104410000201CAB2001B8242C8BF002233F9120057
:10442000F0BD002A3DD003EBC103596800293AD002
:104430009878904202D3B1F90200F1E7DC78B1F943
:1044400000009442ECD95C788B88A3F1FF06013C14
:10445000734201F10405E4B2734101F10C07DEB2CD
:10446000B44216D805EBC3034FF47A75B3F9024092
:104470005B686A43D21A04EBD47302EB630292FBCB
:10448000F4F29042CCDBB1F902009042C8DC10B2E9
:10449000C6E737F833C0944503F10106E2D333464B
:1044A000DDE70448BCE70448BAE700BFA9080200FA
:1044B0000C1800200CFEFFFF0080FFFF08B5044829
:1044C000FFF7FCFEBDE80840012019F0A3BC00BFC7
:1044D000B008020000487047BC12002010B5032944
:1044E0004FF000030A4A03600446026343630ED19F
:1044F0000521FEF79BF9636823F4407343F40073CE
:104500006360636823F4406343F40063636010BD39
:10451000200010002DE9F04F8BB0044689469246EA
:104520001946202201A800251E461AF066FA0995B0
:1045300014F08FFC5146804604F5827014F00AFD99
:10454000494604F5847014F005FD314604F5867083
:1045500014F000FD404614F080FCDFF8BC815D4B98
:10456000DFF8B891DFF8B8A12365DFF8B8B114F02F
:1045700070FCC4F850B0676914F06FFCFA0119D5EB
:10458000554B236514F065FCC4F850B0656914F010
:1045900064FCEB0140F1868014F05BFC1499054645
:1045A00004F5887014F0DEFC284614F056FC0BB0BD
:1045B000BDE8F08FFB051CD4484B2365013D9023DB
:1045C000A360636913F4807F454B23650ED014F01C
:1045D00040FC3146834604F5807014F0BBFC58461D
:1045E00014F03BFC3F4B23653F4B63658823A3607E
:1045F000BBE7002D13DA3D4BC4F850A0636514F0FF
:1046000028FC01A9834604F5807014F0ABFC6369B3
:104610005846C3F30343099314F01FFC6D42344B17
:1046200023656369334F13F4407F4FF08803A36021
:104630004FF001016269C4F85080616563692765C4
:104640000ABF01204FF0FF3005F1FF358842C3F368
:104650000723C2F300220BD132B1DF0704D5264B6A
:104660002365264B6365AAE7254B2365254BF9E7B0
:104670009AB9D80711D5244B2365244B6365A165EE
:1046800001A904F5807014F065FC099B03F00F0389
:10469000C4F848318323A36091E71D4BC4F85090C0
:1046A0006365EDE714F0D5FB04F5807831460546E7
:1046B000404614F04FFC284614F0CFFB154B236501
:1046C00014F0C7FB14990446404614F04BFC2046F6
:1046D0006BE700BF3084880198390100C93E810131
:1046E000D23E8201C024D0340982010099830100A6
:1046F000D9080100DB3E0100C8340981E20C8201C7
:10470000C80881E20C82010083D9341181E214824D
:10471000E2148201E0100100C93E819883D9108122
:1047200090A28488353938012DE9F04F89B081464F
:104730000D4616460021202268461F461AF00AFA46
:104740004FF00A0A99F80030022B40D0032B07D013
:10475000012B47D06FF0710B584609B0BDE8F08FC0
:10476000202269463846B0478346BBF1000FF3D19B
:1047700000F082FB99F800100446FFF7AFFE14F03A
:1047800068FB6946804604F5827014F0E3FB4046FE
:1047900014F063FB394B2365204614F058FD14F0E8
:1047A00058FB04F5807883466946404614F0DAFBEE
:1047B000584614F052FB009B012B1CD8204600F0F9
:1047C00065FBBAF1010ABDD1DFF8C4B0C4E71C2211
:1047D00069463846B04704228346002107A81AF0EC
:1047E000B9F9C2E7182269463846B047082283461D
:1047F000002106A8F3E714F02CFB05F10807064694
:10480000294604F5847014F026FD05F11009394697
:1048100004F5867014F01FFD494604F5887014F005
:104820001AFD304614F019FB154B2365204614F091
:104830000EFD4946404614F048FD8346C8B9114B69
:104840002365114B6365204614F001FD294640465F
:1048500014F03BFD834660B90C4B23654FF48E7317
:104860006365204614F0F3FC3946404614F02DFDF4
:104870008346204600F00AFB6EE700BF30C80C01FB
:1048800081E11C018CE11C81D11C0100E11C81D95A
:1048900000B3FFFF2DE9F843064610460F46904649
:1048A0001D4616F0BDF928B129463846BDE8F84343
:1048B00016F0A0B92B69002B40F0AD8000F0DCFAB7
:1048C00031780446FFF70AFE14F0C3FA04F5807647
:1048D00008F110018146304614F0BDFC484614F042
:1048E000BCFA574B236540F281136365204614F0F0
:1048F000AEFC14F0AEFA29468146304614F0ABFC0B
:10490000484614F0AAFA4F4B2365012320466365FD
:1049100014F09DFC4C4B236514F099FC14F099FAAB
:1049200005F108018146304614F095FC484614F024
:1049300094FA464B2365204614F089FC14F089FA5A
:1049400008F108094946054604F5827014F083FC15
:10495000284614F082FA3E4B2365204614F077FC7B
:1049600014F077FA41460546304614F074FC2846A8
:1049700014F073FA374B2365374B6365204614F008
:1049800066FC07F11001304614F09FFC0546002834
:104990003BD1324B2365204614F059FC304B236544
:1049A00014F055FC2F4B236514F051FC2E4B23655E
:1049B0004FF48A73636514F04AFC2C4B236514F0A2
:1049C00046FC3946304614F080FC0546E8B9284BD1
:1049D0002365284B6365204614F039FC14F039FA3E
:1049E00049460546304614F036FC284614F035FAA0
:1049F000214B2365214B6365204614F028FC07F109
:104A00000801304614F061FC0546204600F03EFAED
:104A10002846BDE8F883284616F002F908B1414659
:104A200043E72B69002B3FF449AF012105F110004A
:104A300015F0D2F900283FF441AF114DE8E700BF6F
:104A40008184E11C83D91C83E11C810182D11C017A
:104A5000C81482019983D91481E11C018CE11C01E5
:104A6000811C8401D91C830191D11CE0D81414014C
:104A700081CB1481D11C820181E11C84E2140100EC
:104A800080B0FFFF2DE9F04788B0904605460F46FD
:104A900000F0F2F92978DFF854910446FFF71EFD83
:104AA00014F0D7F904F5807608F110010546304678
:104AB00014F0D1FB284614F0D0F940F28313C4F867
:104AC00050902046636514F0C2FB14F0C2F908F15F
:104AD00008010546304614F0BEFB284614F0BDF927
:104AE0004FF0010A354B23652046C4F854A014F05A
:104AF000AEFB07F11001304614F0E7FB0546002835
:104B000054D12F4B23654FF486736365204614F010
:104B10009EFB14F09EF94146054604F5887014F09A
:104B20009AFB6946304614F01DFA284614F095F9B0
:104B3000244B2365244B6365244BA365204614F066
:104B400086FB234B2365234B636514F080FB224BCC
:104B50002365224B6365C4F858A014F078FB3946EE
:104B6000304614F0B2FB054600BB1D4B23651D4BC0
:104B70006365204614F06BFB14F06BF9694605463B
:104B8000304614F0E7F9284614F067F9164BC4F8DC
:104B9000509063654FF48A73A365204614F057FB69
:104BA00007F10801304614F090FB0546204600F05E
:104BB0006DF9284608B0BDE8F08700BF821CC00C24
:104BC00091D11CC0C00C81E11C82DC0C81148401D9
:104BD000E11C81C80C0C8101D20C848BD91CE0141F
:104BE00084E21482D11C8301C00C82D38182D11C47
:104BF0002DE9F047A2B00E46054600F03DF915F844
:104C0000041B044606F11007FFF768FC1C22002174
:104C100003A819F09FFF4FF0010839460AA80DF1CB
:104C20006809CDF8088014F09DFB294612A814F0FD
:104C300099FB12AB0AAA02A9CDF800902046FFF713
:104C400069FC14F006F94946054604F5867904F531
:104C5000827014F07FF906F1080A3146484614F0D4
:104C6000FAFA514604F5887014F0F5FA284614F063
:104C7000F4F8134B2365204614F0E9FA114B236531
:104C800014F0E5FA104B236514F0E1FA0F4B23659D
:104C900014F0DDFA514604F5807014F016FB58B993
:104CA0003146484614F011FB30B9204600F0EEF8CA
:104CB0004146384614F0A7FF22B0BDE8F08700BF98
:104CC0008AD11C0181D91C0183D11C0181E11C0105
:104CD00010F1860F06D038B19330044808BF6FF04A
:104CE0006F0070476FF07100704700BF009FFFFFBB
:104CF00070B58CB004460D461646002122220DF1F7
:104D00000E0019F027FF4FF41053ADF80C302CB300
:104D100023681BB315B39B79022B1AD0042B20D127
:104D20004FF48073206CADF80E304C2198B90120FF
:104D300014F0C5FEC0B120640C4B0093206CF30846
:104D40002A4603A900F03CFC0CB0BDE87040FFF718
:104D5000BFBF8023E6E703F025F8EDE704480CB079
:104D600070BD6FF07100FAE70248F8E70002C00377
:104D7000009FFFFF809EFFFF10B550B1046844B153
:104D800039B1006C28B100F059FCBDE81040FFF7C4
:104D90009FBF014810BD00BF009FFFFF07B578B15E
:104DA00002686AB1006C58B151B10023019310221E
:104DB00001AB00F0ADFC03B05DF804EBFFF788BF7A
:104DC000014803B05DF804FB009FFFFF2DE9F041AF
:104DD00090B0DDE916870D4614461E4680B379B3C0
:104DE00073B36FB38379022B06D0042B25D06FF0F9
:104DF000710010B0BDE8F081802A21D1202200216D
:104E00000DEB0200069119F0A5FE4FF41053ADF81A
:104E10001C3006AB04931023CDE90273CDE9006882
:104E2000084BADF81E40E208294607A800F076FBC3
:104E300010B0BDE8F041FFF74BBFB2F5807FDCE773
:104E40000148D6E70002C003009FFFFF08B5012913
:104E50000BDC074B074A00290CBF1146194600F02E
:104E6000BDF9BDE8084014F09FBA6FF0730008BDAB
:104E70000800000209000002024B03480122C3F8A7
:104E8000002670470010C84300000F4010B50D4BBE
:104E9000984214D003F5806398420FD101220A4B47
:104EA00003EBC2035C681F2C03D90848912113F05F
:104EB00093FF074B23449B0000221A6010BD002281
:104EC000EDE700BF00000F40680902000306020082
:104ED0008005F210024B03480122C3F800267047F8
:104EE0000010C84300000F40044B984203D003F564
:104EF0008063984201D1FFF7C9BF704700000F409F
:104F000070B5114C114E0A25236843F4807223F4C6
:104F10008073226030462360FCF74CFF0023800A38
:104F200062680AB983420AD1636853B9013DEBD183
:104F3000236823F0010323606FF0920070BD0133FA
:104F4000EEE70020FAE700BF00D001407000020049
:104F50002DE9F04F85B0CDE90012684A684DD2F8CE
:104F6000C03043F40043C2F8C0302B688146D807F4
:104F700019D50024DDF800B0614E4F46A0464FF031
:104F80000A0ABBF1000F2DD14CB114F1940F06D0D9
:104F90005A460021484619F0DDFD4FF00008019BFC
:104FA000C3F800801AE040F271632B60FFF7A8FF9E
:104FB000044698B96B68032BFCD9D5F800312B61F6
:104FC000D5F800316B61D5F80031AB61D5F800310F
:104FD000EB61FFF795FF04460028CAD0204605B0D4
:104FE000BDE8F08F7468A40005D0356B15F45C7FC4
:104FF00012D1002436E04348FCF7DCFEC00A8442AC
:1050000005D17368002BF0D16FF09304C7E7736884
:10501000002BF6D10134F2E7E90515D525F48075AA
:10502000356373685BB9BAF10108EDD0DDF800B003
:105030004F466FF093040023C2469846A1E7D6F886
:1050400000310393039BECE7FFF75AFF044618B9BE
:1050500015F41C7FCDD0E6E710F1930F98D010F136
:10506000940FE0D075687368AD005D4528BF5D465C
:10507000B5EB830F04D9244840F2211113F0ACFEA4
:10508000BA073B4636D125F003011D483944994201
:1050900013D105F0030149B11948D0F800011944B2
:1050A00003F8010B8B424FEA1020F9D108EB0503FE
:1050B0002F44ABEB050BD046BEE7D0F8002143F8F8
:1050C000042BE4E7D2F8001103F8041C4FEA112E78
:1050D00003F803EC4FEA114E090E03F802EC03F853
:1050E000011C0438032803F10403EBD825F0030363
:1050F0003B44CEE7024A2846F4E700BF00400E409A
:1051000000D0014070000200780902002DE9F0474C
:1051100088B00746884615461E46FFF7ADFE044692
:1051200007F17E400838012850D80423236000236B
:105130006360E364626822F4406262606A462363EB
:1051400091466363A8F1040308F11C0853F8041F97
:1051500009BA434542F8041BF8D113F07AFE4946D8
:10516000074604F5827013F0F5FE384613F075FE1D
:10517000184B2365109BDFF8609005EB831704F54F
:10518000D27A13F066FE29468046504613F0F2FEAE
:105190004035404613F061FEBD42C4F85090F0D156
:1051A00013F057FE3146054604F5807013F0DAFE21
:1051B000284613F052FE2046FFF768FE331F1C36C8
:1051C00053F8042F12BAB3421A60F9D108B0BDE8FF
:1051D000F08700BF888AC801070D810138B50D46E8
:1051E0000446D0B16C22002119F0B4FC0C4B9D4256
:1051F00005D001339D420DD06FF0850038BD0949BF
:10520000202204F10C0019F0F8FB0020C4E9010091
:105210002560F3E704492022F3E76FF08600EDE70D
:10522000080000024E0A02002E0A02002DE9F34196
:105230000E461F46054600285FD083B9002A5CD180
:105240002B68324A93425ED0013293420CBF6FF01A
:1052500089046FF08804204602B0BDE8F08100297F
:10526000ECD0036829498B4244D001318B4247D1AD
:105270004FF02008904546D86A68D3008DF8073073
:1052800053098DF80630530B8DF80530530D8DF80A
:105290000430AB68D90001EB52718DF8031002F0B5
:1052A0003F025909372A8DF802104FEA53318DF821
:1052B00001104FEA535316498DF8003094BFC2F1E4
:1052C0003802C2F17802284614F015F90446002885
:1052D000C1D108226946284614F00DF90446002879
:1052E000B9D1C7F80080424605F10C01304619F0EB
:1052F00084FBB0E74FF01C08BCE76FF08604AAE718
:105300006FF08804A7E76FF08904A4E708000002A3
:10531000EE0902002DE9F04F91B01E469DF8743061
:10532000BDF870800290914603930D46002900F06D
:10533000BB804F1E3F09FFF79FFD08F1FF330F2B86
:10534000044600F2DC80B9F1000F00F0D880102E86
:1053500002D0202E40F0D38013F07BFD0023236089
:1053600023636363674B23656749824604F18400C6
:1053700013F0C3FD102E14BF102308231A4649460C
:105380002046019313F01FFE604B2365604B63655D
:10539000604BA365604BE3654FF4C17323662669D8
:1053A00016F00306FBD105F00F03C3F110035FFAFB
:1053B00083FBBBF1100F04A901D1002D76D104F1BC
:1053C000800013F0B1FD504613F047FD102200217C
:1053D00008A819F0BFFB029BA5EB071203EB07110E
:1053E00008A819F00AFBBBF1100F4FEA071A60D0AA
:1053F00010ABA3EB0B028021BBF1010F02F8101CD4
:1054000008D0CBF1110008AB0BF1FF32002118449A
:1054100019F0A0FB08AB04A91A6851F8040B013677
:105420004240042E43F8042BF6D113F012FD236BF7
:10543000019A43F0100349462363054604F18007AF
:10544000204613F0C0FD1A99384613F058FD029E0D
:1054500004F1A009B24440F2051B564534D108A915
:10546000484613F04AFD40F20513236523699B0764
:10547000FCD10CA9384613F057FD039B63B31B986E
:1054800042460CA919F0B9FA0026102200210CA8F6
:1054900019F060FB284613F0E0FC2046FFF7F6FC0D
:1054A000304611B0BDE8F08F0F4644E704F18800A4
:1054B00087E7002DAED15A46294608A819F04AFBC5
:1054C00080238DF82030A5E73146484613F017FDBC
:1054D0001036C4F850B0C0E71B9B039A0CA8984440
:1054E00013F8011B10F8016B984581EA060142EAA6
:1054F0000102F5D1002AC7D06FF09406C5E76FF01E
:105500008606CDE730820100700A0200F50536F00C
:1055100024FC31FE36833624FC31FE362DE9F0477B
:1055200088B00E46DDF84080149FDDE91291002816
:105530003AD0002E38D0B8F1000F35D0B9F1000FB5
:1055400032D089B387B30488B4F5105F2FD1448873
:10555000E408182C2BD0202C01D0102C24D19442FC
:1055600022D1164A23F47E10904220D113F47C1FDE
:10557000C3F3054508BF10258D421BD80DF1100A55
:1055800010220021504619F0E5FA0123CDE902531B
:10559000CDE900A91199234632464046FFF7BAFEED
:1055A0003D6008B0BDE8F0876FF08600F9E76FF066
:1055B0008500F6E76FF08900F3E700BF0002C00343
:1055C0002DE9F041DDF818800C4617461E460546C9
:1055D00030B329B302B91BBB4C220021284619F075
:1055E000B9FA2388B3F5105F09D108F0FE43B3F18F
:1055F000407F15D1104B28F47E129A4203D06FF0F1
:105600008500BDE8F0816488C5F80080E208B242F8
:105610006A6205D8182AF2D0202A04D0102A02D0B3
:105620006FF08600EDE7B242FAD13946281D19F035
:10563000E4F90020E5E700BF0002C0032DE9F74FC1
:105640000D461646044600285DD051B9002A5AD1AD
:1056500003682E4A23F47E13934244D06FF08800EF
:105660001DE00368294A23F47E139342F6D1002EED
:1056700039D0806CE8B1C0F11002B24219D2383092
:10568000204419F0BAF904F128020092616A04F189
:105690003803201D13F0B4FF20B16FF0920003B067
:1056A000BDE8F08FA36CA064C3F11002103E154456
:1056B0001E4406F10F084FEA18182F464FF0010953
:1056C00004F1280A04F1040BC1450ED33544ED1B47
:1056D00009D0A06C38302A463946204419F08DF99B
:1056E000A36C2B44A3640020D9E7CDF800A0616A25
:1056F0003B465246584613F083FF0028CDD1103761
:1057000009F10109E0E76FF08600C8E70002C00375
:105710007FB51D4608B301B3FAB1F3B10368154C68
:1057200023F47E16A6421BD113F47C1FC3F3054459
:1057300008BF1024944216D80123CDE9024300F19A
:10574000280301910093436A816C021D3830FFF7F2
:10575000E1FD58B92C6004B070BD6FF08600FAE727
:105760006FF08800F7E76FF08900F4E76FF09200C0
:10577000F1E700BF0002C0037FB5094B6A4603F1A1
:105780001006154618685968144603C40833B34216
:105790002246F7D12846FDF797FC002004B070BDE3
:1057A000800A020070B586B0184B01AA03F11006FA
:1057B000154618685968144603C40833B342224694
:1057C000F7D11B882380124BD3F8B420120317D5CE
:1057D000A3F500434FF6FF711A8840F24F138A4237
:1057E00018BF13460B48ADF80A30FBF779F8284686
:1057F000FCF7A0FF3220FCF7F5FB002006B070BDDF
:10580000D3F8B830C3F30803ECE700BF900A0200F6
:105810000081E00F00F0490207B5084B18680190BD
:10582000202301A88DF80430FCF7D4FF3220FCF7C8
:10583000D3FB002003B05DF804FB00BFA20A020006
:1058400010B50C480C4C6FF00403A02113F0800F2E
:1058500003F1010207D123442F2A83F800131346D2
:10586000F4D1002010BD03F00F03043B034419766C
:105870001346EBE700ED00E000E100E010B5044660
:1058800013F0E7FA024B1C6013F0E7FA002010BD9A
:105890002C18002010B513F0DCFA034B1C6813F031
:1058A000DCFA204610BD00BF2C18002010B50020E7
:1058B000144613F013FF022804D018B10248C32184
:1058C00013F08AFA204610BDA60A0200034B18689E
:1058D000002380680222194611F0B8BA2011002076
:1058E00038B5037A3022534303F1804303F5622332
:1058F0000446D3F89450D0E9032313449D4201D8C1
:10590000AA4204D905484FF43E7113F065FAD4E970
:10591000030303449D4218BF284638BD0D0B020007
:1059200030B587B0144605461046FFF7D9FF6369C6
:1059300083423CBFD4E903315B181B1A0246ABB16A
:10594000124903910021CDE9013101230494009310
:10595000D4E90013284613F05AFA20B10C484FF44A
:10596000347113F039FA002007B030BD012262769D
:1059700094F82D20002AF6D084F835301321E369FD
:1059800020469847636A20469847ECE72159000073
:105990000D0B02002DE9F04788B004460F4616466D
:1059A000984613F05DFA8146002E00F0AD80237E0C
:1059B00003F0FF02002B00F0E0802046FFF790FF8D
:1059C00063699842824606D1637E23B96C4840F2EF
:1059D0007F3113F001FA6569AA459DBFD4E903320E
:1059E0009B185D1BAAEB0505B54228BF354613F091
:1059F00037FA94F82D308246002B40F0968061698A
:105A00002A46384618F0F9FF63692B4463612E4635
:105A10002CE06069037803F0FD01112940F08280D9
:105A2000216B884205D1A3F111014B424B4184F80F
:105A30003430013E6369216B8B4203F1010308BFDF
:105A40002363636101329542E3D1D4E90323216BDF
:105A50001344994208BF2263216B8A4201D88B42CA
:105A600004D847484FF46D7113F0B6F9D4E9032315
:105A700061691344994208BF626161698A4201D831
:105A80008B4204D83E484FF4717113F0A5F90023FE
:105A9000207A6376FBF7F8F920B1394840F21131EA
:105AA00013F09AF92046FFF71BFF636983423FD149
:105AB0000023237694F82D30E568656103B12563F2
:105AC000636A204698472F4B039300230494029364
:105AD000236901930123009363682168207A2A4691
