:1000000000100020C50700002F8801002F88010084
:100010002F8801002F8801002F8801002F88010000
:100020002F8801002F8801002F8801002F880100F0
:100030002F8801002F880100838601002F8801008E
:100040002F8801006BDD01002F8801002F8801003F
:10005000F93601007BDD010077DD0100053F01007D
:100060006FDD0100AD0F0000097A00002F8801004C
:1000700025060000098701002F8801002F88010054
:100080002F88010095790000E97900002F88010090
:100090002F8801002F8801002F8801002F88010080
:1000A0002F8801002F8801002F8801004D79000062
:1000B000393F010073DD01005958010079690000E2
:1000C000753F01002F880100D12201002F88010017
:1000D0002F8801002F8801002F8801002F88010040
:1000E0002F8801002F8801002F8801002F88010030
:1000F0002F8801002F8801002F88010000000000D8
:10010000013800D0FCE7704700000000000000004C
:1001100001F0FF01102A2BDB10F0070F08D010F8B8
:10012000013B013A8B422DD010F0070F42B3F6D1BC
:10013000F0B441EA012141EA014122F007047FF0D5
:1001400000070023F0E80256083C85EA010586EA2C
:10015000010685FA47F5A3FA87F586FA47F6A5FA68
:1001600087F68EB9EED1F0BC01F0FF0102F0070274
:1001700032B110F8013B013A83EA010313B1F8D11F
:100180000020704701387047002D06BF3546033800
:10019000073815F0010F07D1013015F4807F02BF39
:1001A000013015F4C03F0130F0BC0138704700BF8A
:1001B00070B5414C00238AB0E363054618B100884E
:1001C000236008F081FB3D4E3D481DF095FA3D4B04
:1001D000336030463C4B73601AF0FDFC0021304622
:1001E0000FF08EFD32A3D3E90023A062C4E90623F9
:1001F0001AF0FCFCD4E9062319431043C4E90601B4
:10020000CDE900014FF0FF334FF0FF32A06A1DF03F
:10021000F5FA02224FF0FF31A06A1DF0F1FA012039
:1002200008F064F82949A06A4FF4007300221DF019
:1002300039FBB0F5007F38D10023CDE907330993AE
:1002400094223C23CDE903320593A06A962303A9A7
:1002500006930FF06DFE35B3287C08F0D5FB0546FC
:10026000F0B9A06A1DF0F8FB08F07CFB08F020F85C
:1002700020B14FF48070002107F0FEFC08F028F850
:1002800020B14FF40060002107F0F6FC1AF0CAFD1F
:1002900001200FF089FD0E4A0E49A06A1AF099FC60
:1002A00028460AB070BDFF20D7E70725F8E700BF52
:1002B0000DD5015520000000301300209C1A0020AD
:1002C000690345EC71810000AC1A00209C180020E5
:1002D0007BAB0100BBAB01000348044B834202D05F
:1002E000034B03B1184770470C1300200C13002078
:1002F000000000000548064B1B1AD90F01EBA301B3
:10030000491002D0034B03B1184770470C1300206B
:100310000C1300200000000010B5064C237843B9F0
:10032000FFF7DAFF044B13B10448AFF30080012359
:10033000237010BDDE22002000000000D83402002F
:1003400008B5054B1BB105490548AFF30080BDE872
:100350000840FFF7CFBF00BF00000000501500208D
:10036000D8340200A3F5803A704700BF174B002B2A
:1003700008BF134B9D46FFF7F5FF00218B460F4644
:100380001348144A121A1EF015F90E4B002B00D018
:1003900098470D4B002B00D0984700200021040007
:1003A0000D000D48002802D00C48AFF3008015F076
:1003B00067FE2000290018F058F915F04FFE00BF25
:1003C00000000800000000000000000000100020F5
:1003D0000C130020EC2300200000000000000000AF
:1003E00008B5064C1AF009FB204607F04FFB1AF03F
:1003F00000FB204607F04AFBF4E700BFA08601009F
:1004000008B506F025FB18B10648282118F016FAA1
:100410000AF02AFA28B1BDE8084002482E2118F057
:100420000DBA08BD3EFC010038B501F037FE0E489C
:100430000E4C012101F0A8F901221146002001F023
:100440002DFD022501221146C4F88050002001F044
:1004500025FD0122C4F884501146002001F01EFD44
:10046000C4F88850002038BD30253E0000400E40C2
:1004700007B51E4B01225A641A6842F480721A6052
:1004800001A803F08BFA9DF80530012B03D89DF8E5
:100490000430022B0DD9164B4FF41872C3F88C227E
:1004A000144AC3F89022144AC3F8F022134AC3F83E
:1004B000F822134AD2F8A43143F4F843C2F8A43125
:1004C00004F000FF00F0EEF804F098FE04F0E6FE01
:1004D00004F0AAFEFFF7A8FF18F021FE00F0D4F800
:1004E00003B05DF804EB05F0BDBB00BF00000E409B
:1004F00000400E409A6F0500180100040084320885
:1005000000300E4008B50448012101F03DF9BDE876
:100510000840024800F098BA00350A000010002098
:1005200030B597B0264D0FCD0FAC0FC495E807003E
:10053000302384E80700234A8DF85530224BCDE95B
:1005400003234FF08073059303F1022306934FF0CA
:10055000F0511E23CDE907130E2200210DF12E00CC
:100560001EF028F8194B4FF44020CDE909030C2365
:100570008DF82C300D238DF82D30154B0C93202346
:100580000D9301238DF83930124B0093124803ABC1
:100590000FAA09A905F0F6F9044618B10F488821F9
:1005A00018F04CF99DF83A30002B0CBF03210021C4
:1005B0004FF4E13018F02CF9204617B030BD00BFE1
:1005C00088FC010000000140003204001C000140D2
:1005D000DF22002068150020BC15002058FC010017
:1005E000012905D8034B1B68186808B1436A1847EE
:1005F000704700BF1810002008B50749074805F0EC
:1006000001FCFFF78DFF28B1BDE808400448B82180
:1006100018F014B908BD00BF1C100020E015002020
:1006200058FC0100014818F097BE00BFBC1500201F
:10063000014B1A6A18681047BC150020024B034989
:10064000186800F0CBBE00BF40100020241000202E
:1006500008B5084B01221A70074B00221A70074B8D
:1006600004221A70064B1F221A7004F055FE054B27
:10067000186008BDCE120020FF220020CD120020FD
:10068000CC1200206816002008B50548012101F0B1
:100690007BF818F00FF8BDE8084000F015B800BF6F
:1006A00000350A000148012101F06EB800350A004A
:1006B000014B1022DA60704700A00046014B102267
:1006C000DA60704700A0004470B588B0374D384EEE
:1006D0000FCD01AC0FC495E8070084E80700354C46
:1006E0003548012101F050F83046012101F04CF865
:1006F0000125324B039301A920468DF8125003F0D7
:10070000CBFA2B4604220621022002F0CDFB2A461A
:1007100000230721022002F0C7FB2B4604220821F8
:10072000022002F0C1FB042211462B46002002F0F9
:10073000BBFB234BA3670B2363674FF4487006F0A2
:100740005DF91420FFF7BAFF06F058F92320FFF7F0
:10075000AFFF06F053F9B9212046FFF7AFFF18F0BD
:10076000D1F9FFF7A5FF00231A460621022002F067
:100770009BFB00231A460721022002F095FB2B4623
:1007800000220821022002F08FFB002210462B4697
:10079000042102F089FB204603F0EEF90021A16755
:1007A0003046616700F0F0FF08B070BDA4FC0100A6
:1007B000004204000004014000350A0000127A00E3
:1007C0000B0B000B08B500F083F8124B12498B425B
:1007D00012D3124B124900208B4218D3FFF7C6FDEB
:1007E000186850F82240586840F822400132986852
:1007F0008242F5D30C33EAE70022F8E71C6844F89C
:10080000220001325C68A242F8D30833E4E70022F8
:10081000F8E700BFE0340200EC340200EC340200E0
:10082000EC3402000048704700F04902104AD2F848
:10083000943003F00703023B032B13D8DFE803F0E7
:100840000C14020E0B4B1B68D2F80001C0F30420FD
:100850000130B3FBF0F07047074BF4E7074B1B6820
:100860005B08F1E7054BEEE74FF40043ECE700BF10
:1008700000400E404C10002050100020441000207A
:1008800008B5FFF7D3FF054BD3F80831C3F30823AE
:100890000133B0FBF3F0024B186008BD00400E407E
:1008A00048100020014B1868704700BF501000200E
:1008B000054B1860054BD3F8943003F00703022B67
:1008C00001D1FFF7DDBF70475010002000400E40FF
:1008D000044B054A9A60D3F8882042F47002C3F8AA
:1008E0008820704700ED00E000000000014B186810
:1008F000704700BF4C10002038B504460D4601B1CA
:1009000018B90448372117F099FF23682B60256038
:1009100038BD00BFC0FC0100054A06490346106807
:1009200003448B4294BF13604FF0FF30704700BF09
:10093000541000200000012008B52948012100F0D2
:1009400023FF012304220221052002F0ADFA00203A
:1009500002F00AFA234B0122C3F8102811460420A2
:1009600001F09CFA204801F09DF8204BD3F8F020CC
:1009700042F00102C3F8F020D3F8FC2042F080726C
:10098000C3F8FC20A3F55D43194A1A6000F5D52091
:10099000184B00F2FC40B0FBF3F0174B0138022279
:1009A0001861C3F8F0204FF48072C3F804234FF0AD
:1009B0006043124AC3F8B02F114AC3F8802ED3F80F
:1009C000002E42F48072C3F8002EFF2283F820200C
:1009D000D3F8002E22F48072C3F8002E002008BD48
:1009E00000350A000080144206000E0000ED00E011
:1009F000FF030040F8590D00000004E055CEACC5DF
:100A00000900010030B54FF06043D3F8802ED207C3
:100A100015D501240B4D8440D5F8FC2042F080729E
:100A2000C5F8FC20D3F8002E2243C3F8002E53F85B
:100A30002020002AF0D003F82010002030BD112023
:100A4000FCE700BF00ED00E02DE9FF47044618B9C0
:100A50004448392117F0F2FE4348012100F094FE8A
:100A60002368424A93420AD002F58062934276D0CC
:100A70003C484F2104B0BDE8F04717F0DFBE3C48CA
:100A80003C4FDFF8FC80012100F07EFE6179207987
:100A900001230A2202F008FAE179A07901230A224F
:100AA00002F002FA0A25012694F804A094F80590B1
:100AB000BAF1050F05D838F81A3023FA09F3DA0726
:100AC00004D440F2FE31384617F0B8FE0C21302332
:100AD00013FB0A1303F1884303F5204306FA09F2D6
:100AE0001A60642005F08AFF94F804A094F8059039
:100AF000BAF1050F06D8204B33F81A3023FA09F360
:100B0000DB0704D440F22D41384617F097FE0C2144
:100B1000302313FB0A1303F18C4303F5204306FA39
:100B200009F21A60642005F069FF013DBCD120681C
:100B30000323436423895BBA9BB2836440F20113AD
:100B4000ADF8003023690293E36801936946237D81
:100B50008DF80C3002F094FA04B0BDE8F087074835
:100B60008EE700BF0BFD01004041050000C00040C2
:100B7000006204005EFD0100A8FD01000072040097
:100B8000A8FD01002DE9F04F85B09A46544BDDF8E1
:100B90003C901B789DF844B0DDF8508006460F4627
:100BA0001546002B00F09680072A00F295800E9BD8
:100BB000002B00F09180B9F1000F00F08D80129BA6
:100BC000B3F5006F00F38880012803D1109B002B40
:100BD00000F08280434B03EB05131B7B002B7DD081
:100BE000414C1022002168461DF0E4FC04EB451442
:100BF00010229FBB394620461DF0DCFC43F2100357
:100C00006380BBF1000F03D1E37843F00303E3708B
:100C1000354A0E9BCDF800A002EB451CCCE90193B0
:100C2000129B581E9DF84C30690103F00303C0F37A
:100C30000A009B0643EA001E53582C4818404EEA0F
:100C40000003012E535017D0B8F1000F2ED19CF89D
:100C5000023068F304138CF8023027E000212046AC
:100C60001DF0A8FC4FF444736380BBF1000FCFD19B
:100C7000E37843F03003CAE71323CCF80C309CE848
:100C80000F000CF1100E8EE80F00DCF81C20109BFA
:100C9000CCF814306FF0030161F39F02012FCCF800
:100CA0001C2003D1CCF81890CCF804300D4A29014F
:100CB00002EB051342F80180159A5A600027284676
:100CC000224669469F605E7302F07CFB384605B0A1
:100CD000BDE8F08F0648FAE70648F8E70648F6E769
:100CE000002300206C1700206C1600200F80FFF3FB
:100CF000028000F0018000F0078000F038B5124B50
:100D00001B780546DBB1E0B117F0D9FD0F4A00238F
:100D10001146147B54B92B601A0101EB0313012512
:100D20008C501D7317F0D1FD204638BD0133082BC0
:100D300002F11002EDD117F0C8FD0548F5E70548AE
:100D4000F3E70548F1E700BF002300206C170020FF
:100D5000048000F0028000F0018000F038B517F048
:100D6000AEFD0C4A05460023147B6CB90133082BF9
:100D700002F11002F8D102F0B1FA074B28461C70BC
:100D800017F0A3FD204603E0284617F09EFD034818
:100D900038BD00BF6C17002000230020058000F044
:100DA00010B50D4B1B78044693B1072812D817F0E5
:100DB00086FD0A4B03EB04131A7B2AB100241C7333
:100DC00017F083FD204610BD17F07FFD0448FAE7B9
:100DD0000448F8E70448F6E7002300206C170020D9
:100DE000068000F0028000F0018000F013B5164B81
:100DF0001868019000238DF8043017F060FD134B44
:100E00001C7824B117F061FD114802B010BD012219
:100E10001A7017F05AFD0F4B1C731C7783F82C4087
:100E200083F83C4083F84C4083F85C4083F86C4086
:100E300083F87C4004230DEB03008DF8073002F0AB
:100E40007FFA2046E1E700BFB4FD01000023002047
:100E5000038000F06C17002008B50A4A12785AB1D6
:100E600007280BD8084A02EB00131B7B43B1002173
:100E700002F04AFA002008BD0448FCE70448FAE7FB
:100E80000448F8E7002300206C170020028000F0DF
:100E9000018000F0078000F008B50A4A12785AB1C4
:100EA00007280BD8084A02EB00131B7B43B1012132
:100EB00002F02AFA002008BD0448FCE70448FAE7DB
:100EC0000448F8E7002300206C170020028000F09F
:100ED000018000F0078000F008B50A4A127852B18C
:100EE00007280AD8084A02EB00131B7B3BB102F02B
:100EF000EFFA002008BD0548FCE70548FAE7054879
:100F0000F8E700BF002300206C170020028000F0EB
:100F1000018000F0078000F00D4B1B7893B107288B
:100F200012D889B10B4B03EB00131B7B73B10A4B37
:100F30001A6E01238340134214BF012300230B7058
:100F400000207047054870470548704705487047BE
:100F5000002300206C17002000200E40028000F0CB
:100F6000018000F0078000F010B50B4A12780C46A3
:100F700062B107280CD859B1084A02EB00131B7B59
:100F800043B102F0C5FA2070002010BD0448FCE710
:100F90000448FAE70448F8E7002300206C17002013
:100FA000028000F0018000F0078000F02DE9F041A0
:100FB000DFF86480D8F86070D8F86C301F4000D536
:100FC000FEE7134C01260025374218D02368C8F8E5
:100FD0006860A3B1A16862680131A16028469847A2
:100FE000637B012B0BD150B90A4B03EB45131A7BE2
:100FF00060F341021A731A7F60F341021A770135D8
:10100000082D4FEA460604F11004DDD1BDE8F08159
:101010006C1700206C16002000200E4070B503688D
:10102000684A934240F0A580037AF3B15A1ED2B2C7
:101030001E2A1CD8644CA25C0A70447A002C3AD058
:10104000621E1E2A2FD8DFE802F036363636141418
:1010500014141430303030303032323232323232D6
:10106000343434343434343436001A46E4E7FF225E
:10107000E2E701228A70827A002A40D0551E1E2D96
:1010800035D8DFE805F03C3C3C1A1A1A1A1A3636F5
:1010900036363636383838383838383A3A3A3A3ACE
:1010A0003A3A3A3C3C00FF22E4E70222E2E703221C
:1010B000E0E70522DEE70022DCE701250D71C57AB5
:1010C000002D4CD0681E1E2841D8DFE800F04848AB
:1010D0001A1A1A1A1A4242424242424444444444AE
:1010E0004444464646464646464648484800FF254C
:1010F000E4E70225E2E70325E0E70525DEE7002532
:10110000DCE70120887133B1581EC0B21E289ABF97
:101110002E4B1B5CFF234B701CB3013CE4B21E2C16
:1011200021D82B4B1B5DCB70FAB1013AD2B21E2AEB
:101130001DD8284B9B5C4B71002D00F0CF806B1E9F
:10114000DBB21E2B00F22C81234AD35CC7E0FF20C8
:10115000D8E70220D6E70320D4E70520D2E7002015
:10116000D0E70123DFE7FF23DDE70223E3E7FF23E7
:10117000E1E71A4A934240F0B580037AF3B15A1E70
:10118000D2B21E2A1CD8164CA25C0A70447A002CDB
:101190004AD0621E1E2A3FD8DFE802F04646464685
:1011A00024242424244040404040404242424242C1
:1011B0004242444444444444444446001A46E4E71A
:1011C000FF22E2E70000014061FE010042FE010053
:1011D00023FE010004FE0100E5FD010000040140C2
:1011E00061FE010001228A70827A002A40D0551ED9
:1011F0001E2D35D8DFE805F03C3C3C1A1A1A1A1AA5
:10120000363636363636383838383838383A3A3A64
:101210003A3A3A3A3A3C3C00FF22E4E70222E2E75B
:101220000322E0E70522DEE70022DCE701250D715D
:10123000C57A002D48D0681E1E283DD8DFE800F092
:1012400044441A1A1A1A1A3E3E3E3E3E3E40404060
:1012500040404040424242424242424244444400B2
:10126000FF25E4E70225E2E70325E0E70525DEE7C1
:101270000025DCE70120887133B1581EC0B21E285A
:101280009ABF494B1B5CFF234B70FCB1013CE4B29D
:101290001E2C1DD8454B1B5DCB70DAB1013AD2B282
:1012A0001E2A19D8424B9B5C4B71BDB16B1EDBB241
:1012B0001E2B75D83F4A48E7FF20DCE70220DAE71B
:1012C0000320D8E70520D6E70020D4E70123E3E791
:1012D000FF23E1E70223E7E7FF23E5E70323CB71E1
:1012E000002070BD344A93425CD1037A002B47D072
:1012F000A3F10E02062A8CBFFF2205220A70467A4D
:10130000002E3FD0A6F10D02D2B2122A3AD82B4CB1
:10131000A25C8A70827A002A36D0A2F10C04E4B270
:10132000122C31D8264D2C5D0C71C57A75B3A5F100
:101330000B04E4B2122C29D82248005D88713BB31B
:101340000E3BDBB2062B25D81F48C35C4B701EB387
:10135000A6F10D00C0B212281ED81C4B1B5CCB702E
:10136000E2B10C3AD2B2122A18D8194B9B5C4B71DD
:10137000B5B1A5F10B03DBB2122B11D8154AE4E687
:101380001A46BBE7FF22C4E7FF24CDE7FF20D5E7DD
:101390000523DBE7FF23D9E7FF23E0E7FF23E6E7A9
:1013A000FF239CE70C489CE742FE010023FE01005E
:1013B00004FE0100E5FD010000080140D2FD01002E
:1013C000D2FD0100D2FD0100CBFD0100B8FD0100FE
:1013D000B8FD0100B8FD0100022000F02DE9F04742
:1013E0008AB0924F04460D460FCF03AE0FC697E862
:1013F000070086E80700002C00F0158125B98C4D08
:1014000028460AB0BDE8F0878022002120461DF062
:10141000D1F80023874A63652B68934200F0C480AB
:1014200002F58062934200F0C48002F5806293422C
:10143000E5D1814881494FF460222360002384F87C
:1014400058302F46C4E90A12E0640FCF261D0FC69C
:1014500097E8070086E807006B7D012B08BF8DF831
:101460001A30AB7D4BB1012B00F0A880022B00F0AD
:10147000A880032BC3D14FF44073ADF81C302B7DF3
:101480006F48012B0ABF0023AB688DF819304FF06D
:10149000010108BF4FF4E133059300F075F9694885
:1014A000012100F071F9E06C012100F06DF9EB68A9
:1014B0001A1F0C2AA3D8033B28688DF8183003A9FB
:1014C00002F0EAFB6A69236822F47F0222F47F4279
:1014D0001AB91A6842F480321A60AA792979120678
:1014E00042EA012269790A43E97D00296CD1996FAA
:1014F000E87901F0E03141EA00410A439A670F229E
:101500005A6701A92046FFF789FD054600287FF4A8
:1015100077AF94F81880BDF80A309DF804009DF864
:1015200005109DF806909DF807A09DF808609DF8AD
:101530000970A4F84030B8F1000F4ED143460422A0
:1015400001F0B2FC434601225146484601F0ACFC92
:10155000A37E012B94BF4346012304223946304623
:1015600001F0A2FCE37E3BB90123042294F8411070
:1015700094F8400001F098FC17F0A1F9324B1A786A
:10158000002A44D101221A7017F09FF904F076FF67
:10159000FFF72CFC002104F12000FFF7AFFB014610
:1015A000002837D0294D2BE729482A494FF44022FB
:1015B00043E7294829494FF450223EE74FF400738E
:1015C0005BE74FF4807358E7996F21F01F2121F0FA
:1015D0001F01114399670B2292E72B46012201F06C
:1015E00063FC2B4604225146484601F05DFCA37E75
:1015F000012B94BF2B46012302223946304601F0CD
:1016000053FCE37E002BB7D101230222AEE717F093
:101610005CF9BDE704F12400FFF770FB05460028E4
:101620003FF4EEAEBEE70E4DEAE600BF80FE0100DD
:10163000022000F0000001400052040001000E00F2
:101640004041050000350A0001230020092000F078
:101650000032040001000C000042040001000D00F3
:10166000012000F00C4B984205D90C4B984210D841
:101670000122012301E00022134609490B640949B4
:10168000D1F8003123F0807343EA0263C1F80031DE
:1016900070470222EDE700BF0048E8010090D00348
:1016A0000000C84300400E4038B5114B5B68114B39
:1016B00000221C46C9B21D798D4202D11D688542A7
:1016C0000BD20132052A03F10803F4D141F61401CB
:1016D000094817F0B3F8032102E004EBC204617972
:1016E000034A536823F0407343EA0163536038BDF3
:1016F00000000E40E4FE01009CFE010038B5074CDE
:1017000041F67133256C2364FFF78CF8ADB20021EC
:10171000FFF7CAFF0DB10023236438BD00000E405F
:10172000044BDB6B5B0604D4034AD2F8C830002BB1
:10173000FBD1704700300E400000C64308B5FFF7EC
:10174000EFFF024B5868C0F3014008BD00300E4067
:10175000044BD3F84421D20703D4D3F840211042DC
:10176000FBD1704700400E4038B5064C256C41F661
:1017700071332364ADB2FFF797FF0DB100232364EB
:1017800038BD00BF00000E4038B5C0F30323013B55
:10179000092B06D8DFE803F00C2E050532292405B5
:1017A0001C18BDE83840174841F6B05117F046B84C
:1017B000154DC0F3043405F1424505F5801504EBE1
:1017C000C5008000016038BD104DC0F30434F2E75D
:1017D0000F4DC0F304344FF48030FFF7B9FFEAE750
:1017E000C0F304340B4D1020F7E7C0F304340A4D66
:1017F0000120F2E7094DC0F30434DCE7084DC0F3E3
:101800000434D8E79CFE010000400E4050410E40D9
:10181000F0400E40E8400E40E0400E40C0400E4018
:10182000B0400E4008B5C0F30313013B092B60D84C
:10183000DFE803F0050B0F195F5F1F233C532E4BAE
:10184000D3F80001C0F3042008BD2B4BD3F81401DA
:10185000F8E7294BD3F80031C3F3006301330120CB
:1018600098400138F0E7244BD3F80C01C0F308206E
:10187000EAE7214BD3F80801F8E7204B984209D05A
:101880001F4B98420CD041F654711E4816F0D6FFFB
:101890000020D9E7184BD3F8203103F00F03DEE71F
:1018A000154BD3F82031C3F30113D8E7164B9842F8
:1018B00008D003F5B01303F58053984206D041F6E3
:1018C0007871E2E70C4BD3F82831ECE70A4BD3F8F8
:1018D0002831C3F301230433C1E70C4B984205D1EF
:1018E000054BD3F8300100F00300ADE741F68771F6
:1018F000CBE741F6AC71C8E700400E408006160009
:1019000080162E009CFE010090171A00A0091400FA
:1019100008B500F00F000138072852D8DFE800F0C2
:1019200004152251313B51432E4BD3F8943003F030
:101930000703023B052B06D8DFE803F0502B2903F1
:10194000054A0B2008BD0520FCE7264BD3F8803064
:1019500003F00703013B042B17D8DFE803F01A1844
:10196000163B3D001F4BD3F8843003F00703013BC7
:10197000042B0AD8DFE803F00D0B032E30000620FD
:10198000E0E7184BD3F88830E2E70120DAE70220DD
:10199000D8E70320D6E7134B1B6F13F0010F0CBFE2
:1019A00007200920CEE70F4BD3F85C3103F030035A
:1019B000202B13D0302B13D0102B0CBF072001206D
:1019C000C0E7094842F2013116F038FF0020B9E7BC
:1019D0000C20B7E70A20B5E70D20B3E70420B1E7F4
:1019E0000820AFE700400E409CFE010010B5284BD8
:1019F000984204460DD1FFF78BFF264BD3F8844065
:101A000004F00704052C3BD8DFE804F03F2428301D
:101A10002C24214B984205D1FFF77AFF1D4BD3F8B8
:101A20008840EDE71D4B984205D1FFF771FF194B38
:101A3000D3F88040E4E741F61311194816F0FEFE92
:101A40002046FFF765FF41F642110446144816F0A0
:101A5000F5FED7E7BDE8104016F0EABEBDE810403D
:101A6000FEF744BFBDE8104016F0E5BEFEF7DEFE0F
:101A7000084BD3F80031C3F300630133D84005E0CD
:101A8000074841F6941116F0D9FE002010BD00BFA2
:101A90000300200000400E400500240002001E004C
:101AA0009CFE010038B500F47813B3F5B01F05466D
:101AB0007DD02ED8B3F5402F67D011D8B3F5802F45
:101AC00052D006D843B1B3F5003F58D04FF4F75188
:101AD0001AE0B3F5202FF9D1BDE83840FEF7A6BED5
:101AE000B3F5801F00F09880B3F5A01F55D0B3F573
:101AF000602FEBD15748FFF70BFF072800F08C80D1
:101B00000928E9D041F2D661534816F097FE00202B
:101B100034E0B3F5381F53D013D8B3F5001F58D0B5
:101B20000AD8B3F5D01F56D0B3F5F01FCED14B482D
:101B3000BDE83840FFF75ABFB3F5101FC6D148487B
:101B4000F6E7B3F5481F4DD0B3F5781F78D0B3F55D
:101B5000401FBBD14348FFF749FF434BD3F828311F
:101B6000C3F30123043320E0FEF760FE3E4BD3F8BD
:101B70000C31C3F308230133B0FBF3F038BDFEF79B
:101B800055FE394BD3F80831F3E7FEF74FFE364BDD
:101B9000D3F81431C3F30423EDE73148FFF726FFF0
:101BA000314BD3F8303103F00303D840E6E72B483C
:101BB000FFF71CFF2C4BD3F8203103F00F03F4E7A1
:101BC0002648FFF713FF284BD3F82031C3F3011346
:101BD000EBE72448ACE72348FFF708FF224BD3F894
:101BE0002831F3E72148FFF793FE0138072824D86E
:101BF00001A353F820F000BF0F1B00003B1C0000A6
:101C00003B1C00001F1C00003B1C00003B1C000094
:101C1000191C0000271C0000154B1868AEE7BDE832
:101C20003840FEF73FBEFEF701FE0F4BD3F8003100
:101C3000C3F3042303FB0000A0E741F20D7163E747
:101C4000FEF7F4FD0446284616F02DFEB4FBF0F036
:101C500094E700BF06000E009CFE010002001E007B
:101C6000050024000300200000400E40B8003200B0
:101C70005810002010B5FFF741FD094B07225A67A5
:101C8000FEF7D4FDFFF7EEFCFEF7FAFD0446FFF782
:101C900055FD01462046BDE81040FFF765BD00BF79
:101CA00000400E4008B5FFF733FE022806D00D288D
:101CB0004FF6FF7008BF4FF4FA7008BD014B18884B
:101CC000FBE700BFBA120020014B1880704700BF2D
:101CD000BA120020014B1880704700BFB8120020D4
:101CE00038B50C4604287BD8DFE800F06403451BB8
:101CF0003000B1F5007F04D33D4842F6B44116F000
:101D00009DFD3C4AC4F30804D2F86838002BFBD18F
:101D1000394A136A23F4FF7323F001032343136248
:101D200038BD7F2904D9324842F6C14116F086FDFC
:101D3000304A04F07F04D2F86038002BFBD12E4AE1
:101D4000136923F07F031C431461E9E77F2904D959
:101D5000274842F6DC4116F071FD264A04F07F0464
:101D6000D2F86438002BFBD1234A936923F07F0318
:101D70001C439461D4E7204DD5F890305B0704D51F
:101D80001B4842F6EC4116F059FD6B6A23F0300314
:101D900043F010036B62296B184BC4F3C312033278
:101DA0000F2A03EA010328BF0F22234343EA0273E9
:101DB0002B63B5E77F2904D90D4842F6075116F089
:101DC0003DFD4F2C0B4A28BF4F24D2F87438002B0E
:101DD000FBD1094A936B23F07F03234393639FE76F
:101DE000BDE83840024842F6155116F027BD00BF45
:101DF0009CFE01000020C84300400E4000F8FF0F89
:101E000038B502280C4604D0134842F62D5116F07E
:101E100015FD124D6B6A13F0300F1AD0202C15D01F
:101E2000302C16D0ACB10C4842F6485116F006FDE5
:101E30000B4BD5F8902033EA0202FAD15B024ABF7D
:101E4000D5F8A0000120C0F3802038BD4FF4000376
:101E5000EFE74FF44003ECE79CFE010000400E402A
:101E6000FFF3E17F08B502280CD129B1094B4FF4EB
:101E70008060C3F8A80059664AB1BDE80840022056
:101E8000FFF7BEBF044842F67E5116F0D7FC012092
:101E900008BD00BF00400E409CFE01002DE9F3414B
:101EA00080460C461746072831D8DFE800F0383F57
:101EB0004B504530300401A801F070FD9DF805300D
:101EC000012B0AD89DF80430022B06D8564C42F656
:101ED000EB31204616F0B2FCF9E7002C40F085808B
:101EE0004FF400420E240F2350490A660122A240FB
:101EF000D1F890001042FBD1002F73D001224B4942
:101F000002FA03F3D1F890201A42FBD16AE0464866
:101F100042F6F93102B0BDE8F04116F08FBC00295D
:101F200069D14FF4007208240923DDE7002967D145
:101F3000802206240723D7E7002965D12022042424
:101F40000523D1E741B9082202240323CCE7002965
:101F50005ED102220123C7E7344D6B6A13F0300FC4
:101F60005AD1334BDB6B5A0504D42F4842F6084153
:101F700016F064FC6B6ADB0741BF6B6A23F0300329
:101F800043F010036B62042602230321274A1666DE
:101F9000284A13449B0018680028FCD017B311444A
:101FA0008D002B68002BFCD0B8F1020F1AD1CCB1F8
:101FB0001E4C616A11F0010132D0012220214046FD
:101FC000FFF750FFD4F89C70012200210220FFF798
:101FD00065FFC7F30A010220FFF782FE26662B6821
:101FE000002BFCD002B0BDE8F0814FF480460E23F8
:101FF0000F210024CAE74FF4807608230921F8E76F
:10200000402606230721F4E7102604230521F0E7E4
:10201000012600233146ECE7042602230321E8E7EA
:102020004046FFF7EDFECDE79CFE010000400E406C
:1020300000300E408004F21010B50246B8B90122FB
:102040001146FFF72BFFFFF759FB124B04225A678B
:10205000FEF7ECFBFFF706FBFEF712FC0446FFF76A
:102060006DFB01462046BDE81040FFF77DBB01280F
:1020700007D10146FFF712FFFFF740FB054B032294
:10208000E5E7054842F23A3116F0D8FBFFF736FB98
:10209000DEE700BF00400E409CFE010038B5FEF7B1
:1020A00001FC0021044600F065FB1248FFF7DAFA54
:1020B000012211460220FFF7F1FEFFF71FFB0CB1D2
:1020C000FFF72EFB0C4B02225A67FEF7AFFBFFF720
:1020D000C9FAFEF7D5FB0546FFF730FB0146284657
:1020E000FFF742FB2CB920460121BDE8384000F043
:1020F00041BB38BD0148E80100400E4070B51C4BA3
:102100001C681C4B9C4221D81B48FFF7ABFA0122EC
:1021100011460320FFF7C2FEFFF7F0FA0024174B29
:1021200001265E67FEF782FBFFF79CFAFEF7A8FB2D
:102130000546FFF703FB01462846FFF715FBB4B938
:1021400031462046BDE8704000F014BB0021204617
:1021500000F010FB0848FFF785FA01221146032022
:10216000FFF79CFEFFF7CAFAFFF7DAFAD7E770BD70
:1021700044100020002D31010148E80100400E40CC
:1021800010B5012211460320FFF788FEFFF7B6FACB
:10219000084B05225A67FEF749FBFFF763FAFEF783
:1021A0006FFB0446FFF7CAFA01462046BDE810401F
:1021B000FFF7DABA00400E4010B504461120FFF7D1
:1021C000A7FB042804D1214842F6732116F036FB00
:1021D000012200210220FFF761FE237C012B04D1A4
:1021E0001A4842F6B02116F029FB194A217C536A9D
:1021F00023F00103022908BF43F001035362154B8A
:102200002178C3F8A014637AA18843EAC123D3627A
:10221000136BA07A217A03F07F630343E08843EADB
:10222000C02343EAC11303310F2928BF0F2143EA1A
:1022300001731363A37B617B1B0143EA0133E17BE1
:102240000B43217B43EA0143536310BD9CFE010015
:1022500000400E400000C84370B505461120FFF74E
:1022600057FB022804D10F4842F62B3116F0E6FA4C
:102270000D4E0E4CB26B6B7814402A78144344EA2E
:10228000C324AB7844EA0364EB7844EA0324B36BD9
:10229000A34205D0002101220846FFF7FFFDB463E9
:1022A00070BD00BF9CFE010000400E4080E4FFF8BE
:1022B000436823F01F030E2910D8DFE801F0080857
:1022C0000808080B0B0B080808080B0B0B00194338
:1022D00041607047194341F01001F9E702484FF49B
:1022E000EA7116F0ABBA00BF0CFF010070B50646EC
:1022F00015460C4621B9094840F2ED1116F09EFA38
:10230000214606F1200016F0FBFA102D05D104F14C
:102310001001BDE8704016F0F3BA70BD0CFF01006B
:10232000034BD86B80F04000C0F38010704700BFB3
:1023300000300E4010B542EA0322B2F5007F194C7E
:1023400029D00AD8B2F5807F22D040F201139A42F8
:1023500015D062B9D4F81C320BE0B2F5407F1DD025
:1023600040F201339A4210D0D4F8283201E0D4F878
:102370002432C3F30722DBB203600A6010BDD4F835
:1023800024321A0EC3F30743F6E7D4F82832F8E7ED
:10239000D4F81C32F5E7D4F82032EAE7D4F820323A
:1023A000EFE700BF0081E00F08B5FFF7B9FF20B1EC
:1023B000024AD2F8C830002BFBD108BD0000C6434A
:1023C00008B5FFF7ADFF80B1FFF7EEFF074B1968C7
:1023D0005A68C1F30121C2F3014291421A688CBFCD
:1023E00042F0100222F010021A6008BD00300E40C8
:1023F000064B1B68DB0608D5054B1B69C3F304437A
:10240000082B02BF034B044A1A60704700300E408D
:1024100000400E4044100020C0EA210170B5FFF7D3
:102420007FFF38B12D4B1A781023C2F1020293407E
:102430002B4A13612B492C4DD1F8804145F60E03F0
:10244000C1F880312B6823F0AA03DB05DB0D0B6696
:10245000FFF7AAFF224B1B68D80604F0010415D52C
:10246000D1F84031DA01FBD4204B1B680B61204BC3
:102470001B78052B0AD11F4B1E68FFF795FF184BE1
:1024800059683046C1F30141FFF76EF9184B1B78CC
:10249000023B0A2B0AD8DFE803F0061517090909E1
:1024A0000909091A1D000020FFF7C6FD2B68DB078C
:1024B0005EBF0C4B02221A661CB10A4B0022C3F805
:1024C000802170BD0120EFE7FFF7E8FDEEE7FFF7A1
:1024D00057FEEBE7FFF7CEFBE8E700BF0223002043
:1024E00000300E4000400E40F0170020EC17002096
:1024F000032300204410002010B50B4C0B4BD4F8E4
:1025000090201A601120FFF703FA094B1870FFF7AB
:102510004BFF084B084A5B68C3F301431370074B3A
:1025200022691A6010BD00BF00400E40F017002065
:102530000323002000300E4002230020EC1700206F
:10254000094942780B6823F4407343EA0223022AC4
:102550000B6008D1054B5B6A9B0004D5044840F230
:10256000313116F06BB9704700300E4000400E401C
:1025700057FF010038B5054608B1FFF7BDFFFFF76B
:102580001FFF1A4A136943F00403136116F0A0FAFF
:1025900016F09FFA164B174AC3F8242403F5592363
:1025A0001B68DB0614D516F083F91DF0F5F816F05C
:1025B00083F916F08FFA104C03F000FE55B1FFF7C7
:1025C0002DFFD4F84C3123F00043C4F84C3138BD12
:1025D00030BFEEE7FFF70CFFD4F84C3123F0004397
:1025E000C4F84C31BDE83840FEF74AB900ED00E0D0
:1025F00000A000400000FFFF00300E4038B5054647
:1026000008B1FFF779FFFFF7DBFE1F4B1F4CD3F834
:10261000802145F60E01D207C3F8801148BF002281
:102620004FF42071196648BFC3F88021184A136916
:1026300043F004031361174B174AC3F8242416F020
:1026400047FA2368DB0611D516F032F91DF0A4F81D
:1026500016F032F903F0B2FD55B1FFF7DFFED4F802
:102660004C3123F00043C4F84C3138BD30BFF1E7A2
:10267000FFF7BEFED4F84C3123F00043C4F84C31D0
:10268000BDE83840FEF7FCB800400E4000300E4078
:1026900000ED00E000A000400000FFFF0E4A0379BB
:1026A000916921F03F010B43017843EA81034178AE
:1026B00043EA4103817843EAC103C178012908BF95
:1026C00043F0010393611368417923F4403343EAF3
:1026D00001431360704700BF00300E402DE9F04108
:1026E00004460F46FFF71CFEC8B3DFF88480FFF7EF
:1026F0005BFED8F80430C3F301439C422FD0194B42
:10270000D3F80061FEF792F8022C054617D1164B5C
:10271000C6F3042606FB00069E4204D9134840F285
:10272000AD7116F08BF802212846FFF71DF8104B0B
:1027300010221A619FB1BDE8F041FFF735BEC4F128
:10274000020210239340C8F810300FB1FFF72CFE9F
:102750002CB921462846BDE8F041FFF705B8BDE891
:10276000F08100BF00400E40002D310157FF0100F5
:1027700000300E4038B505460C46FFF7D1FDB8B124
:1027800045B90C4BD3F80051FEF750F8C5F30425BA
:1027900005FB0005084B1B7821463BB1074B9D42CA
:1027A00004D80220BDE83840FFF798BF0020F9E7C1
:1027B00038BD00BF00400E4004230020002D310131
:1027C000034B02781A7001210020FFF7D3BF00BF2E
:1027D0000423002010B5174B4AF6E852596B5A6390
:1027E0009A6FD407FCD41B6C13F0030306D0124A73
:1027F00001249842C2F8B44A05D110BD18B90E4B55
:10280000C3F8B40AF9E70B4B9A6FD207FCD41A6CE1
:1028100022F0030202431A649A6F12F00102FBD104
:102820000038054C18BF01200129C4F8B40A08BFBC
:102830005A63E2E700300E400000C6432DE9F04F36
:102840008BB00023CDE90433CDE90633CDE908335D
:10285000A0F5E163B3F5966F05460191934608D95B
:102860004FF441616E4815F0E9FF00200BB0BDE860
:10287000F08F6C4BDFF8B081D3F81842B0F5E16F00
:1028800015BF4FEA146AC4F3072AC4F30744E4B23D
:102890000694CDF824A0D8F84C60C6F301768CBF1E
:1028A00001220022334607A904A815BF4FF4E167AF
:1028B0004FF496674FF496694FF416790392FFF739
:1028C00039FDD8F8E030039AC3F3012308A905A81D
:1028D0000293FFF72FFDA5EB070CAAEB04020CFBFC
:1028E00002F2B2FBF9F214445445079F0498089A87
:1028F00005991ED8A2EB010E0CFB0EFEBEFBF9FEE5
:1029000011EB0E012CBF4FF0010E4FF0000E8A426A
:102910000FD3BEF1000F0CD13A1A0CFB02F2B2FB3E
:10292000F9F280182CBF01220022874201D3029BBA
:1029300012B140F65E4195E7BBF1000F0FD0D8F819
:102940005C20B5F5E16722F4FE4218BF012722F0B2
:10295000020242EA470242EA0422C8F85C20019AD5
:102960000AB9012082E72F4A022ED2F8302212D073
:10297000032E13D0012E14BFD2B2C2F307221203CA
:1029800012F4702F0CD040F61621254815F056FF92
:1029900040F66D4166E7C2F30742F0E7120EEEE73C
:1029A000214EF46E24F470442243F2661D4A022B39
:1029B000D2F8302212D0032B13D0012B14BFD2B285
:1029C000C2F30722120312F4702F0CD040F622211A
:1029D000134815F033FF40F6754143E7C2F3074251
:1029E000F0E7120EEEE7104CD4F8E03023F4704319
:1029F0001343C4F8E030636E884238BF084623F4BE
:102A0000FF73E72823F0010328BFE720B5F5E16F46
:102A100018BF43F0010343EA40036366A1E700BF28
:102A200057FF01000081E00F00300E4008B5324A28
:102A3000136FD16C11F0010F03F0060342D0002B8D
:102A400040D0132855D9143813288CBF10230823DD
:102A50002949013BCA6C180322F47F4240EA032350
:102A60001343CB64254BCA6C1B88C2F30322283363
:102A7000013202EB820003EB5303B3FBF0F3C86CAB
:102A8000013B072B28BF072320F0EE6040EA0363D9
:102A900043F48013CB641A4BB3F90030002B10DBE6
:102AA0002833500800EB420203EB5303B3FBF2F36D
:102AB0000A6D072B28BF072322F0700242EA031396
:102AC0000B6508BDD16C01F00101194304D109283F
:102AD0000FD90A380928B8E7D26CD20702D50BB94A
:102AE0002728B2E7074840F6B34115F0A7FE0023B8
:102AF000AEE70423ACE700BF00300E40A022002068
:102B00009C22002057FF010010B50C4BD3F88039F0
:102B1000044633B9012804D9094840F6D14115F0DB
:102B20008DFE084A136F23F0070323431367064BF8
:102B3000BDE810401888FFF779BF00BF0000C6430A
:102B400057FF010000300E409E22002038B5038957
:102B5000C82B044604D9514840F6B52115F06EFE45
:102B6000A28823899A4204D94C4840F6B62115F030
:102B700065FEB4F90C30C82B04DD484840F6B72197
:102B800015F05CFE6378012B55D1A388C82B04D9BE
:102B900040F6BB21414815F051FEE28842F2107325
:102BA0009A4204D93D4840F6C82115F047FEE28814
:102BB0004A2A48D9B2F5FA7F47D340F6C3139A425E
:102BC0008CBF4FF040524FF000523549B4F90C0021
:102BD000CB6C23F0405323F001030028A8BF43F03F
:102BE00001031343CB64D1F8E030A28843F440736F
:102BF000C1F8E0302B4B1A80CB6E43F08073CB666C
:102C0000294BD3F8800900B10420FFF77DFF274B43
:102C100021891980264BB4F90C20A0881A80FFF76F
:102C200005FFA37BA3B1012B23D01C4840F6C7119D
:102C300015F004FE0FE0022BAFD1A3880A2BACD90C
:102C40004FF42C61A6E70022BFE74FF08052BCE7AB
:102C5000134B184A9A65012260881146FFF7EEFD72
:102C6000054648B90D4840F6FF2115F0E7FD284616
:102C700038BD0B4B104AEDE7094AD36B43F4806330
:102C8000D3636078FFF7A6FDA37AA3F12002534235
:102C90005341054AC2F89437E9E700BF57FF0100E6
:102CA00000300E409E2200200000C643A0220020DB
:102CB0009C22002077402057372110B770B51F297C
:102CC00005460C46164603D90648912115F0B6FD77
:102CD00005F1424000F5801004EBC004A40026601A
:102CE00070BD00BF9FFF010038B5052804460D46A2
:102CF00005D80B4B33F81030CB40DB0704D4094820
:102D000040F22D4115F09AFD30230C2113FB0413E2
:102D100003F18C43012203F52043AA401A6038BD19
:102D2000320002005EFD010038B5052804460D465C
:102D300005D80B4B33F81030CB40DB0704D40948DF
:102D400040F2FE3115F07AFD30230C2113FB041301
:102D500003F18843012203F52043AA401A6038BDDD
:102D6000320002005EFD010010B51F28044603D9A1
:102D70000648522115F062FD054AD2F8443423F08A
:102D800003032343C2F8443410BD00BFE8FF010031
:102D900000A0004038B5032804460D4601D9052897
:102DA00002D135F0011303D008487D2115F046FD0E
:102DB00004EB4404200100F180402A464FF0011149
:102DC000BDE8384000F5204015F089BEE8FF01005D
:102DD0002DE9F04705289DF820909DF824800646AF
:102DE0008A4614461F4605D8254B33F81030CB4091
:102DF000DB0703D42348BF2115F020FD8AEA040332
:102E0000032B03D91F48C12115F018FD072C0AF028
:102E1000030A4FF00F0123D8A5001B4806FA05F25C
:102E2000A94015F05CFE032118480AFA05F2A940F2
:102E300015F055FE3A4621461548FFF73FFF4A4632
:102E400021461448FFF73AFF134A14480123A340D0
:102E5000C2F8243421464246BDE8F047FFF72EBFB2
:102E6000A4F10805AD000E4806FA05F2A94015F0D8
:102E700036FE03210B480AFA05F2A940D8E700BF45
:102E800032000200E8FF010000A4004008A4004056
:102E900010A4004014A4004000A0004028A400405A
:102EA00004A400400CA40040F8B5052804460D46D3
:102EB00016461F4605D81C4B33F81030CB40DB07B5
:102EC00004D41A484FF4B07115F0B8FC26B1294665
:102ED0002046CFB1FFF708FF04EB4403072D4FEA6C
:102EE00003134FF00F0112D8A80006FA00F2814038
:102EF0000F48184415F0F3FDAEB92946204677B1C6
:102F0000BDE8F840FFF7F0BEFFF70EFFE4E7A5F1DC
:102F10000800800006FA00F281400648E9E7BDE8B3
:102F2000F840FFF701BFF8BD32000200E8FF0100E2
:102F300004A0004008A00040F8B506460F4615461C
:102F4000002A6AD003F00304036823F4407303608B
:102F500015F0AEFC326882EA042303F44073534058
:102F6000336015F0A9FC37B92D4B9E420DD12D4889
:102F7000FEF798FD074633689A0717D5012C1BD03A
:102F8000022C27D064B9284B17E0284B9E4201D170
:102F90002748EDE7274840F22F1115F04FFC336822
:102FA00024484FF4B27115F049FC08E0012C13D00D
:102FB000022CE7D1204B00E0204B9F42F0D9204B60
:102FC0001B5D6B430AD140F27511BDE8F84019480A
:102FD00015F034BC1B4BF0E71B4BEEE7A3EBC5042D
:102FE000013C3C44B4FBF3F4013C0CD5114840F2E5
:102FF0007B1115F023FC0F484FF4BE7115F01EFC39
:1030000033683461F8BDB4F5007FF4D233689B07B0
:10301000F7D5002C08BF0124F3E740F21511D4E7DF
:1030200000C000400062040080841E0000C4004014
:10303000007204003E000200002D3101404B4C00A4
:1030400086000200809FD5004054890038B50A4BA5
:10305000984204460D4608D003F58063984204D098
:10306000064840F2951115F0E9FB04F1424404F5DD
:1030700080146401256038BD00C000403E0002009D
:1030800038B5124B984204460D4608D003F58063CC
:10309000984204D00E484FF4D57115F0CFFB0023B1
:1030A00023640C4BE3636A78630103F1844382F089
:1030B00001025A60D5E9011220462B7BFFF73CFF45
:1030C00029782046BDE83840FFF7C0BF00C0004067
:1030D0003E000200FFFF070070B57C4B98420BD00A
:1030E00003F5806398421DD0794840F2012115F024
:1030F000A5FB6FF0030070BD764B9968426B12F42C
:10310000C06F15D091050FD5FD225A7009221A7093
:103110000022026493F90110012900D15A7093F939
:103120000100E8E76C4BE8E75605EFD5FE22ECE737
:103130001C78082C00F2C680DFE814F009001F009C
:1031400041004D006A00760094009D00BD004C884F
:103150000A88E5060AD5120A02F0060242F0F002D9
:1031600001211970C26241600120C4E702F0FE0231
:10317000A10748BF42F00102F2E7160606D58022F9
:10318000C2634FF608721A80022316E05506EBD58B
:103190004022C2634A88D40604D502221A700B78F2
:1031A000C362E1E7960764D507221A701B7901EB29
:1031B000C3031B89012BD7D108234360D4E715062D
:1031C000DDD45406D0D54022C2634A88920750D538
:1031D00003221A7092E74C880A88E60643BF120A57
:1031E00002F0060242F0F00202F0FE02650709D585
:1031F0001C7901EBC40142F001020989012904BFD5
:10320000082141600421197001234360C262ABE7C9
:103210001406B4D45206A7D54022C2634A88560782
:1032200027D507221A709FE71A795D8801EBC2043F
:103230002689AE420FD80132D2B200241A715C80C6
:103240004C886507C4D4E40702D4012A7FF656AF40
:1032500008221A7098E76268691C5980525DC26240
:103260000622DFE716068AD455067FF57DAF402299
:10327000C2630522ADE794067FF576AF1A795C88C4
:10328000C56901EBC2010A89A24281BF4968661C77
:103290005E800D5559888A42DAD90424012A446097
:1032A00004D0013A914201D1082242601A78092AD9
:1032B0003FF42EAF58E7D2057FF556AF4FF480723A
:1032C000C26323E74FF609321A8021E700C00040AD
:1032D0003E000200F417002000180020084B4FF4B5
:1032E0000072C3F88020BFF34F8FBFF36F8F054B81
:1032F0000021D9664FF4AA401962FEF745BA00BF13
:1033000000E100E000200E4038B5072805460C46D5
:1033100003DD0848772115F091FA1F2D84F0010490
:1033200003D90548912115F089FA044B2B449B00E1
:103330001C6038BD8A0002009FFF0100A001F1104F
:1033400010B5044618B91C48912115F077FA237876
:103350001B0613F0784F03D01748922115F06EFA30
:10336000E378072B03D91448A32115F067FA01214C
:103370004FF4AA40FEF708FAB4F8013022785BBA9D
:103380009BB243EA02630D4A136000231362D362C7
:1033900053634FF00043D3664FF0FF339366084A00
:1033A0004FF40071C2F88011E3785B01DBB282F860
:1033B0000933116010BD00BF8A00020000200E40DA
:1033C00000E100E02DE9F041C3B2012607280546DF
:1033D0000C46904606FA03F603DD3A48EC2115F058
:1033E0002DFA1CB93748ED2115F028FA236823F48B
:1033F0007C1323F00F031BB13248F22115F01EFAA3
:10340000A37A1B0413F47C0F04D02E4840F2091158
:1034100015F014FAE37A1B0513F07E6F04D02948E7
:1034200040F20B1115F00AFA237B5B0513F0FE5FE7
:1034300004D0244840F20D1115F000FA224F30223A
:10344000BE6602FB05702368C0F88030637BC0F85D
:103450008830E37AA27A1B0543EA0243227B43EADF
:103460004253C0F8843028F00303C0F8983015F0B8
:1034700026FAFB6E3343FB66237A13B17B6B33432F
:103480007B63637A13B1FB6A3343FB6223793A6847
:1034900023B1DB431B0263F47F431A4063790BB112
:1034A00042EA0322A3790BB122EA0302E379134330
:1034B000054A1360054B9E62D663BDE8F04115F0E6
:1034C00004BA00BF8A00020000200E4000200E4413
:1034D00010B5C3B20124072804FA03F404DD094837
:1034E00040F2971115F0AAF915F0E9F9064AD36EE2
:1034F00023EA0403D366054B1C62BDE8104015F0B7
:10350000E4B900BF8A00020000200E4000200E44F3
:1035100010B5C3B20124072804FA03F404DD0B48F4
:1035200040F2B51115F08AF915F0C9F9084B1A6A7D
:10353000224208D19B6A9C430CBF0124002415F051
:10354000C4F9204610BD0024F9E700BF8A0002003C
:1035500000200E4070B5114B984205460C461646A9
:1035600011D1012905D9BDE870400D48D92115F0C8
:1035700065B9B2F5803F03D30948D92115F05EF94A
:1035800054B92E6107E00648D92115F057F9002CEF
:10359000F7D0012C00D070BD6E61FCE700600440E4
:1035A000D300020038B5094B984204460D4604D0BA
:1035B000074840F2091115F041F9636B9B07FCD4F1
:1035C00015B10123636038BD0223FBE700600440AE
:1035D000D300020038B5204B984205460C4604D073
:1035E0001E484FF4B37115F029F9217839B9AB6849
:1035F000DB0704D56B6B9807FCD402236B60637800
:10360000A078E2681B0320B93AB143F400732A6141
:1036100003E043F40073002AF9D1E2780AB143F4DD
:10362000807322790AB143F0400362790AB143F012
:103630008003E279A079120142EA8002207A0243F3
:1036400013432B6039B1AB68DA0704D46B6B9B076B
:10365000FCD401236B6038BD00600440D30002003D
:1036600010B50D4C63685B0304D50C4840F21F3164
:1036700015F0E4F8636813F4403F04D007484FF4B2
:10368000487115F0DBF8064B41F671321A649A68FE
:1036900022F001029A6010BD00300E401F010200AE
:1036A00000000E40034B9A6822F001029A6000224B
:1036B0001A64704700000E40094A0A4BD969C907CD
:1036C00005D512B96FF002007047013AF6E7002AFB
:1036D000F8D001221861DA60D86940F380007047A1
:1036E0008096980000000E4070B505460C4609B95A
:1036F000002070BD134B1A68134B9A4204D813482C
:1037000040F2134115F09AF8114A0023082055F8A9
:10371000231091610F49D0600133D669F60705D5B2
:1037200011B96FF00200E4E70139F6E70029F8D09B
:10373000D169890702D56FF00100DAE79C42E6D132
:10374000D6E700BF481000203F420F001F010200D3
:1037500000000E40809698002DE9F8432F4B1F6C17
:10376000154610F0030F41F6713280460E46BFB287
:103770001A6404D02A484FF48C6115F05FF8AA0748
:1037800004D0274840F2634115F058F8254C63688F
:103790005B0304D5224840F2674115F04FF8636897
:1037A00013F4403F04D01E484FF48D6115F046F8E5
:1037B0001A4A9368AD0843F0010393602BD118486F
:1037C0004FF48E6115F03AF800201AE0C4F30A04B1
:1037D000C4F50064A408A5EB09039C4228BF1C465D
:1037E00021463046FFF780FF58B9A14406EB840616
:1037F000A945E9D208EB89042046FFF75DFF0028C0
:10380000E4D0064B9A6822F001029A600FB10022C0
:103810001A64BDE8F8834FF00009E9E700000E40A4
:103820001F01020000300E4070B5304B41F671327E
:103830001C6C1A64C0F30A030546A4B223B12C48D9
:1038400040F2D64114F0FAFF2A4E73685B0304D5A8
:10385000274840F2D94114F0F1FF736813F4403F58
:1038600004D0234840F2DA4114F0E8FF1F4B9A6875
:1038700042F001029A6001221D61DA60DA695007A4
:1038800009D59A6822F001029A600CB100221A64EC
:103890004FF0FF3070BD0222DA60174AD969C907BC
:1038A00000D56AB9D96911F002010BD09A6822F0EB
:1038B00001029A600CB100221A646FF00100E9E77E
:1038C000013AEBE742B9996821F00101996004B12E
:1038D0001A646FF00200DDE79A6822F001029A6034
:1038E0000CB90020D6E71964FBE700BF00000E40CA
:1038F0001F01020000300E408096980038B5022863
:1039000004460D4603D911484C2114F097FF6B79FA
:103910001F2B03D90D484F2114F090FFAB786A7824
:103920009B0143EA82032A781343EA7843EA0213AD
:103930002A7943EAC2236A7943EA0233AA79043432
:1039400043EA42432401024A135138BD6701020091
:1039500000200440014B1860704700BF0000844203
:10396000437882789B0043EA021302781343C278BB
:1039700043EA4213027943EA0223427943EA0233DB
:10398000827943EAC233C27943EA0243027A43EAC4
:103990004243014A136070470020044010B50446BA
:1039A00018B91048572114F049FF0F4AD2F8E430F3
:1039B000D2F8E0109B0003F03C03C1F381110B43EC
:1039C000A370D2F8E03003F03F036370D2F8E83020
:1039D000D2F8EC2003F0F003C2F303121343237078
:1039E00010BD00BFB001020000FF0FE0024BD3F892
:1039F000F000D3F8F41070470081E00F024BD3F8C9
:103A0000F80080B2704700BF0081E00FF8B50746AC
:103A10000C461D4616464AB932484FF4A17114F0BF
:103A20000DFF24B1402D08D1062327E019B92E48F7
:103A3000FEF738F80446402D42D0402D09D87DB11C
:103A4000202D17D0BDE8F840264840F2891114F027
:103A5000F5BE602DF6D1B6EB940F3CD804230DE0F3
:103A6000B6EB141F04D91F484FF4BA7114F0E6FEE8
:103A7000102303E0B6EBD40F1CD808235E43730871
:103A800003EB4413B3FBF6F3184E203BB6EBC30F26
:103A90004FEAC30404D213484FF4D07114F0CEFEA1
:103AA0003B6823F060033B603B6834401D433D604E
:103AB0007C61F8BD0B4840F2791114F0BFFEDCE7E1
:103AC0000623B4FBF3F3B342AED206484FF4BF7102
:103AD00014F0B4FEA8E7034840F2831114F0AEFEE0
:103AE000BCE700BFFB01020040410500F8FF7F007A
:103AF00070B506460C46154622B90D4840F28E2197
:103B000014F09CFE1CB90B48FDF7CCFF04460A4B91
:103B10006D00013CB4FBF5F413EA04234FEA0425DD
:103B200004D0034840F2B32114F088FE756170BDE3
:103B3000FB01020040410500070080FF38B50C4B37
:103B4000984204460D460CD003F58063984208D095
:103B500003F58063984204D006484FF4337114F0A3
:103B60006DFEEB435B0003F00A03E360E56038BDE4
:103B700000000140FB01020010B51A4B98420446B8
:103B80000CD003F58063984208D003F58063984217
:103B900004D0154840F2424114F050FE40F6AA63AA
:103BA000E36041F205020023236062600F4AA360D4
:103BB0006361E364A2640B4A236694426367A3676C
:103BC000E3670DD002F58062944205D002F5806271
:103BD000944205D0A36502E02365A365E36510BDAB
:103BE0002365F7E700000140FB010200F9FF010037
:103BF00038B5274B984204460D460CD003F5806338
:103C0000984208D003F58063984204D0214840F2DE
:103C1000FD2114F013FE2046FFF7AEFFAB7C1BB175
:103C2000236843F080432360EB7C1BB12B7D43F082
:103C30008003A3652A8A6B7B1343EA89134363607D
:103C40002B7BD5E901122046FFF7E0FE6B7D1BB10F
:103C5000236843F480332360AB7D1BB1236843F4B6
:103C600000432360EB7D2A7E1B07120502F4E0026D
:103C700003F0E04313432366636F23F0300363676D
:103C8000626F6B7E134363672B78E36038BD00BFC0
:103C900000000140FB01020038B5274B9842044662
:103CA0000D460CD003F58063984208D003F580637D
:103CB000984204D0214840F2693114F0BFFD2046FB
:103CC000FFF75AFF2B8A226843F001031343AA7BB4
:103CD00043EA8223236023682A7D43EA42732360F8
:103CE000AB7C1BB1EB7C43F08003A3652B7B43F4DF
:103CF00080536360D5E901122046FFF7F9FE6B7B24
:103D00000BB11023E3606B7D1BB1236843F4803358
:103D10002360AB7D1BB1236843F400432360EB7D3C
:103D20002A7E1B07120503F0E04302F4E00213436E
:103D300023662B78E36038BD00000140FB010200E0
:103D400038B5044619F092FD0FCC044D0FC594E828
:103D50000F0085E80F00002038BD00BF0C180020C0
:103D6000F0B547F6FF739A4272D0062972D83A4BE3
:103D70005B5C022B6ED8394D05EBC304DF00A178E4
:103D800015F83330012938BF0121012B13D1E07818
:103D90000025401AA84202D80844C0B2F0BD431B17
:103DA000A0EB5303666836F913609642CCBF03F16B
:103DB000FF301D46EEE760680028EFD0B0F9004004
:103DC000944204DBB0F902409442B8BF14468388A1
:103DD000FF2B04BFB0F90620B0F908C03D440FBF67
:103DE00001260026C8224FF0280C131B93FBFCF37E
:103DF00033446E781BB29E4201DD002B01DA731E44
:103E00001BB201339BB24FF47A7C071D5D1E2DB2AD
:103E10004FEAC50E00EBC5059E42EA88AD6814FB6B
:103E2000025222EAE27202F15C02B2FBFCF205DD10
:103E300037F83350954203F10103E7D200EB0E034C
:103E40009888904228BF1046884238BF0846A4E7A9
:103E5000FF20A3E70020A1E7450202000C18002084
:103E6000F0B5062961D8324B595C02295DD8314B37
:103E700013F83100012816D103EBC1039C78D878E0
:103E80005B68012C214638BF0121904294BFC1EBF1
:103E90000001C1EB0201CAB2001B8242C8BF00226E
:103EA00033F91200F0BD002A3DD003EBC10359687D
:103EB00000293AD09878904202D3B1F90200F1E794
:103EC000DC78B1F900009442ECD95C788B88A3F1DE
:103ED000FF06013C734201F10405E4B2734101F1B4
:103EE0000C07DEB2B44216D805EBC3034FF47A7563
:103EF000B3F902405B686A43D21A04EBD47302EB55
:103F0000630292FBF4F29042CCDBB1F902009042E2
:103F1000C8DC10B2C6E737F833C0944503F1010698
:103F2000E2D33346DDE70448BCE70448BAE700BF04
:103F3000450202000C1800200CFEFFFF0080FFFF6E
:103F400008B50448FFF7FCFEBDE80840012019F061
:103F500091BC00BF4C02020000487047BC12002018
:103F600010B503294FF000030A4A036004460263B8
:103F700043630ED10521FEF79BF9636823F4407378
:103F800043F400736360636823F4406343F40063A5
:103F9000636010BD200010002DE9F04F8BB0044687
:103FA000894692461946202201A800251E461AF08D
:103FB00054FA099514F07CFC5146804604F5827051
:103FC00014F0F7FC494604F5847014F0F2FC314615
:103FD00004F5867014F0EDFC404614F06DFCDFF83B
:103FE000BC815D4BDFF8B891DFF8B8A12365DFF83D
:103FF000B8B114F05DFCC4F850B0676914F05CFC13
:10400000FA0119D5554B236514F052FCC4F850B091
:10401000656914F051FCEB0140F1868014F048FC16
:104020001499054604F5887014F0CBFC284614F06A
:1040300043FC0BB0BDE8F08FFB051CD4484B236557
:10404000013D9023A360636913F4807F454B236592
:104050000ED014F02DFC3146834604F5807014F028
:10406000A8FC584614F028FC3F4B23653F4B636582
:104070008823A360BBE7002D13DA3D4BC4F850A0A2
:10408000636514F015FC01A9834604F5807014F0F3
:1040900098FC63695846C3F30343099314F00CFC7E
:1040A0006D42344B23656369334F13F4407F4FF007
:1040B0008803A3604FF001016269C4F85080616514
:1040C000636927650ABF01204FF0FF3005F1FF3516
:1040D0008842C3F30723C2F300220BD132B1DF07BA
:1040E00004D5264B2365264B6365AAE7254B23653C
:1040F000254BF9E79AB9D80711D5244B2365244BF2
:104100006365A16501A904F5807014F052FC099B58
:1041100003F00F03C4F848318323A36091E71D4BDC
:10412000C4F850906365EDE714F0C2FB04F58078A5
:1041300031460546404614F03CFC284614F0BCFBD2
:10414000154B236514F0B4FB14990446404614F053
:1041500038FC20466BE700BF3084880198390100A5
:10416000C93E8101D23E8201C024D03409820100BF
:1041700099830100D9080100DB3E0100C8340981A0
:10418000E20C8201C80881E20C82010083D934115B
:1041900081E21482E2148201E0100100C93E81989C
:1041A00083D9108190A28488353938012DE9F04FE8
:1041B00089B081460D4616460021202268461F46DA
:1041C0001AF0F8F94FF00A0A99F80030022B40D0A3
:1041D000032B07D0012B47D06FF0710B584609B065
:1041E000BDE8F08F202269463846B0478346BBF1D0
:1041F000000FF3D100F082FB99F800100446FFF79E
:10420000AFFE14F055FB6946804604F5827014F049
:10421000D0FB404614F050FB394B2365204614F088
:1042200045FD14F045FB04F5807883466946404619
:1042300014F0C7FB584614F03FFB009B012B1CD821
:10424000204600F065FBBAF1010ABDD1DFF8C4B029
:10425000C4E71C2269463846B04704228346002141
:1042600007A81AF0A7F9C2E7182269463846B047EE
:1042700008228346002106A8F3E714F019FB05F194
:1042800008070646294604F5847014F013FD05F16D
:104290001009394604F5867014F00CFD494604F502
:1042A000887014F007FD304614F006FB154B2365AB
:1042B000204614F0FBFC4946404614F035FD834689
:1042C000C8B9114B2365114B6365204614F0EEFC11
:1042D0002946404614F028FD834660B90C4B2365FF
:1042E0004FF48E736365204614F0E0FC3946404677
:1042F00014F01AFD8346204600F00AFB6EE700BF6B
:1043000030C80C0181E11C018CE11C81D11C010031
:10431000E11C81D900B3FFFF2DE9F84306461046A2
:104320000F4690461D4616F0AAF928B12946384690
:10433000BDE8F84316F08DB92B69002B40F0AD8035
:1043400000F0DCFA31780446FFF70AFE14F0B0FA08
:1043500004F5807608F110018146304614F0AAFC7D
:10436000484614F0A9FA574B236540F28113636560
:10437000204614F09BFC14F09BFA294681463046F7
:1043800014F098FC484614F097FA4F4B236501232C
:104390002046636514F08AFC4C4B236514F086FCC0
:1043A00014F086FA05F108018146304614F082FCCB
:1043B000484614F081FA464B2365204614F076FCFB
:1043C00014F076FA08F108094946054604F58270AA
:1043D00014F070FC284614F06FFA3E4B236520461B
:1043E00014F064FC14F064FA41460546304614F0BB
:1043F00061FC284614F060FA374B2365374B636540
:10440000204614F053FC07F11001304614F08CFCE8
:10441000054600283BD1324B2365204614F046FC6C
:10442000304B236514F042FC2F4B236514F03EFC07
:104430002E4B23654FF48A73636514F037FC2C4BC5
:10444000236514F033FC3946304614F06DFC054604
:10445000E8B9284B2365284B6365204614F026FCF9
:1044600014F026FA49460546304614F023FC284647
:1044700014F022FA214B2365214B6365204614F08A
:1044800015FC07F10801304614F04EFC05462046A5
:1044900000F03EFA2846BDE8F883284616F0EFF80B
:1044A00008B1414643E72B69002B3FF449AF012196
:1044B00005F1100015F0BFF900283FF441AF114D90
:1044C000E8E700BF8184E11C83D91C83E11C8101E2
:1044D00082D11C01C81482019983D91481E11C0185
:1044E0008CE11C01811C8401D91C830191D11CE049
:1044F000D814140181CB1481D11C820181E11C8468
:10450000E214010080B0FFFF2DE9F04788B090462B
:1045100005460F4600F0F2F92978DFF85491044679
:10452000FFF71EFD14F0C4F904F5807608F11001C0
:104530000546304614F0BEFB284614F0BDF940F2A3
:104540008313C4F850902046636514F0AFFB14F059
:10455000AFF908F108010546304614F0ABFB2846D8
:1045600014F0AAF94FF0010A354B23652046C4F830
:1045700054A014F09BFB07F11001304614F0D4FB5B
:104580000546002854D12F4B23654FF4867363658D
:10459000204614F08BFB14F08BF94146054604F5D8
:1045A000887014F087FB6946304614F00AFA2846F2
:1045B00014F082F9244B2365244B6365244BA365D7
:1045C000204614F073FB234B2365234B636514F0E3
:1045D0006DFB224B2365224B6365C4F858A014F091
:1045E00065FB3946304614F09FFB054600BB1D4B6A
:1045F00023651D4B6365204614F058FB14F058F9F1
:1046000069460546304614F0D4F9284614F054F9AA
:10461000164BC4F8509063654FF48A73A365204627
:1046200014F044FB07F10801304614F07DFB054609
:10463000204600F06DF9284608B0BDE8F08700BFBD
:10464000821CC00C91D11CC0C00C81E11C82DC0C0E
:1046500081148401E11C81C80C0C8101D20C848B73
:10466000D91CE01484E21482D11C8301C00C82D3D3
:104670008182D11C2DE9F047A2B00E46054600F01C
:104680003DF915F8041B044606F11007FFF768FC16
:104690001C22002103A819F08DFF4FF001083946B4
:1046A0000AA80DF16809CDF8088014F08AFB2946A4
:1046B00012A814F086FB12AB0AAA02A9CDF800904A
:1046C0002046FFF769FC14F0F3F84946054604F567
:1046D000867904F5827014F06CF906F1080A314607
:1046E000484614F0E7FA514604F5887014F0E2FAEF
:1046F000284614F0E1F8134B2365204614F0D6FA4F
:10470000114B236514F0D2FA104B236514F0CEFA46
:104710000F4B236514F0CAFA514604F5807014F06B
:1047200003FB58B93146484614F0FEFA30B920462A
:1047300000F0EEF84146384614F094FF22B0BDE890
:10474000F08700BF8AD11C0181D91C0183D11C01D3
:1047500081E11C0110F1860F06D038B19330044876
:1047600008BF6FF06F0070476FF07100704700BFB7
:10477000009FFFFF70B58CB004460D461646002121
:1047800022220DF10E0019F015FF4FF41053ADF871
:104790000C302CB323681BB315B39B79022B1AD0B2
:1047A000042B20D14FF48073206CADF80E304C21D7
:1047B00098B9012014F0B2FEC0B120640C4B0093F4
:1047C000206CF3082A4603A900F03CFC0CB0BDE8BD
:1047D0007040FFF7BFBF8023E6E703F025F8EDE761
:1047E00004480CB070BD6FF07100FAE70248F8E7BA
:1047F0000002C003009FFFFF809EFFFF10B550B175
:10480000046844B139B1006C28B100F059FCBDE82E
:104810001040FFF79FBF014810BD00BF009FFFFF82
:1048200007B578B102686AB1006C58B151B1002384
:104830000193102201AB00F0ADFC03B05DF804EB76
:10484000FFF788BF014803B05DF804FB009FFFFF3E
:104850002DE9F04190B0DDE916870D4614461E465D
:1048600080B379B373B36FB38379022B06D0042B73
:1048700025D06FF0710010B0BDE8F081802A21D101
:10488000202200210DEB0200069119F093FE4FF457
:104890001053ADF81C3006AB04931023CDE902731E
:1048A000CDE90068084BADF81E40E208294607A88C
:1048B00000F076FB10B0BDE8F041FFF74BBFB2F55A
:1048C000807FDCE70148D6E70002C003009FFFFFBE
:1048D00008B501290BDC074B074A00290CBF11461C
:1048E000194600F0BDF9BDE8084014F08CBA6FF02D
:1048F000730008BD0800000209000002024B0348D3
:104900000122C3F8002670470010C84300000F4082
:1049100010B50D4B984214D003F5806398420FD127
:1049200001220A4B03EBC2035C681F2C03D9084821
:10493000912113F083FF074B23449B0000221A6050
:1049400010BD0022EDE700BF00000F40040302008D
:104950009FFF01008005F210024B03480122C3F8BB
:10496000002670470010C84300000F40044B9842D7
:1049700003D003F58063984201D1FFF7C9BF7047A8
:1049800000000F4070B5114C114E0A25236843F406
:10499000807223F48073226030462360FDF782F832
:1049A0000023800A62680AB983420AD1636853B956
:1049B000013DEBD1236823F0010323606FF09200E7
:1049C00070BD0133EEE70020FAE700BF00D00140E0
:1049D000700002002DE9F04F85B0CDE90012684A61
:1049E000684DD2F8C03043F40043C2F8C0302B68A1
:1049F0008146D80719D50024DDF800B0614E4F4636
:104A0000A0464FF00A0ABBF1000F2DD14CB114F1B2
:104A1000940F06D05A460021484619F0CBFD4FF0BE
:104A20000008019BC3F800801AE040F271632B601C
:104A3000FFF7A8FF044698B96B68032BFCD9D5F89B
:104A400000312B61D5F800316B61D5F80031AB61D5
:104A5000D5F80031EB61FFF795FF04460028CAD076
:104A6000204605B0BDE8F08F7468A40005D0356B12
:104A700015F45C7F12D1002436E04348FDF712F8AC
:104A8000C00A844205D17368002BF0D16FF0930403
:104A9000C7E77368002BF6D10134F2E7E90515D5B5
:104AA00025F48075356373685BB9BAF10108EDD000
:104AB000DDF800B04F466FF093040023C2469846DD
:104AC000A1E7D6F800310393039BECE7FFF75AFF09
:104AD000044618B915F41C7FCDD0E6E710F1930F0A
:104AE00098D010F1940FE0D075687368AD005D4503
:104AF00028BF5D46B5EB830F04D9244840F221114D
:104B000013F09CFEBA073B4636D125F003011D4841
:104B10003944994213D105F0030149B11948D0F83D
:104B20000001194403F8010B8B424FEA1020F9D120
:104B300008EB05032F44ABEB050BD046BEE7D0F8DE
:104B4000002143F8042BE4E7D2F8001103F8041C19
:104B50004FEA112E03F803EC4FEA114E090E03F849
:104B600002EC03F8011C0438032803F10403EBD81A
:104B700025F003033B44CEE7024A2846F4E700BF92
:104B800000400E4000D001407000020014030200FB
:104B90002DE9F04788B00746884615461E46FFF7C0
:104BA000ADFE044607F17E400838012850D80423A2
:104BB000236000236360E364626822F44062626001
:104BC0006A46236391466363A8F1040308F11C0855
:104BD00053F8041F09BA434542F8041BF8D113F0F7
:104BE00067FE4946074604F5827013F0E2FE384638
:104BF00013F062FE184B2365109BDFF8609005EB05
:104C0000831704F5D27A13F053FE294680465046A6
:104C100013F0DFFE4035404613F04EFEBD42C4F8AF
:104C20005090F0D113F044FE3146054604F58070F3
:104C300013F0C7FE284613F03FFE2046FFF768FE3C
:104C4000331F1C3653F8042F12BAB3421A60F9D13D
:104C500008B0BDE8F08700BF888AC801070D810150
:104C600038B50D460446D0B16C22002119F0A2FCE3
:104C70000C4B9D4205D001339D420DD06FF0850055
:104C800038BD0949202204F10C0019F0E6FB002090
:104C9000C4E901002560F3E704492022F3E76FF03F
:104CA0008600EDE708000002EA030200CA030200E2
:104CB0002DE9F3410E461F46054600285FD083B913
:104CC000002A5CD12B68324A93425ED00132934273
:104CD0000CBF6FF089046FF08804204602B0BDE875
:104CE000F0810029ECD0036829498B4244D001317E
:104CF0008B4247D14FF02008904546D86A68D300D0
:104D00008DF8073053098DF80630530B8DF80530B8
:104D1000530D8DF80430AB68D90001EB52718DF85A
:104D2000031002F03F025909372A8DF802104FEAAA
:104D300053318DF801104FEA535316498DF8003066
:104D400094BFC2F13802C2F17802284614F002F989
:104D500004460028C1D108226946284614F0FAF812
:104D600004460028B9D1C7F80080424605F10C017D
:104D7000304619F072FBB0E74FF01C08BCE76FF04B
:104D80008604AAE76FF08804A7E76FF08904A4E718
:104D9000080000028A0302002DE9F04F91B01E4680
:104DA0009DF87430BDF870800290914603930D46D3
:104DB000002900F0BB804F1E3F09FFF79FFD08F15F
:104DC000FF330F2B044600F2DC80B9F1000F00F036
:104DD000D880102E02D0202E40F0D38013F068FD32
:104DE0000023236023636363674B2365674982461F
:104DF00004F1840013F0B0FD102E14BF102308231B
:104E00001A4649462046019313F00CFE604B236579
:104E1000604B6365604BA365604BE3654FF4C17302
:104E20002366266916F00306FBD105F00F03C3F1D4
:104E300010035FFA83FBBBF1100F04A901D1002D11
:104E400076D104F1800013F09EFD504613F034FD3E
:104E50001022002108A819F0ADFB029BA5EB071258
:104E600003EB071108A819F0F8FABBF1100F4FEA8D
:104E7000071A60D010ABA3EB0B028021BBF1010F2E
:104E800002F8101C08D0CBF1110008AB0BF1FF3277
:104E90000021184419F08EFB08AB04A91A6851F8D8
:104EA000040B01364240042E43F8042BF6D113F0D4
:104EB000FFFC236B019A43F0100349462363054628
:104EC00004F18007204613F0ADFD1A99384613F01F
:104ED00045FD029E04F1A009B24440F2051B56456F
:104EE00034D108A9484613F037FD40F20513236575
:104EF00023699B07FCD10CA9384613F044FD039BA2
:104F000063B31B9842460CA919F0A7FA0026102299
:104F100000210CA819F04EFB284613F0CDFC2046CA
:104F2000FFF7F6FC304611B0BDE8F08F0F4644E7BE
:104F300004F1880087E7002DAED15A46294608A81B
:104F400019F038FB80238DF82030A5E7314648461C
:104F500013F004FD1036C4F850B0C0E71B9B039A51
:104F60000CA8984413F8011B10F8016B984581EACE
:104F7000060142EA0102F5D1002AC7D06FF094067B
:104F8000C5E76FF08606CDE7308201000C04020011
:104F9000F50536F024FC31FE36833624FC31FE362E
:104FA0002DE9F04788B00E46DDF84080149FDDE91A
:104FB000129100283AD0002E38D0B8F1000F35D029
:104FC000B9F1000F32D089B387B30488B4F5105F0C
:104FD0002FD14488E408182C2BD0202C01D0102C81
:104FE00024D1944222D1164A23F47E10904220D13B
:104FF00013F47C1FC3F3054508BF10258D421BD851
:105000000DF1100A10220021504619F0D3FA0123A5
:10501000CDE90253CDE900A9119923463246404615
:10502000FFF7BAFE3D6008B0BDE8F0876FF086007C
:10503000F9E76FF08500F6E76FF08900F3E700BF4E
:105040000002C0032DE9F041DDF818800C46174638
:105050001E46054630B329B302B91BBB4C220021C2
:10506000284619F0A7FA2388B3F5105F09D108F094
:10507000FE43B3F1407F15D1104B28F47E129A42C3
:1050800003D06FF08500BDE8F0816488C5F800802A
:10509000E208B2426A6205D8182AF2D0202A04D067
:1050A000102A02D06FF08600EDE7B242FAD13946FD
:1050B000281D19F0D2F90020E5E700BF0002C00367
:1050C0002DE9F74F0D461646044600285DD051B92C
:1050D000002A5AD103682E4A23F47E13934244D007
:1050E0006FF088001DE00368294A23F47E13934281
:1050F000F6D1002E39D0806CE8B1C0F11002B24276
:1051000019D23830204419F0A8F904F1280200928D
:10511000616A04F13803201D13F0A1FF20B16FF084
:10512000920003B0BDE8F08FA36CA064C3F110023D
:10513000103E15441E4406F10F084FEA18182F467A
:105140004FF0010904F1280A04F1040BC1450ED304
:105150003544ED1B09D0A06C38302A46394620442E
:1051600019F07BF9A36C2B44A3640020D9E7CDF898
:1051700000A0616A3B465246584613F070FF002873
:10518000CDD1103709F10109E0E76FF08600C8E7DB
:105190000002C0037FB51D4608B301B3FAB1F3B1F5
:1051A0000368154C23F47E16A6421BD113F47C1F12
:1051B000C3F3054408BF1024944216D80123CDE957
:1051C000024300F1280301910093436A816C021DA0
:1051D0003830FFF7E1FD58B92C6004B070BD6FF0B6
:1051E0008600FAE76FF08800F7E76FF08900F4E7D0
:1051F0006FF09200F1E700BF0002C0037FB5094BDA
:105200006A4603F11006154618685968144603C427
:105210000833B3422246F7D12846FDF797FC002019
:1052200004B070BD1C04020070B586B0184B01AA12
:1052300003F11006154618685968144603C408336C
:10524000B3422246F7D11B882380124BD3F8B420F7
:10525000120317D5A3F500434FF6FF711A8840F2E9
:105260004F138A4218BF13460B48ADF80A30FBF7BC
:105270001FFB2846FCF7A0FF3220FCF72BFD002087
:1052800006B070BDD3F8B830C3F30803ECE700BF35
:105290002C0402000081E00F00F0490207B5084B22
:1052A00018680190202301A88DF80430FCF7D4FF82
:1052B0003220FCF709FD002003B05DF804FB00BFBD
:1052C0003E04020010B50C480C4C6FF00403A02102
:1052D00013F0800F03F1010207D123442F2A83F832
:1052E00000131346F4D1002010BD03F00F03043B5C
:1052F000034419761346EBE700ED00E000E100E01F
:1053000010B5044613F0D4FA024B1C6013F0D4FA23
:10531000002010BD2C18002010B513F0C9FA034B63
:105320001C6813F0C9FA204610BD00BF2C180020DD
:1053300010B50020144613F000FF022804D018B165
:105340000248C32113F07AFA204610BD420402003D
:10535000034B1868002380680222194611F0A6BA90
:105360002011002038B5037A3022534303F18043E3
:1053700003F562230446D3F89450D0E90323134481
:105380009D4201D8AA4204D905484FF43E7113F05A
:1053900055FAD4E9030303449D4218BF284638BD9B
:1053A000A904020030B587B0144605461046FFF741
:1053B000D9FF636983423CBFD4E903315B181B1AF0
:1053C0000246ABB1124903910021CDE9013101231D
:1053D00004940093D4E90013284613F04AFA20B14C
:1053E0000C484FF4347113F029FA002007B030BD97
:1053F0000122627694F82D20002AF6D084F8353008
:105400001321E36920469847636A20469847ECE7F2
:10541000A5530000A90402002DE9F04788B0044616
:105420000F461646984613F04AFA8146002E00F0C1
:10543000AD80237E03F0FF02002B00F0E0802046C9
:10544000FFF790FF63699842824606D1637E23B9D5
:105450006C4840F27F3113F0F1F96569AA459DBFB0
:10546000D4E903329B185D1BAAEB0505B54228BFA2
:10547000354613F024FA94F82D308246002B40F084
:10548000968061692A46384618F0E7FF63692B4425
:1054900063612E462CE06069037803F0FD01112959
:1054A00040F08280216B884205D1A3F111014B426B
:1054B0004B4184F83430013E6369216B8B4203F128
:1054C000010308BF2363636101329542E3D1D4E94C
:1054D0000323216B1344994208BF2263216B8A4244
:1054E00001D88B4204D847484FF46D7113F0A6F9E8
:1054F000D4E9032361691344994208BF6261616979
:105500008A4201D88B4204D83E484FF4717113F09F
:1055100095F90023207A6376FBF79EFC20B1394889
:1055200040F2113113F08AF92046FFF71BFF63693F
:1055300083423FD10023237694F82D30E5686561DE
:1055400003B12563636A204698472F4B03930023DA
:1055500004940293236901930123009363682168F3
:10556000207A2A4613F085F920B1264840F22D31E1
:1055700013F064F9207AFBF78FFC20B1214840F248
:10558000513113F05BF9504613F09FF94846C8F8C3
:10559000006013F09AF9D8F80030002B0CBF1B20E4
:1055A000002008B0BDE8F08707F8013B84E72E46ED
:1055B00000228AE70123207A23760DF11E01FBF7F2
:1055C000D3FC20B10F484FF4507113F037F99DF818
:1055D0001E30207A002BCDD00DF11F01FBF79CFC73
:1055E00020B1084840F2463113F028F99DF81F1009
:1055F000207A0029BED12246FFF7D4FEBAE716462C
:10560000C4E700BFA9040200A5530000002807DB7F
:10561000044A4109012300F01F00834042F8213071
:10562000704700BF00E100E000280CDB4309064999
:1056300000F01F0020330122824041F82320BFF3F5
:105640004F8FBFF36F8F704700E100E0002808DB49
:105650004309044900F01F0001226033824041F8F1
:105660002320704700E100E070B504460568FFF7AD
:1056700053FE844202D10020FFF742FE95F93660C6
:105680003046FFF7E3FF3046FFF7CEFF95F937606E
:105690003046FFF7DBFF3046FFF7C6FF287AFBF7FF
:1056A0001BFC20B111484FF4ED7113F0C7F8287AB4
:1056B000FBF776FB20B10D484FF4EF7113F0BEF805
:1056C000FBF74CFB38B10A4B984204D007484FF423
:1056D000F17113F0B3F80023C4E90033C4E90433D3
:1056E000A3602846AB6ABDE870401847A9040200D1
:1056F000058000F02DE9F8430446164690F82C800A
:105700000D4613F0DCF894F8382003469AB113F0F4
:10571000DCF894F83B9013F0CBF80121074648469B
:1057200000F0D4FA384613F0C7F813F0C8F8002296
:10573000034684F83820184613F0C7F8DFF8B49011
:105740002E44B54204D1236A01212046984728E01F
:1057500094F82D3083B113F0B2F8237E07461BBBBB
:10576000226B63699A4204D040F2F911484613F063
:1057700065F8384613F0A9F894F83430002BE0D0DF
:10578000B8F1000F06D02B780A2B03D1E3690D2165
:1057900020469847E36915F8011B204698470028E2
:1057A000CFD00020BDE8F8832046FFF7DBFDE1689D
:1057B000D4F830C0013888423EBF206900F1FF3084
:1057C000401803469C450BD013F80129112A01D03B
:1057D000132A07D1A2F111035A425A4184F8342006
:1057E0002063C6E7994282BF236903F1FF335B1848
:1057F000E8E700BFA90402002DE9F04387B00C469A
:10580000154606464022002120461F4618F0D2FECB
:10581000002395E803002A692376EB68E360C4E976
:1058200004232A7D84F82C20AA7D2363012384F895
:10583000343084F835300E9B236284E803000F9BDC
:105840006362109B84F82D20E761A3622B7A84F8B1
:1058500036306B7A84F837302D4B73602D4BB36044
:105860002D4B33612D4B346073612D4BF360FBF78F
:10587000BDFA38B12B4B984204D01024204607B013
:10588000BDE8F083002104F10800FBF737FA074672
:105890000028F2D1244B33624FF00108234B84F8E7
:1058A0003C80B361224BF3619DF8483084F83B3073
:1058B0009DF8443084F83A30697D84F8390084F8E2
:1058C0003880204613F0C7FC95F909904846FFF749
:1058D000BDFE4846FFF79AFE164B0494CDE90273CD
:1058E0002369CDE900836368E2682168207A12F0B9
:1058F000C0FF04460028C0D195F908502846FFF79C
:10590000A5FE2846FFF782FE3046FFF7F9FCB5E713
:10591000F556000019540000459201004B92010019
:1059200069560000038000F01F92010057920100A9
:1059300051920100A553000070B590F8383004462C
:10594000E3B9036A23B90E484FF4CC7112F076FF25
:105950000021236A20469847012384F8383094F8C0
:105960003B6012F0A5FF00210546304600F0AEF97D
:10597000284612F0A1FF022384F83C3070BD00BF1E
:10598000A90402002DE9F04186B01C46524B0C9D43
:105990000293524B01930126514B0093CDE90366CC
:1059A000504B90460A462946FFF726FF0746002837
:1059B00056D123682B6463686B64637A85F8493039
:1059C000237A85F84830E37A85F84B30A37A85F856
:1059D0004A30637B85F84D30237B85F84C30E37B80
:1059E00085F84F30A37B85F84E303F483146FBF7B2
:1059F000CBFE3E483146FBF7C7FE617A207A33463C
:105A00000422FDF751FA33460222E17AA07AFDF72B
:105A10004BFA60683146FBF7B7FE88F800704146E4
:105A20002068FEF7E5F82268536F43F003035367DD
:105A3000936F617C23F4F85323F01F0343EA01239F
:105A4000A17C0B4393670323536785F8507098F844
:105A50001920202A28D007D8E2B1102A38D02327CD
:105A6000384606B0BDE8F081302AF8D185F85030CC
:105A700002220023617B207BFDF716FA2368E27C7B
:105A8000DA675A6E42F004025A665A6F42F0100208
:105A90005A6766B92A6C2068D36C43F00403D36458
:105AA0000521FEF74BF8DBE7022385F85030E17B58
:105AB000A07B00230422FDF7F7F92368217DDA6F2C
:105AC00042EA0122DA675A6F42F020025A67E1E7A0
:105AD00033463E46CAE700BFB3920100A7920100D9
