S01800004B6579626F6172645F4669726D776172652E7333370F
S2140000000010002091070000059E0100059E0100DB
S214000010059E0100059E0100059E0100059E01004B
S214000020059E0100059E0100059E0100059E01003B
S214000030059E0100059E01005B9C0100059E0100D7
S214000040059E0100DFF50100059E0100059E0100EA
S214000050C14C0100EFF50100EBF50100CD540100A5
S214000060E3F50100990F000031870000059E0100AE
S214000070F1050000DF9C0100059E0100059E0100C1
S214000080059E0100059E010055860000059E0100A4
S214000090059E0100059E0100059E0100059E0100CB
S2140000A0059E0100059E0100059E01000D860000CC
S2140000B001550100E7F50100216E01007D6F00008B
S2140000C03D550100059E010099380100059E01007E
S2140000D0059E0100059E0100059E0100059E01008B
S2140000E0059E0100059E0100059E0100059E01007B
S2140000F0059E0100059E0100059E0100000000000F
S214000100013800D0FCE77047000000000000000047
S21400011001F0FF01102A2BDB10F0070F08D010F8B3
S214000120013B013A8B422DD010F0070F42B3F6D1B7
S214000130F0B441EA012141EA014122F007047FF0D0
S21400014000070023F0E80256083C85EA010586EA27
S214000150010685FA47F5A3FA87F586FA47F6A5FA63
S21400016087F68EB9EED1F0BC01F0FF0102F007026F
S21400017032B110F8013B013A83EA010313B1F8D11A
S2140001800020704701387047002D06BF35460338FB
S214000190073815F0010F07D1013015F4807F02BF34
S2140001A0013015F4C03F0130F0BC0138704700BF85
S2140001B070B5414C00238AB0E363054618B1008849
S2140001C0236009F03FFA3D4E3D481EF0CFFE3D4B02
S2140001D0336030463C4B73601BF0BEFF0021304658
S2140001E011F072F832A3D3E90023A062C4E9062313
S2140001F01BF0BDFFD4E9062319431043C4E90601EA
S214000200CDE900014FF0FF334FF0FF32A06A1EF039
S2140002102FFF02224FF0FF31A06A1EF02BFF0120B5
S21400022008F022FF2949A06A4FF4007300221EF04E
S21400023073FFB0F5007F38D10023CDE9073309936B
S21400024094223C23CDE903320593A06A962303A9A2
S214000250069311F051F935B3287C09F093FA054658
S214000260F0B9A06A1FF032F809F03AFA08F0DEFE9C
S21400027020B14FF48070002108F0BCFB08F0E6FEC9
S21400028020B14FF40060002108F0B4FB1CF08BF89E
S214000290012011F06DF80E4A0E49A06A1BF05AFFB5
S2140002A028460AB070BDFF20D7E70725F8E700BF4D
S2140002B00DD501552000000030130020E81A00205C
S2140002C0690345ECED8E0000F81A0020E8180020BF
S2140002D0FDC001003DC101000348044B834202D02B
S2140002E0034B03B11847704710130020101300206B
S2140002F0000000000548064B1B1AD90F01EBA301AE
S214000300491002D0034B03B1184770471013002062
S214000310101300200000000010B5064C237843B9E7
S214000320FFF7DAFF044B13B10448AFF30080012354
S214000330237010BD3623002000000000C4530200C6
S21400034008B5054B1BB105490548AFF30080BDE86D
S2140003500840FFF7CFBF00BF000000005015002088
S214000360C4530200A3F5803A704700BF174B002B1A
S21400037008BF134B9D46FFF7F5FF00218B460F463F
S2140003801348144A121A1FF0CFFB0E4B002B00D056
S21400039098470D4B002B00D0984700200021040002
S2140003A00D000D48002802D00C48AFF3008017F06F
S2140003B04BF92000290019F044FC17F033F900BF70
S2140003C000000800000000000000000000100020F0
S2140003D0101300204C240020000000000000000045
S2140003E008B506F037FE18B10648282119F011FDA9
S2140003F00BF026F928B1BDE8084002482E2119F076
S21400040008BD08BDBE14020038B501F0ADFF0E48A9
S2140004100E4C012101F0D8F901221146002001F00E
S214000420A3FE022501221146C4F88050002001F0E8
S2140004309BFE0122C4F884501146002001F094FE71
S214000440C4F88850002038BD30253E0000400E40DD
S21400045007B51E4B01225A641A6842F480721A606D
S21400046001A803F09DFD9DF80530012B03D89DF8EB
S2140004700430022B0DD9164B4FF41872C3F88C2299
S214000480144AC3F89022144AC3F8F022134AC3F859
S214000490F822134AD2F8A43143F4F843C2F8A43140
S2140004A005F012FA00F0E4F805F0AAF905F0F8F9FC
S2140004B005F0BCF9FFF7A8FF1AF01FF900F0CAF81C
S2140004C003B05DF804EB05F0CFBE00BF00000E40A1
S2140004D000400E409A6F05001801000400843208A0
S2140004E000300E4008B50448012101F06DF9BDE862
S2140004F00840024800F08EBA00350A0000100020BE
S21400050030B597B01F4D0FCD0FAC0FC495E8070060
S2140005101D4B84E807001D4ACDE903231C4B002130
S214000520CDE905311B4B0E220DF12E00CDE907312A
S2140005301FF0FAFA184B19484FF44021CDE9091379
S2140005400C238DF82C300D238DF82D30144B0C9386
S21400055020230D9301238DF83930124B00930FAAF8
S21400056003AB09A905F010FD044618B10E48882112
S21400057019F04FFC00214FF4E13019F034FC20460E
S21400058017B030BD0815020000320400000001401C
S21400059005030504001B1B001C000140BC150020C1
S2140005A03723002068150020D8140200012905D83A
S2140005B0034B1B68186808B1436A1847704700BFAA
S2140005C01810002008B50749074805F01DFFFFF77B
S2140005D097FF28B1BDE808400448B82119F019BCB7
S2140005E008BD00BF1C100020E0150020D814020033
S2140005F001481AF09FB900BFBC150020014B1A6ACB
S21400060018681047BC150020024B0349186800F014
S214000610DBBE00BF401000202410002008B5084BA9
S21400062001221A70074B00221A70074B04221A7018
S214000630064B1F221A7005F071F9054B186008BDAD
S214000640D212002057230020D1120020D012002002
S2140006506816002008B50548012101F0B5F819F024
S21400066014FBBDE8084000F015B800BF00350A00CE
S2140006700148012101F0A8B800350A00014B1022FC
S214000680DA60704700A00046014B1022DA6070471F
S21400069000A0004470B588B0374D384E0FCD01AC81
S2140006A00FC495E8070084E80700354C354801215B
S2140006B001F08AF83046012101F086F80125324B18
S2140006C0039301A920468DF8125003F0E7FD2B4650
S2140006D004220621022002F08DFE2A46002307216E
S2140006E0022002F087FE2B4604220821022002F098
S2140006F081FE042211462B46002002F07BFE234B8F
S214000700A3670B2363674FF4487006F079FC142048
S214000710FFF7BAFF06F074FC2320FFF7AFFF06F0E2
S2140007206FFCB9212046FFF7AFFF19F0D9FCFFF7A1
S214000730A5FF00231A460621022002F05BFE0023D6
S2140007401A460721022002F055FE2B4600220821F9
S214000750022002F04FFE002210462B46042102F033
S21400076049FE204603F00AFD0021A1673046616776
S21400077001F02AF808B070BD2415020000420400FB
S2140007800004014000350A0000127A000B0B000B33
S21400079008B500F083F8124B12498B4212D3124B65
S2140007A0124900208B4218D3FFF7E0FD186850F876
S2140007B02240586840F82240013298688242F5D3B9
S2140007C00C33EAE70022F8E71C6844F822000132FE
S2140007D05C68A242F8D30833E4E70022F8E700BFDB
S2140007E0CC530200D8530200D8530200D85302005C
S2140007F00048704700F04902104AD2F8943003F0DF
S2140008000703023B032B13D8DFE803F00C14020E99
S2140008100B4B1B68D2F80001C0F304200130B3FB79
S214000820F0F07047074BF4E7074B1B685B08F1E7EF
S214000830054BEEE74FF40043ECE700BF00400E40E8
S2140008404C100020501000204410002008B5FFF780
S214000850D3FF054BD3F80831C3F308230133B0FBAD
S214000860F3F0024B186008BD00400E404810002010
S214000870014B1868704700BF50100020054B1860E9
S214000880054BD3F8943003F00703022B01D1FFF792
S214000890DDBF70475010002000400E40044B054A54
S2140008A09A60D3F8882042F47002C3F88820704714
S2140008B000ED00E000000000014B1868704700BF24
S2140008C04C10002038B504460D4601B118B904484E
S2140008D0372119F09EFA23682B60256038BD00BFCB
S2140008E040150200054A06490346106803448B4239
S2140008F094BF13604FF0FF30704700BF54100020C5
S2140009000000012008B52948012100F05DFF012301
S21400091004220221052002F06DFD002002F0CAFC30
S214000920234B0122C3F810281146042001F01CFCBA
S214000930204801F01DFA204BD3F8F02042F00102C7
S214000940C3F8F020D3F8FC2042F08072C3F8FC20F5
S214000950A3F55D43194A1A6000F5D520184B00F23E
S214000960FC40B0FBF3F0174B013802221861C3F8C5
S214000970F0204FF48072C3F804234FF06043124A0D
S214000980C3F8B02F114AC3F8802ED3F8002E42F4D5
S2140009908072C3F8002EFF2283F82020D3F8002EA2
S2140009A022F48072C3F8002E002008BD00350A002D
S2140009B00080144206000E0000ED00E0FF03004039
S2140009C0F8590D00000004E055CEACC50900010042
S2140009D030B54FF06043D3F8802ED20715D50124EA
S2140009E00B4D8440D5F8FC2042F08072C5F8FC2000
S2140009F0D3F8002E2243C3F8002E53F82020002AF6
S214000A00F0D003F82010002030BD1120FCE700BF16
S214000A1000ED00E02DE9FF47044618B944483921A7
S214000A2019F0F7F94348012100F0CEFE2368424A48
S214000A3093420AD002F58062934276D03C484F211A
S214000A4004B0BDE8F04719F0E4B93C483C4FDFF885
S214000A50FC80012100F0B8FE6179207901230A228A
S214000A6002F0C8FCE179A07901230A2202F0C2FC58
S214000A700A25012694F804A094F80590BAF1050F0B
S214000A8005D838F81A3023FA09F3DA0704D440F206
S214000A90FE31384619F0BDF90C21302313FB0A133A
S214000AA003F1884303F5204306FA09F21A6064202E
S214000AB006F0A6FA94F804A094F80590BAF1050F8B
S214000AC006D8204B33F81A3023FA09F3DB0704D490
S214000AD040F22D41384619F09CF90C21302313FBC7
S214000AE00A1303F18C4303F5204306FA09F21A6051
S214000AF0642006F085FA013DBCD1206803234364D8
S214000B0023895BBA9BB2836440F20113ADF80030D0
S214000B1023690293E36801936946237D8DF80C30C0
S214000B2002F054FD04B0BDE8F08707488EE700BF2A
S214000B308B1502004041050000C000400062040022
S214000B40DE150200281602000072040028160200B5
S214000B5038B5054602F068FE044C012801D1013C78
S214000B6000D138BD284602F05DFDF6E7E1930400AB
S214000B702DE9F04F85B09A46544BDDF83C901B7833
S214000B809DF844B0DDF8508006460F461546002B0B
S214000B9000F09680072A00F295800E9B002B00F04E
S214000BA09180B9F1000F00F08D80129BB3F5006FB5
S214000BB000F38880012803D1109B002B00F0828070
S214000BC0434B03EB05131B7B002B7DD0414C1022BF
S214000BD0002168461EF0A8FF04EB451410229FBBB8
S214000BE0394620461EF0A0FF43F210036380BBF197
S214000BF0000F03D1E37843F00303E370354A0E9BFE
S214000C00CDF800A002EB451CCCE90193129B581EC0
S214000C109DF84C30690103F00303C0F30A009B06FD
S214000C2043EA001E53582C4818404EEA0003012E93
S214000C30535017D0B8F1000F2ED19CF8023068F34D
S214000C4004138CF8023027E0002120461EF06CFFCB
S214000C504FF444736380BBF1000FCFD1E37843F0C9
S214000C603003CAE71323CCF80C309CE80F000CF1D5
S214000C70100E8EE80F00DCF81C20109BCCF8143009
S214000C806FF0030161F39F02012FCCF81C2003D103
S214000C90CCF81890CCF804300D4A290102EB051365
S214000CA042F80180159A5A6000272846224669466F
S214000CB09F605E7302F088FE384605B0BDE8F08F90
S214000CC00648FAE70648F8E70648F6E758230020FD
S214000CD06C1700206C1600200F80FFF3028000F0D7
S214000CE0018000F0078000F038B5124B1B780546EF
S214000CF0DBB1E0B119F0D1F80F4A00231146147B9E
S214000D0054B92B601A0101EB031301258C501D7397
S214000D1019F0C9F8204638BD0133082B02F110023D
S214000D20EDD119F0C0F80548F5E70548F3E70548A2
S214000D30F1E700BF582300206C170020048000F065
S214000D40028000F0018000F038B519F0A6F80C4AD1
S214000D5005460023147B6CB90133082B02F1100200
S214000D60F8D102F0BDFD074B28461C7019F09BF821
S214000D70204603E0284619F096F8034838BD00BF21
S214000D806C17002058230020058000F010B50D4B8E
S214000D901B78044693B1072812D819F07EF80A4B40
S214000DA003EB04131A7B2AB100241C7319F07BF89A
S214000DB0204610BD19F077F80448FAE70448F8E72B
S214000DC00448F6E7582300206C170020068000F041
S214000DD0028000F0018000F013B5164B18680190F1
S214000DE000238DF8043019F058F8134B1C7824B102
S214000DF019F059F8114802B010BD01221A7019F006
S214000E0052F80F4B1C731C7783F82C4083F83C4039
S214000E1083F84C4083F85C4083F86C4083F87C4051
S214000E2004230DEB03008DF8073002F08BFD2046FF
S214000E30E1E700BF3416020058230020038000F0CC
S214000E406C17002008B50A4A12785AB107280BD842
S214000E50084A02EB00131B7B43B1002102F056FD4B
S214000E60002008BD0448FCE70448FAE70448F8E711
S214000E70582300206C170020028000F0018000F04C
S214000E80078000F008B50A4A12785AB107280BD82E
S214000E90084A02EB00131B7B43B1012102F036FD2A
S214000EA0002008BD0448FCE70448FAE70448F8E7D1
S214000EB0582300206C170020028000F0018000F00C
S214000EC0078000F008B50A4A127852B107280AD8F7
S214000ED0084A02EB00131B7B3BB102F0FBFD00202F
S214000EE008BD0548FCE70548FAE70548F8E700BFEF
S214000EF0582300206C170020028000F0018000F0CC
S214000F00078000F00D4B1B7893B1072812D889B1E3
S214000F100B4B03EB00131B7B73B10A4B1A6E0123BA
S214000F208340134214BF012300230B700020704738
S214000F300548704705487047054870475823002005
S214000F406C17002000200E40028000F0018000F0A8
S214000F50078000F010B50B4A12780C4662B10728DD
S214000F600CD859B1084A02EB00131B7B43B102F0C0
S214000F70D1FD2070002010BD0448FCE70448FAE7C5
S214000F800448F8E7582300206C170020028000F081
S214000F90018000F0078000F02DE9F041DFF8648062
S214000FA0D8F86070D8F86C301F4000D5FEE7134CB8
S214000FB001260025374218D02368C8F86860A3B118
S214000FC0A16862680131A16028469847637B012BBF
S214000FD00BD150B90A4B03EB45131A7B60F3410261
S214000FE01A731A7F60F341021A770135082D4FEA0B
S214000FF0460604F11004DDD1BDE8F0816C17002030
S2140010006C16002000200E4070B50368684A9342B4
S21400101040F0A580037AF3B15A1ED2B21E2A1CD81D
S214001020644CA25C0A70447A002C3AD0621E1E2AD7
S2140010302FD8DFE802F0363636361414141414307F
S214001040303030303032323232323232343434347D
S2140010503434343436001A46E4E7FF22E2E701224D
S2140010608A70827A002A40D0551E1E2D35D8DFE8B9
S21400107005F03C3C3C1A1A1A1A1A363636363636FC
S214001080383838383838383A3A3A3A3A3A3A3A3CC7
S2140010903C00FF22E4E70222E2E70322E0E7052223
S2140010A0DEE70022DCE701250D71C57A002D4CD065
S2140010B0681E1E2841D8DFE800F048481A1A1A1A97
S2140010C01A4242424242424444444444444446460D
S2140010D046464646464648484800FF25E4E7022579
S2140010E0E2E70325E0E70525DEE70025DCE701204B
S2140010F0887133B1581EC0B21E289ABF2E4B1B5C97
S214001100FF234B701CB3013CE4B21E2C21D82B4BA2
S2140011101B5DCB70FAB1013AD2B21E2A1DD8284BFD
S2140011209B5C4B71002D00F0CF806B1EDBB21E2B3C
S21400113000F22C81234AD35CC7E0FF20D8E70220C8
S214001140D6E70320D4E70520D2E70020D0E7012326
S214001150DFE7FF23DDE70223E3E7FF23E1E71A4AA1
S214001160934240F0B580037AF3B15A1ED2B21E2ADB
S2140011701CD8164CA25C0A70447A002C4AD0621E18
S2140011801E2A3FD8DFE802F046464646242424249A
S2140011902440404040404042424242424242444450
S2140011A044444444444446001A46E4E7FF22E2E747
S2140011B000000140E1160200C2160200A31602005B
S2140011C0841602006516020000040140E1160200C3
S2140011D001228A70827A002A40D0551E1E2D35D8EC
S2140011E0DFE805F03C3C3C1A1A1A1A1A3636363630
S2140011F03636383838383838383A3A3A3A3A3A3A60
S2140012003A3C3C00FF22E4E70222E2E70322E0E762
S2140012100522DEE70022DCE701250D71C57A002DE8
S21400122048D0681E1E283DD8DFE800F044441A1A4D
S2140012301A1A1A3E3E3E3E3E3E4040404040404027
S214001240424242424242424244444400FF25E4E7CE
S2140012500225E2E70325E0E70525DEE70025DCE7D3
S2140012600120887133B1581EC0B21E289ABF494B60
S2140012701B5CFF234B70FCB1013CE4B21E2C1DD856
S214001280454B1B5DCB70DAB1013AD2B21E2A19D893
S214001290424B9B5C4B71BDB16B1EDBB21E2B75D8EF
S2140012A03F4A48E7FF20DCE70220DAE70320D8E7DA
S2140012B00520D6E70020D4E70123E3E7FF23E1E794
S2140012C00223E7E7FF23E5E70323CB71002070BD89
S2140012D0344A93425CD1037A002B47D0A3F10E0226
S2140012E0062A8CBFFF2205220A70467A002E3FD0BF
S2140012F0A6F10D02D2B2122A3AD82B4CA25C8A7002
S214001300827A002A36D0A2F10C04E4B2122C31D82C
S214001310264D2C5D0C71C57A75B3A5F10B04E4B2AD
S214001320122C29D82248005D88713BB30E3BDBB2F5
S214001330062B25D81F48C35C4B701EB3A6F10D00C4
S214001340C0B212281ED81C4B1B5CCB70E2B10C3A04
S214001350D2B2122A18D8194B9B5C4B71B5B1A5F1C5
S2140013600B03DBB2122B11D8154AE4E61A46BBE78C
S214001370FF22C4E7FF24CDE7FF20D5E70523DBE700
S214001380FF23D9E7FF23E0E7FF23E6E7FF239CE7F9
S2140013900C489CE7C2160200A31602008416020040
S2140013A0651602000008014052160200521602009E
S2140013B0521602004B1602003816020038160200BB
S2140013C038160200022000F02DE9F0478AB0924F4E
S2140013D004460D460FCF03AE0FC697E8070086E813
S2140013E00700002C00F0158125B98C4D28460AB060
S2140013F0BDE8F0878022002120461EF095FB0023E2
S214001400874A63652B68934200F0C48002F58062C9
S214001410934200F0C48002F580629342E5D1814891
S21400142081494FF460222360002384F858302F4609
S214001430C4E90A12E0640FCF261D0FC697E807001E
S21400144086E807006B7D012B08BF8DF81A30AB7D50
S2140014504BB1012B00F0A880022B00F0A880032BD4
S214001460C3D14FF44073ADF81C302B7D6F48012B71
S2140014700ABF0023AB688DF819304FF0010108BF92
S2140014804FF4E133059300F09FF96948012100F01D
S2140014909BF9E06C012100F097F9EB681A1F0C2A03
S2140014A0A3D8033B28688DF8183003A902F0F6FE8F
S2140014B06A69236822F47F0222F47F421AB91A6806
S2140014C042F480321A60AA792979120642EA012289
S2140014D069790A43E97D00296CD1996FE87901F0B2
S2140014E0E03141EA00410A439A670F225A6701A990
S2140014F02046FFF789FD054600287FF477AF94F86D
S2140015001880BDF80A309DF804009DF805109DF877
S21400151006909DF807A09DF808609DF80970A4F84D
S2140015204030B8F1000F4ED14346042201F062FF6E
S214001530434601225146484601F05CFFA37E012B3C
S21400154094BF4346012304223946304601F052FF39
S214001550E37E3BB90123042294F8411094F840003E
S21400156001F048FF18F099FC324B1A78002A44D153
S21400157001221A7018F097FC05F082FAFFF72CFC8F
S214001580002104F12000FFF7AFFB0146002837D00A
S214001590294D2BE729482A494FF4402243E729489A
S2140015A029494FF450223EE74FF400735BE74FF4AF
S2140015B0807358E7996F21F01F2121F01F01114316
S2140015C099670B2292E72B46012201F013FF2B4668
S2140015D004225146484601F00DFFA37E012B94BF1E
S2140015E02B46012302223946304601F003FFE37EF4
S2140015F0002BB7D101230222AEE718F054FCBDE75A
S21400160004F12400FFF770FB054600283FF4EEAE19
S214001610BEE70E4DEAE600BF00170200022000F00B
S214001620000001400052040001000E004041050089
S21400163000350A0059230020092000F0003204007B
S21400164001000C000042040001000D00012000F023
S2140016500C4B984205D90C4B984210D80122012316
S21400166001E00022134609490B640949D1F800310C
S21400167023F0807343EA0263C1F800317047022208
S214001680EDE700BF0048E8010090D0030000C84323
S21400169000400E4038B5114B5B68114B00221C46CB
S2140016A0C9B21D798D4202D11D6885420BD2013226
S2140016B0052A03F10803F4D141F61401094818F08D
S2140016C0A8FB032102E004EBC2046179034A5368D5
S2140016D023F0407343EA0163536038BD00000E40B8
S2140016E0FC1702001C17020038B5074C41F6713390
S2140016F0256C2364FFF77CF8ADB20021FFF7CAFF24
S2140017000DB10023236438BD00000E40044BDB6B94
S2140017105B0604D4034AD2F8C830002BFBD17047CE
S21400172000300E400000C64308B5FFF7EFFF024B3F
S2140017305868C0F3014008BD00300E40044BD3F893
S2140017404421D20703D4D3F840211042FBD170477E
S21400175000400E4038B5B0F5004F054600F10104D4
S21400176012D30F4840F6326118F053FB64B90D48A7
S21400177040F2771118F04DFB4FF0FF34084840F662
S214001780396118F046FB08E0B4FA84F4C4F11F048B
S2140017900123A340013BAB42F0D1204638BD00BF39
S2140017A064170200AD17020038B5064C256C41F6EA
S2140017B071332364ADB2FFF76DFF0DB100232364D0
S2140017C038BD00BF00000E4038B5C0F30323013B10
S2140017D0092B06D8DFE803F00C2E05053229240570
S2140017E01C18BDE83840174841F6B05118F011BB38
S2140017F0154DC0F3043405F1424505F5801504EB9C
S214001800C5008000016038BD104DC0F30434F2E717
S2140018100F4DC0F304344FF48030FFF78FFFEAE734
S214001820C0F304340B4D1020F7E7C0F304340A4D20
S2140018300120F2E7094DC0F30434DCE7084DC0F39D
S2140018400434D8E71C17020000400E4050410E40FA
S214001850F0400E40E8400E40E0400E40C0400E40D3
S214001860B0400E4008B5C0F30313013B092B60D807
S214001870DFE803F0050B0F195F5F1F233C532E4B69
S214001880D3F80001C0F3042008BD2B4BD3F8140195
S214001890F8E7294BD3F80031C3F300630133012086
S2140018A098400138F0E7244BD3F80C01C0F3082029
S2140018B0EAE7214BD3F80801F8E7204B984209D015
S2140018C01F4B98420CD041F654711E4818F0A1FAEE
S2140018D00020D9E7184BD3F8203103F00F03DEE7DA
S2140018E0154BD3F82031C3F30113D8E7164B9842B3
S2140018F008D003F5B01303F58053984206D041F69E
S2140019007871E2E70C4BD3F82831ECE70A4BD3F8B2
S2140019102831C3F301230433C1E70C4B984205D1A9
S214001920054BD3F8300100F00300ADE741F68771B0
S214001930CBE741F6AC71C8E700400E4080061600C3
S21400194080162E001C17020090171A00A00914001B
S21400195010B5C0F30313013B0C46092B00F22B8194
S214001960DFE813F00A002E003F005A002901290183
S2140019706E008E00E0001D011F2904D98F4841F635
S214001980D57118F046FAFFF7AFFE8D48FFF760FEF8
S2140019908C4AD2F8003123F4F85343EA0423C2F801
S2140019A00031FEF753FF0446FFF7BEFE0146204611
S2140019B0FFF7FAFEFEF720FFBDE81040FFF748BE2F
S2140019C01F2904D97D4841F6EB7118F022FA7D4AAA
S2140019D0D2F8143123F4F85343EA0423C2F814313E
S2140019E010BD4B1EB3F5004F0DD2B4FA84F4754A01
S2140019F0D2F80031C4F11F0423F0807343EA046375
S214001A00C2F80031ECE7704840F6935118F001FA3E
S214001A10002CEAD12024EAE7B1F5007F04D367481A
S214001A2041F6F87118F0F5F9664AD2F80C3123F44D
S214001A30FF3323F4807343EA0423C2F80C31CFE764
S214001A40B1F5007F04D35D4842F20E0118F0E1F9CB
S214001A50FFF74AFE5B4AD2F8083123F4FF3323F43B
S214001A60807343EA0423C2F80831FEF7EFFE04460B
S214001A70FFF75AFE01462046BDE81040FFF794BE29
S214001A80524B984219D0524B98422ED0514B984206
S214001A9041D1022904D942F23101484818F0B9F977
S214001AA04FF48020FFF74AFE464AD2F8303123F042
S214001AB003032343C2F8303192E7B1F5004F04D94F
S214001AC03E4842F24E0118F0A4F92046FFF742FEC7
S214001AD001460420FFF732FE3A4AD2F8203123F0BE
S214001AE00F030B43C2F820317AE7082904D933489C
S214001AF042F26C0118F08DF92046FFF72BFE0146E6
S214001B000420FFF71BFE2F4AD2F8203123F03003C3
S214001B1043EA0113E6E742F28A01BDE8104027488F
S214001B2018F077B92C4B984208D003F5B01303F59C
S214001B30805398421AD04FF40351EEE7082904D98F
S214001B401E4842F2930118F064F92046FFF702FEA1
S214001B5001464020FFF7F2FD1A4AD2F8283123F05A
S214001B60300343EA0113C2F8283139E7A1F10F0325
S214001B70702B04D9114842F2B10118F04AF92046F8
S214001B80FFF7E8FD01464020FFF7D8FD0D4AD2F8E2
S214001B902831043923F4407343EA0123E3E70D4B6D
S214001BA0984205D102297FF67BAF42F2CA0174E75C
S214001BB042F2DA01B1E742F20211AEE71C17020068
S214001BC00148E80100400E40641702008006160037
S214001BD080162E00A009140090171A0008B500F011
S214001BE00F000138072852D8DFE800F0041522510C
S214001BF0313B51432E4BD3F8943003F00703023B9E
S214001C00052B06D8DFE803F0502B2903054A0B20E6
S214001C1008BD0520FCE7264BD3F8803003F0070309
S214001C20013B042B17D8DFE803F01A18163B3D00DB
S214001C301F4BD3F8843003F00703013B042B0AD86C
S214001C40DFE803F00D0B032E30000620E0E7184B0C
S214001C50D3F88830E2E70120DAE70220D8E703204D
S214001C60D6E7134B1B6F13F0010F0CBF072009209C
S214001C70CEE70F4BD3F85C3103F03003202B13D0A4
S214001C80302B13D0102B0CBF07200120C0E70948CB
S214001C9042F2013118F0BDF80020B9E70C20B7E792
S214001CA00A20B5E70D20B3E70420B1E70820AFE728
S214001CB000400E401C17020010B5284B9842044600
S214001CC00DD1FFF78BFF264BD3F8844004F00704B2
S214001CD0052C3BD8DFE804F03F2428302C24214B89
S214001CE0984205D1FFF77AFF1D4BD3F88840EDE701
S214001CF01D4B984205D1FFF771FF194BD3F8804072
S214001D00E4E741F61311194818F083F82046FFF768
S214001D1065FF41F642110446144818F07AF8D7E7F2
S214001D20BDE8104018F06FB8BDE81040FEF7C4BD1F
S214001D30BDE8104018F06AB8FEF75EFD084BD3F811
S214001D400031C3F300630133D84005E0074841F68D
S214001D50941118F05EF8002010BD00BF03002000AC
S214001D6000400E400500240002001E001C17020062
S214001D7038B500F47813B3F5B01F05467DD02ED8DD
S214001D80B3F5402F67D011D8B3F5802F52D006D8C0
S214001D9043B1B3F5003F58D04FF4F7511AE0B3F50E
S214001DA0202FF9D1BDE83840FEF726BDB3F5801FD9
S214001DB000F09880B3F5A01F55D0B3F5602FEBD197
S214001DC05748FFF70BFF072800F08C800928E9D05A
S214001DD041F2D661534818F01CF8002034E0B3F501
S214001DE0381F53D013D8B3F5001F58D00AD8B3F510
S214001DF0D01F56D0B3F5F01FCED14B48BDE83840C3
S214001E00FFF75ABFB3F5101FC6D14848F6E7B3F53B
S214001E10481F4DD0B3F5781F78D0B3F5401FBBD11F
S214001E204348FFF749FF434BD3F82831C3F3012358
S214001E30043320E0FEF7E0FC3E4BD3F80C31C3F34E
S214001E4008230133B0FBF3F038BDFEF7D5FC394B61
S214001E50D3F80831F3E7FEF7CFFC364BD3F814314E
S214001E60C3F30423EDE73148FFF726FF314BD3F8E1
S214001E70303103F00303D840E6E72B48FFF71CFF9A
S214001E802C4BD3F8203103F00F03F4E72648FFF776
S214001E9013FF284BD3F82031C3F30113EBE7244894
S214001EA0ACE72348FFF708FF224BD3F82831F3E7C7
S214001EB02148FFF793FE0138072824D801A353F8DA
S214001EC020F000BFDB1D0000071F0000071F0000FA
S214001ED0EB1E0000071F0000071F0000E51E0000A5
S214001EE0F31E0000154B1868AEE7BDE83840FEF755
S214001EF0BFBCFEF781FC0F4BD3F80031C3F30423BD
S214001F0003FB0000A0E741F20D7163E7FEF774FCE7
S214001F100446284617F0B2FFB4FBF0F094E700BF83
S214001F2006000E001C17020002001E00050024001A
S214001F300300200000400E40B80032005810002079
S214001F4010B5FFF7D1FB094B07225A67FEF754FC82
S214001F50FFF77EFBFEF77AFC0446FFF7E5FB01463B
S214001F602046BDE81040FFF71FBC00BF00400E40F3
S214001F7008B5FFF733FE022806D00D284FF6FF708F
S214001F8008BF4FF4FA7008BD014B1888FBE700BF86
S214001F90BE120020014B1880704700BFBE12002002
S214001FA0014B1880704700BFBC12002038B50C46A5
S214001FB004287BD8DFE800F06403451B3000B1F549
S214001FC0007F04D33D4842F6B44117F022FF3C4A56
S214001FD0C4F30804D2F86838002BFBD1394A136AD8
S214001FE023F4FF7323F001032343136238BD7F29D4
S214001FF004D9324842F6C14117F00BFF304A04F0CC
S2140020007F04D2F86038002BFBD12E4A136923F0E8
S2140020107F031C431461E9E77F2904D9274842F669
S214002020DC4117F0F6FE264A04F07F04D2F8643846
S214002030002BFBD1234A936923F07F031C43946152
S214002040D4E7204DD5F890305B0704D51B4842F600
S214002050EC4117F0DEFE6B6A23F0300343F010030A
S2140020606B62296B184BC4F3C31203320F2A03EAC0
S214002070010328BF0F22234343EA02732B63B5E70D
S2140020807F2904D90D4842F6075117F0C2FE4F2C9F
S2140020900B4A28BF4F24D2F87438002BFBD1094ACC
S2140020A0936B23F07F03234393639FE7BDE8384099
S2140020B0024842F6155117F0ACBE00BF1C170200CE
S2140020C00020C84300400E4000F8FF0F38B5022835
S2140020D00C4604D0134842F62D5117F09AFE124DC6
S2140020E06B6A13F0300F1AD0202C15D0302C16D077
S2140020F0ACB10C4842F6485117F08BFE0B4BD5F8A6
S214002100902033EA0202FAD15B024ABFD5F8A0005B
S2140021100120C0F3802038BD4FF40003EFE74FF4F2
S2140021204003ECE71C17020000400E40FFF3E17F7F
S21400213008B502280CD129B1094B4FF48060C3F8CA
S214002140A80059664AB1BDE808400220FFF7BEBFA6
S214002150044842F67E5117F05CFE012008BD00BF21
S21400216000400E401C1702002DE9F34180460C4645
S2140021701746072831D8DFE800F0383F4B50453087
S214002180300401A801F00CFF9DF80530012B0AD899
S2140021909DF80430022B06D8564C42F6EB3120460A
S2140021A017F037FEF9E7002C40F085804FF4004228
S2140021B00E240F2350490A660122A240D1F890004F
S2140021C01042FBD1002F73D001224B4902FA03F3D1
S2140021D0D1F890201A42FBD16AE0464842F6F9311F
S2140021E002B0BDE8F04117F014BE002969D14FF4E3
S2140021F0007208240923DDE7002967D1802206241F
S2140022000723D7E7002965D1202204240523D1E738
S21400221041B9082202240323CCE700295ED102221A
S2140022200123C7E7344D6B6A13F0300F5AD1334B96
S214002230DB6B5A0504D42F4842F6084117F0E9FD37
S2140022406B6ADB0741BF6B6A23F0300343F0100371
S2140022506B62042602230321274A1666284A134483
S2140022609B0018680028FCD017B311448D002B681B
S214002270002BFCD0B8F1020F1AD1CCB11E4C616A0B
S21400228011F0010132D0012220214046FFF750FF15
S214002290D4F89C70012200210220FFF765FFC7F3E7
S2140022A00A010220FFF782FE26662B68002BFCD070
S2140022B002B0BDE8F0814FF480460E230F210024C3
S2140022C0CAE74FF4807608230921F8E7402606235C
S2140022D00721F4E7102604230521F0E70126002352
S2140022E03146ECE7042602230321E8E74046FFF7E1
S2140022F0EDFECDE71C17020000400E4000300E40F9
S2140023008004F21010B50246B8B901221146FFF754
S2140023102BFFFFF7E9F9124B04225A67FEF76CFA17
S214002320FFF796F9FEF792FA0446FFF7FDF9014625
S2140023302046BDE81040FFF737BA012807D101460E
S214002340FFF712FFFFF7D0F9054B0322E5E7054834
S21400235042F23A3117F05DFDFFF7C6F9DEE700BF3F
S21400236000400E401C17020038B5FEF781FA002127
S214002370044600F0A5FC1248FFF76AF90122114650
S2140023800220FFF7F1FEFFF7AFF90CB1FFF7BEF939
S2140023900C4B02225A67FEF72FFAFFF759F9FEF7A1
S2140023A055FA0546FFF7C0F901462846FFF7FCF93F
S2140023B02CB920460121BDE8384000F081BC38BD6C
S2140023C00148E80100400E4070B51C4B1C681C4BD1
S2140023D09C4221D81B48FFF73BF9012211460320F7
S2140023E0FFF7C2FEFFF780F90024174B01265E6751
S2140023F0FEF702FAFFF72CF9FEF728FA0546FFF774
S21400240093F901462846FFF7CFF9B4B9314620467E
S214002410BDE8704000F054BC0021204600F050FC9F
S2140024200848FFF715F9012211460320FFF79CFE26
S214002430FFF75AF9FFF76AF9D7E770BD4410002096
S214002440002D31010148E80100400E4010B5012280
S21400245011460320FFF788FEFFF746F9084B0522D2
S2140024605A67FEF7C9F9FFF7F3F8FEF7EFF90446E7
S214002470FFF75AF901462046BDE81040FFF794B929
S21400248000400E4038B5112829D1042916D1FEF790
S214002490EFF90446002858D0002100F011FC8B48C4
S2140024A0FFF7D6F80220054601221146FFF75CFE2C
S2140024B0FFF71AF994B3FFF729F92FE005291ED183
S2140024C0834B1C68834B9C4241D90021204600F078
S2140024D0F7FB7E48FFF7BCF801250320E4E700F091
S2140024E00F000138072800F2ED80DFE810F0080042
S2140024F05A009500EB007100B600EB00C4000239EC
S2140025000A292DD8DFE801F0432F21232C2C2C2C70
S21400251025390600FFF7E8F8002407256E4B5D67AF
S214002520FEF794F90546FEF767F9FFF791F8FFF70F
S214002530FBF801462846FFF737F9002C77D12046EE
S2140025400121BDE8384000F0BBBB0024A7E700240B
S214002550BFE742F22F51BDE83840604817F059BC3B
S21400256042F23451F7E7012211461046FFF7FCFD10
S2140025700024FFF7B9F80325D0E70122114603200F
S214002580FFF7F2FD0024FFF7AFF80525C6E70122A6
S21400259011460020FFF7E8FD0024FFF7A5F8042504
S2140025A0BCE706293AD14D484D4C42F2735117F01C
S2140025B030FC4A4842F2835117F02BFCFEF71CF918
S2140025C0FFF746F8474B0122C3F8082603232DE001
S2140025D00629454CEDD001390C2937D801A353F80C
S2140025E021F000BF532600002126000031260000FF
S2140025F04D2600004D260000BD2500004D2600009B
S2140026004D2600004D260000572600004D260000EF
S2140026104D2600003F260000344CDCE7304CDAE75D
S214002620012211460020FFF79FFD0223236038BDDC
S214002630012211461046FFF797FD0123F6E7012217
S21400264011460720FFF790FD0523EFE742F2AE5153
S21400265081E70023EAE70423E8E7072904D00929ED
S21400266006D042F2386176E71B4B00221A67DEE797
S214002670194B0122FAE7013907291CD8DFE801F0D7
S2140026801E1B1B141B1B0420012211460420FFF7EF
S2140026906BFD01221049D1F85C3123F0300343EA88
S2140026A00213C1F85C31C2E7012211460220FFF78F
S2140026B05BFD0222EEE742F296614CE70022E9E774
S2140026C00322E7E742F26D7145E700BF0148E801E3
S2140026D044100020002D310100400E401C1702005F
S2140026E080400E400010C84388400E4084400E4094
S2140026F010B504461120FFF771FA042804D12148CA
S21400270042F6732117F085FB012200210220FFF715
S2140027102BFD237C012B04D11A4842F6B02117F07A
S21400272078FB194A217C536A23F00103022908BF6B
S21400273043F001035362154B2178C3F8A014637A63
S214002740A18843EAC123D362136BA07A217A03F0EF
S2140027507F630343E08843EAC02343EAC11303319F
S2140027600F2928BF0F2143EA01731363A37B617B04
S2140027701B0143EA0133E17B0B43217B43EA014320
S214002780536310BD1C17020000400E400000C843F3
S21400279070B505461120FFF721FA022804D10F482C
S2140027A042F62B3117F035FB0D4E0E4CB26B6B78A4
S2140027B014402A78144344EAC324AB7844EA0364FA
S2140027C0EB7844EA0324B36BA34205D00021012230
S2140027D00846FFF7C9FCB46370BD00BF1C170200B3
S2140027E000400E4080E4FFF8034B5868C0F3080032
S2140027F0003818BF0120704700ED00E0436823F062
S2140028001F030E2910D8DFE801F008080808080B97
S2140028100B0B080808080B0B0B00194341607047A8
S214002820194341F01001F9E702484FF4EA7117F036
S214002830F0BA00BF2418020070B5064615460C46CE
S21400284021B9094840F2ED1117F0E3FA214606F1E6
S214002850200017F043FB102D05D104F11001BDE850
S214002860704017F03BBB70BD24180200034BD86BBA
S21400287080F04000C0F38010704700BF00300E406C
S21400288010B542EA0322B2F5007F194C29D00AD8C7
S214002890B2F5807F22D040F201139A4215D062B979
S2140028A0D4F81C320BE0B2F5407F1DD040F2013365
S2140028B09A4210D0D4F8283201E0D4F82432C3F378
S2140028C00722DBB203600A6010BDD4F824321A0E69
S2140028D0C3F30743F6E7D4F82832F8E7D4F81C32F7
S2140028E0F5E7D4F82032EAE7D4F82032EFE700BF65
S2140028F00081E00F08B5FFF7B9FF20B1024AD2F811
S214002900C830002BFBD108BD0000C64308B5FFF752
S214002910ADFF80B1FFF7EEFF074B19685A68C1F3A9
S2140029200121C2F3014291421A688CBF42F01002A4
S21400293022F010021A6008BD00300E40064B1B68DD
S214002940DB0608D5054B1B69C3F30443082B02BFFF
S214002950034B044A1A60704700300E4000400E4099
S21400296044100020C0EA210170B5FFF77FFF38B1A0
S2140029702D4B1A781023C2F1020293402B4A1361A2
S2140029802B492C4DD1F8804145F60E03C1F8803115
S2140029902B6823F0AA03DB05DB0D0B66FFF7AAFF07
S2140029A0224B1B68D80604F0010415D5D1F8403137
S2140029B0DA01FBD4204B1B680B61204B1B78052BE0
S2140029C00AD11F4B1E68FFF795FF184B5968304613
S2140029D0C1F30141FEF7E8FE184B1B78023B0A2BB9
S2140029E00AD8DFE803F00615170909090909091AC4
S2140029F01D000020FFF786FC2B68DB075EBF0C4B34
S214002A0002221A661CB10A4B0022C3F8802170BD50
S214002A100120EFE7FFF7A8FCEEE7FFF717FDEBE76F
S214002A20FFF78EFAE8E700BF5A23002000300E407A
S214002A3000400E40F0170020EC1700205B2300201B
S214002A404410002010B50B4C0B4BD4F890201A60A5
S214002A501120FFF7C3F8094B1870FFF74BFF084B20
S214002A60084A5B68C3F301431370074B22691A6078
S214002A7010BD00BF00400E40F01700205B23002072
S214002A8000300E405A230020EC17002009494278F7
S214002A900B6823F4407343EA0223022A0B6008D132
S214002AA0054B5B6A9B0004D5044840F2313117F0B1
S214002AB0B0B9704700300E4000400E406F1802005C
S214002AC038B5054608B1FFF7BDFFFFF71FFF1A4AE6
S214002AD0136943F00403136117F0E8FA17F0E7FAF6
S214002AE0164B174AC3F8242403F559231B68DB0644
S214002AF014D517F0CBF91EF08FFA17F0CBF917F0B4
S214002B00D7FA104C03F05CFE55B1FFF72DFFD4F852
S214002B104C3123F00043C4F84C3138BD30BFEEE7EB
S214002B20FFF70CFFD4F84C3123F00043C4F84C31C7
S214002B30BDE83840FDF78ABE00ED00E000A000408A
S214002B400000FFFF00300E4038B5054608B1FFF71D
S214002B5079FFFFF7DBFE1F4B1F4CD3F8802145F6AD
S214002B600E01D207C3F8801148BF00224FF420712F
S214002B70196648BFC3F88021184A136943F0040356
S214002B801361174B174AC3F8242417F08FFA2368EB
S214002B90DB0611D517F07AF91EF03EFA17F07AF92F
S214002BA003F00EFE55B1FFF7DFFED4F84C3123F0EC
S214002BB00043C4F84C3138BD30BFF1E7FFF7BEFE26
S214002BC0D4F84C3123F00043C4F84C31BDE838400B
S214002BD0FDF73CBE00400E4000300E4000ED00E029
S214002BE000A000400000FFFF0E4A0379916921F023
S214002BF03F010B43017843EA8103417843EA4103EE
S214002C00817843EAC103C178012908BF43F0010374
S214002C1093611368417923F4403343EA0143136018
S214002C20704700BF00300E402DE9F04104460F46C5
S214002C30FFF71CFEC8B3DFF88480FFF75BFED8F80A
S214002C400430C3F301439C422FD0194BD3F80061E4
S214002C50FDF7D2FD022C054617D1164BC6F3042607
S214002C6006FB00069E4204D9134840F2AD7117F0E9
S214002C70D0F802212846FEF797FD104B10221A6165
S214002C809FB1BDE8F041FFF735BEC4F10202102344
S214002C909340C8F810300FB1FFF72CFE2CB9214630
S214002CA02846BDE8F041FEF77FBDBDE8F08100BFD5
S214002CB000400E40002D31016F18020000300E401B
S214002CC038B505460C46FFF7D1FDB8B145B90C4BF3
S214002CD0D3F80051FDF790FDC5F3042505FB00056C
S214002CE0084B1B7821463BB1074B9D4204D8022077
S214002CF0BDE83840FFF798BF0020F9E738BD00BFB1
S214002D0000400E405C230020002D3101034B02786A
S214002D101A7001210020FFF7D3BF00BF5C230020FC
S214002D2010B5174B4AF6E852596B5A639A6FD40798
S214002D30FCD41B6C13F0030306D0124A01249842FD
S214002D40C2F8B44A05D110BD18B90E4BC3F8B40A80
S214002D50F9E70B4B9A6FD207FCD41A6C22F00302E9
S214002D6002431A649A6F12F00102FBD10038054C38
S214002D7018BF01200129C4F8B40A08BF5A63E2E765
S214002D8000300E400000C6432DE9F04F8BB0002304
S214002D90CDE90433CDE90633CDE90833A0F5E16388
S214002DA0B3F5966F05460191934608D94FF44161F5
S214002DB06E4817F02EF800200BB0BDE8F08F6C4B75
S214002DC0DFF8B081D3F81842B0F5E16F15BF4FEACF
S214002DD0146AC4F3072AC4F30744E4B20694CDF891
S214002DE024A0D8F84C60C6F301768CBF01220022DE
S214002DF0334607A904A815BF4FF4E1674FF496675A
S214002E004FF496694FF416790392FFF739FDD8F818
S214002E10E030039AC3F3012308A905A80293FFF73D
S214002E202FFDA5EB070CAAEB04020CFB02F2B2FB8B
S214002E30F9F214445445079F0498089A05991ED839
S214002E40A2EB010E0CFB0EFEBEFBF9FE11EB0E0113
S214002E502CBF4FF0010E4FF0000E8A420FD3BEF18A
S214002E60000F0CD13A1A0CFB02F2B2FBF9F28018F2
S214002E702CBF01220022874201D3029B12B140F6EA
S214002E805E4195E7BBF1000F0FD0D8F85C20B5F592
S214002E90E16722F4FE4218BF012722F0020242EA4E
S214002EA0470242EA0422C8F85C20019A0AB90120C7
S214002EB082E72F4A022ED2F8302212D0032E13D0E9
S214002EC0012E14BFD2B2C2F30722120312F4702FDF
S214002ED00CD040F61621254816F09BFF40F66D41B3
S214002EE066E7C2F30742F0E7120EEEE7214EF46EF5
S214002EF024F470442243F2661D4A022BD2F8302294
S214002F0012D0032B13D0012B14BFD2B2C2F3072268
S214002F10120312F4702F0CD040F62221134816F03C
S214002F2078FF40F6754143E7C2F30742F0E7120E1A
S214002F30EEE7104CD4F8E03023F470431343C4F8A3
S214002F40E030636E884238BF084623F4FF73E728F4
S214002F5023F0010328BFE720B5F5E16F18BF43F063
S214002F60010343EA40036366A1E700BF6F1802004F
S214002F700081E00F00300E4008B5324A136FD16C66
S214002F8011F0010F03F0060342D0002B40D01328A7
S214002F9055D9143813288CBF102308232949013B20
S214002FA0CA6C180322F47F4240EA03231343CB641F
S214002FB0254BCA6C1B88C2F303222833013202EB6E
S214002FC0820003EB5303B3FBF0F3C86C013B072B03
S214002FD028BF072320F0EE6040EA036343F4801323
S214002FE0CB641A4BB3F90030002B10DB28335008A3
S214002FF000EB420203EB5303B3FBF2F30A6D072B1D
S21400300028BF072322F0700242EA03130B6508BDAF
S214003010D16C01F00101194304D109280FD90A38EF
S2140030200928B8E7D26CD20702D50BB92728B2E731
S214003030074840F6B34116F0ECFE0023AEE7042343
S214003040ACE700BF00300E40F8220020F42200203B
S2140030506F18020010B50C4BD3F88039044633B90C
S214003060012804D9094840F6D14116F0D2FE084A94
S214003070136F23F0070323431367064BBDE8104086
S2140030801888FFF779BF00BF0000C6436F1802001C
S21400309000300E40F622002038B50389C82B0446BF
S2140030A004D9514840F6B52116F0B3FEA28823890C
S2140030B09A4204D94C4840F6B62116F0AAFEB4F956
S2140030C00C30C82B04DD484840F6B72116F0A1FEA8
S2140030D06378012B55D1A388C82B04D940F6BB21B1
S2140030E0414816F096FEE28842F210739A4204D9DE
S2140030F03D4840F6C82116F08CFEE2884A2A48D998
S214003100B2F5FA7F47D340F6C3139A428CBF4FF00E
S21400311040524FF000523549B4F90C00CB6C23F006
S214003120405323F001030028A8BF43F001031343D4
S214003130CB64D1F8E030A28843F44073C1F8E030A5
S2140031402B4B1A80CB6E43F08073CB66294BD3F89B
S214003150800900B10420FFF77DFF274B21891980E5
S214003160264BB4F90C20A0881A80FFF705FFA37B36
S214003170A3B1012B23D01C4840F6C71116F049FE18
S2140031800FE0022BAFD1A3880A2BACD94FF42C61E9
S214003190A6E70022BFE74FF08052BCE7134B184A61
S2140031A09A65012260881146FFF7EEFD054648B98C
S2140031B00D4840F6FF2116F02CFE284638BD0B4B76
S2140031C0104AEDE7094AD36B43F48063D363607813
S2140031D0FFF7A6FDA37AA3F1200253425341054A06
S2140031E0C2F89437E9E700BF6F18020000300E40BF
S2140031F0F62200200000C643F8220020F422002019
S21400320077402057372110B770B51F2905460C4662
S214003210164603D90648912116F0FBFD05F14240FB
S21400322000F5801004EBC004A400266070BD00BF4B
S214003230B718020038B5052804460D4605D80B4BCE
S21400324033F81030CB40DB0704D4094840F22D4158
S21400325016F0DFFD30230C2113FB041303F18C431F
S214003260012203F52043AA401A6038BD4A1902001D
S214003270DE15020038B5052804460D4605D80B4B6A
S21400328033F81030CB40DB0704D4094840F2FE3157
S21400329016F0BFFD30230C2113FB041303F1884303
S2140032A0012203F52043AA401A6038BD4A190200DD
S2140032B0DE15020010B51F28044603D90648522121
S2140032C016F0A7FD054AD2F8443423F0030323433F
S2140032D0C2F8443410BD00BF0019020000A0004030
S2140032E038B5032804460D4601D9052802D135F025
S2140032F0011303D008487D2116F08BFD04EB44042F
S214003300200100F180402A464FF00111BDE8384008
S21400331000F5204016F0D1BE001902002DE9F04756
S21400332005289DF820909DF8248006468A46144677
S2140033301F4605D8254B33F81030CB40DB0703D4A7
S2140033402348BF2116F065FD8AEA0403032B03D940
S2140033501F48C12116F05DFD072C0AF0030A4FF046
S2140033600F0123D8A5001B4806FA05F2A94016F05F
S214003370A4FE032118480AFA05F2A94016F09DFE9D
S2140033803A4621461548FFF73FFF4A46214614486D
S214003390FFF73AFF134A14480123A340C2F8243427
S2140033A021464246BDE8F047FFF72EBFA4F10805C8
S2140033B0AD000E4806FA05F2A94016F07EFE03217F
S2140033C00B480AFA05F2A940D8E700BF4A190200DE
S2140033D00019020000A4004008A4004010A4004009
S2140033E014A4004000A0004028A4004004A400400C
S2140033F00CA40040F8B5052804460D4616461F46A0
S21400340005D81C4B33F81030CB40DB0704D41A48E1
S2140034104FF4B07116F0FDFC26B129462046CFB118
S214003420FFF708FF04EB4403072D4FEA03134FF0A2
S2140034300F0112D8A80006FA00F281400F4818447F
S21400344016F03BFEAEB92946204677B1BDE8F840F7
S214003450FFF7F0BEFFF70EFFE4E7A5F108008000D7
S21400346006FA00F281400648E9E7BDE8F840FFF7B3
S21400347001BFF8BD4A1902000019020004A000406E
S21400348008A00040F8B506460F461546002A6AD042
S21400349003F00304036823F44073036016F0F6FC9D
S2140034A0326882EA042303F440735340336016F014
S2140034B0F1FC37B92D4B9E420DD12D48FEF758FC36
S2140034C0074633689A0717D5012C1BD0022C27D045
S2140034D064B9284B17E0284B9E4201D12748EDE7F8
S2140034E0274840F22F1116F094FC336824484FF416
S2140034F0B27116F08EFC08E0012C13D0022CE7D136
S214003500204B00E0204B9F42F0D9204B1B5D6B43C5
S2140035100AD140F27511BDE8F840194816F079BC9A
S2140035201B4BF0E71B4BEEE7A3EBC504013C3C440A
S214003530B4FBF3F4013C0CD5114840F27B1116F0B5
S21400354068FC0F484FF4BE7116F063FC33683461B4
S214003550F8BDB4F5007FF4D233689B07F7D5002C8E
S21400356008BF0124F3E740F21511D4E700C000407D
S2140035700062040080841E0000C400400072040044
S21400358056190200002D3101404B4C009E190200D6
S214003590809FD5004054890038B50A4B98420446AF
S2140035A00D4608D003F58063984204D0064840F2E2
S2140035B0951116F02EFC04F1424404F580146401C3
S2140035C0256038BD00C000405619020038B5124BC1
S2140035D0984204460D4608D003F58063984204D00E
S2140035E00E484FF4D57116F014FC002323640C4BE0
S2140035F0E3636A78630103F1844382F001025A6050
S214003600D5E9011220462B7BFFF73CFF29782046A0
S214003610BDE83840FFF7C0BF00C0004056190200A2
S214003620FFFF070070B57C4B98420BD003F5806314
S21400363098421DD0794840F2012116F0EAFB6FF05F
S214003640030070BD764B9968426B12F4C06F15D0BC
S21400365091050FD5FD225A7009221A7000220264C5
S21400366093F90110012900D15A7093F90100E8E797
S2140036706C4BE8E75605EFD5FE22ECE71C78082CE5
S21400368000F2C680DFE814F009001F0041004D007C
S2140036906A00760094009D00BD004C880A88E50606
S2140036A00AD5120A02F0060242F0F0020121197051
S2140036B0C26241600120C4E702F0FE02A10748BFD3
S2140036C042F00102F2E7160606D58022C2634FF6E4
S2140036D008721A80022316E05506EBD54022C26314
S2140036E04A88D40604D502221A700B78C362E1E732
S2140036F0960764D507221A701B7901EBC3031B8952
S214003700012BD7D108234360D4E71506DDD4540631
S214003710D0D54022C2634A88920750D503221A7039
S21400372092E74C880A88E60643BF120A02F00602B1
S21400373042F0F00202F0FE02650709D51C7901EBA3
S214003740C40142F001020989012904BF0821416031
S2140037500421197001234360C262ABE71406B4D497
S2140037605206A7D54022C2634A88560727D50722A5
S2140037701A709FE71A795D8801EBC2042689AE426B
S2140037800FD80132D2B200241A715C804C886507CB
S214003790C4D4E40702D4012A7FF656AF08221A7072
S2140037A098E76268691C5980525DC2620622DFE7AC
S2140037B016068AD455067FF57DAF4022C2630522E1
S2140037C0ADE794067FF576AF1A795C88C56901EB9C
S2140037D0C2010A89A24281BF4968661C5E800D55F7
S2140037E059888A42DAD90424012A446004D0013A6E
S2140037F0914201D1082242601A78092A3FF42EAF7E
S21400380058E7D2057FF556AF4FF48072C26323E7C0
S2140038104FF609321A8021E700C000405619020010
S214003820F41700200018002038B5274B98420446AD
S2140038300D4607D121B9254840F26A3116F0E9FA5B
S214003840234B12E0234B98420DD0204840F26931BA
S21400385016F0DFFA25B91D4840F26A3116F0D9FA9B
S2140038606FF0030038BD31B31B4BA268D00744BFCE
S214003870202262606A88910702D529890029EFD044
S214003880520702D52A8A002AEAD04FF480721A60BC
S21400389000221A719D60C0236360E368DB0510D4C4
S2140038A00E4BE363236C43F4FC6323642046BDE8BD
S2140038B03840FFF7B7BE054840F26A3116F0A9FA5D
S2140038C0D2E7E369E9E700BF00C0004056190200EE
S2140038D0F417002000C4004000180020FFFF070077
S2140038E0084B4FF40072C3F88020BFF34F8FBFF32E
S2140038F06F8F054B0021D9664FF4AA401962FDF779
S21400390063BF00BF00E100E000200E4038B5072886
S21400391005460C4603DD0848772116F07AFA1F2D77
S21400392084F0010403D90548912116F072FA044B7D
S2140039302B449B001C6038BDA2190200B718020079
S214003940A001F11010B5044618B91C48912116F0D4
S21400395060FA23781B0613F0784F03D0174892219D
S21400396016F057FAE378072B03D91448A32116F06C
S21400397050FA01214FF4AA40FDF726FFB4F80130B3
S21400398022785BBA9BB243EA02630D4A13600023B7
S2140039901362D36253634FF00043D3664FF0FF3396
S2140039A09366084A4FF40071C2F88011E3785B0111
S2140039B0DBB282F80933116010BD00BFA219020005
S2140039C000200E4000E100E02DE9F041C3B20126E0
S2140039D0072805460C46904606FA03F603DD3A48E5
S2140039E0EC2116F016FA1CB93748ED2116F011FA3C
S2140039F0236823F47C1323F00F031BB13248F22113
S214003A0016F007FAA37A1B0413F47C0F04D02E4892
S214003A1040F2091116F0FDF9E37A1B0513F07E6FEC
S214003A2004D0294840F20B1116F0F3F9237B5B050E
S214003A3013F0FE5F04D0244840F20D1116F0E9F9A9
S214003A40224F3022BE6602FB05702368C0F8803025
S214003A50637BC0F88830E37AA27A1B0543EA024308
S214003A60227B43EA4253C0F8843028F00303C0F8B0
S214003A70983016F012FAFB6E3343FB66237A13B1C6
S214003A807B6B33437B63637A13B1FB6A3343FB621E
S214003A9023793A6823B1DB431B0263F47F431A4061
S214003AA063790BB142EA0322A3790BB122EA03023F
S214003AB0E3791343054A1360054B9E62D663BDE85F
S214003AC0F04116F0F0B900BFA219020000200E4027
S214003AD000200E4410B5C3B20124072804FA03F4EC
S214003AE004DD094840F2971116F093F916F0D5F95F
S214003AF0064AD36E23EA0403D366054B1C62BDE870
S214003B00104016F0D0B900BFA219020000200E40E7
S214003B1000200E4410B5C3B20124072804FA03F4AB
S214003B2004DD0B4840F2B51116F073F916F0B5F93E
S214003B30084B1A6A224208D19B6A9C430CBF012498
S214003B40002416F0B0F9204610BD0024F9E700BFA7
S214003B50A219020000200E4070B5114B984205468F
S214003B600C46164611D1012905D9BDE870400D480E
S214003B70D92116F04EB9B2F5803F03D30948D921B2
S214003B8016F047F954B92E6107E00648D92116F019
S214003B9040F9002CF7D0012C00D070BD6E61FCE718
S214003BA000600440EB19020038B5094B9842044601
S214003BB00D4604D0074840F2091116F02AF9636B47
S214003BC09B07FCD415B10123636038BD0223FBE7D5
S214003BD000600440EB19020038B5204B98420546B9
S214003BE00C4604D01E484FF4B37116F012F9217833
S214003BF039B9AB68DB0704D56B6B9807FCD4022396
S214003C006B606378A078E2681B0320B93AB143F48E
S214003C1000732A6103E043F40073002AF9D1E278C6
S214003C200AB143F4807322790AB143F04003627903
S214003C300AB143F08003E279A079120142EA8002D9
S214003C40207A024313432B6039B1AB68DA0704D4F9
S214003C506B6B9B07FCD401236B6038BD006004408F
S214003C60EB19020010B50D4C63685B0304D50C48D5
S214003C7040F21F3116F0CDF8636813F4403F04D0CD
S214003C8007484FF4487116F0C4F8064B41F67132F7
S214003C901A649A6822F001029A6010BD00300E4045
S214003CA0371A020000000E40034B9A6822F0010209
S214003CB09A6000221A64704700000E40094A0A4BB8
S214003CC0D969C90705D512B96FF002007047013AE5
S214003CD0F6E7002AF8D001221861DA60D86940F3C6
S214003CE0800070478096980000000E4070B505462C
S214003CF00C4609B9002070BD134B1A68134B9A4244
S214003D0004D8134840F2134116F083F8114A0023F2
S214003D10082055F8231091610F49D0600133D66909
S214003D20F60705D511B96FF00200E4E70139F6E7AA
S214003D300029F8D0D169890702D56FF00100DAE7CB
S214003D409C42E6D1D6E700BF481000203F420F0055
S214003D50371A020000000E40809698002DE9F843BE
S214003D602F4B1F6C154610F0030F41F6713280463C
S214003D700E46BFB21A6404D02A484FF48C6116F07F
S214003D8048F8AA0704D0274840F2634116F041F8E5
S214003D90254C63685B0304D5224840F2674116F061
S214003DA038F8636813F4403F04D01E484FF48D6122
S214003DB016F02FF81A4A9368AD0843F00103936093
S214003DC02BD118484FF48E6116F023F800201AE025
S214003DD0C4F30A04C4F50064A408A5EB09039C42D6
S214003DE028BF1C4621463046FFF780FF58B9A1443D
S214003DF006EB8406A945E9D208EB89042046FFF7BE
S214003E005DFF0028E4D0064B9A6822F001029A6013
S214003E100FB100221A64BDE8F8834FF00009E9E705
S214003E2000000E40371A020000300E4070B5304BCE
S214003E3041F671321C6C1A64C0F30A030546A4B23C
S214003E4023B12C4840F2D64115F0E3FF2A4E7368A2
S214003E505B0304D5274840F2D94115F0DAFF7368B2
S214003E6013F4403F04D0234840F2DA4115F0D1FF66
S214003E701F4B9A6842F001029A6001221D61DA60C7
S214003E80DA69500709D59A6822F001029A600CB1E7
S214003E9000221A644FF0FF3070BD0222DA60174A23
S214003EA0D969C90700D56AB9D96911F002010BD0E2
S214003EB09A6822F001029A600CB100221A646FF030
S214003EC00100E9E7013AEBE742B9996821F0010100
S214003ED0996004B11A646FF00200DDE79A6822F078
S214003EE001029A600CB90020D6E71964FBE700BF10
S214003EF000000E40371A020000300E4080969800F0
S214003F0038B5022804460D4603D911484C2115F051
S214003F1080FF6B791F2B03D90D484F2115F079FFD1
S214003F20AB786A789B0143EA82032A781343EA78DF
S214003F3043EA02132A7943EAC2236A7943EA023340
S214003F40AA79043443EA42432401024A135138BD95
S214003F507F1A020000200440014B1860704700BF23
S214003F6000008442437882789B0043EA021302787A
S214003F701343C27843EA4213027943EA02234279A2
S214003F8043EA0233827943EAC233C27943EA024300
S214003F90027A43EA4243014A136070470020044015
S214003FA010B5044618B91048572115F032FF0F4ACD
S214003FB0D2F8E430D2F8E0109B0003F03C03C1F3E3
S214003FC081110B43A370D2F8E03003F03F03637017
S214003FD0D2F8E830D2F8EC2003F0F003C2F3031274
S214003FE01343237010BD00BFC81A020000FF0FE085
S214003FF0024BD3F8F000D3F8F41070470081E00FBE
S214004000024BD3F8F80080B2704700BF0081E00F83
S214004010F8B507460C461D4616464AB932484FF4D0
S214004020A17115F0F6FE24B1402D08D1062327E035
S21400403019B92E48FDF79CFE0446402D42D0402D6F
S21400404009D87DB1202D17D0BDE8F840264840F2AB
S214004050891115F0DEBE602DF6D1B6EB940F3CD874
S21400406004230DE0B6EB141F04D91F484FF4BA71B1
S21400407015F0CFFE102303E0B6EBD40F1CD80823B0
S2140040805E43730803EB4413B3FBF6F3184E203B72
S214004090B6EBC30F4FEAC30404D213484FF4D071F3
S2140040A015F0B7FE3B6823F060033B603B68344086
S2140040B01D433D607C61F8BD0B4840F2791115F058
S2140040C0A8FEDCE70623B4FBF3F3B342AED2064801
S2140040D04FF4BF7115F09DFEA8E7034840F2831128
S2140040E015F097FEBCE700BF131B02004041050019
S2140040F0F8FF7F0070B506460C46154622B90D48F7
S21400410040F28E2115F085FE1CB90B48FDF730FEF7
S21400411004460A4B6D00013CB4FBF5F413EA042395
S2140041204FEA042504D0034840F2B32115F071FE8F
S214004130756170BD131B020040410500070080FF3B
S21400414038B50C4B984204460D460CD003F58063F8
S214004150984208D003F58063984204D006484FF48E
S214004160337115F056FEEB435B0003F00A03E36081
S214004170E56038BD00000140131B020010B51A4B65
S214004180984204460CD003F58063984208D003F5A5
S2140041908063984204D0154840F2424115F039FE3B
S2140041A040F6AA63E36041F20502002323606260E2
S2140041B00F4AA3606361E364A2640B4A23669442D9
S2140041C06367A367E3670DD002F58062944205D06B
S2140041D002F58062944205D0A36502E02365A365DC
S2140041E0E36510BD2365F7E700000140131B0200DE
S2140041F0F9FF010038B5274B984204460D460CD00F
S21400420003F58063984208D003F58063984204D093
S214004210214840F2FD2115F0FCFD2046FFF7AEFFD9
S214004220AB7C1BB1236843F080432360EB7C1BB15F
S2140042302B7D43F08003A3652A8A6B7B1343EA89B0
S214004240134363602B7BD5E901122046FFF7E0FE9F
S2140042506B7D1BB1236843F480332360AB7D1BB1B9
S214004260236843F400432360EB7D2A7E1B07120578
S21400427002F4E00203F0E04313432366636F23F087
S21400428030036367626F6B7E134363672B78E3606C
S21400429038BD00BF00000140131B020038B5274B95
S2140042A0984204460D460CD003F58063984208D029
S2140042B003F58063984204D0214840F2693115F036
S2140042C0A8FD2046FFF75AFF2B8A226843F0010319
S2140042D01343AA7B43EA8223236023682A7D43EAAA
S2140042E042732360AB7C1BB1EB7C43F08003A36579
S2140042F02B7B43F480536360D5E901122046FFF719
S214004300F9FE6B7B0BB11023E3606B7D1BB123685A
S21400431043F480332360AB7D1BB1236843F4004332
S2140043202360EB7D2A7E1B07120503F0E04302F4B0
S214004330E002134323662B78E36038BD000001409B
S214004340131B020038B504461AF0CAFE0FCC044D03
S2140043500FC594E80F0085E80F00002038BD00BFA9
S2140043600C180020F0B547F6FF739A4272D0062963
S21400437072D83A4B5B5C022B6ED8394D05EBC30402
S214004380DF00A17815F83330012938BF0121012B51
S21400439013D1E0780025401AA84202D80844C0B2DB
S2140043A0F0BD431BA0EB5303666836F913609642D4
S2140043B0CCBF03F1FF301D46EEE760680028EFD063
S2140043C0B0F90040944204DBB0F902409442B8BF12
S2140043D014468388FF2B04BFB0F90620B0F908C046
S2140043E03D440FBF01260026C8224FF0280C131BA1
S2140043F093FBFCF333446E781BB29E4201DD002B28
S21400440001DA731E1BB201339BB24FF47A7C071D90
S2140044105D1E2DB24FEAC50E00EBC5059E42EA882A
S214004420AD6814FB025222EAE27202F15C02B2FBB1
S214004430FCF205DD37F83350954203F10103E7D26D
S21400444000EB0E039888904228BF1046884238BF7B
S2140044500846A4E7FF20A3E70020A1E75D1B0200B3
S2140044600C180020F0B5062961D8324B595C022999
S2140044705DD8314B13F83100012816D103EBC10388
S2140044809C78D8785B68012C214638BF0121904281
S21400449094BFC1EB0001C1EB0201CAB2001B82420D
S2140044A0C8BF002233F91200F0BD002A3DD003EB4E
S2140044B0C103596800293AD09878904202D3B1F9DE
S2140044C00200F1E7DC78B1F900009442ECD95C78A0
S2140044D08B88A3F1FF06013C734201F10405E4B2A8
S2140044E0734101F10C07DEB2B44216D805EBC303E4
S2140044F04FF47A75B3F902405B686A43D21A04EB4C
S214004500D47302EB630292FBF4F29042CCDBB1F977
S21400451002009042C8DC10B2C6E737F833C09445B4
S21400452003F10106E2D33346DDE70448BCE704485E
S214004530BAE700BF5D1B02000C1800200CFEFFFF50
S2140045400080FFFF08B50448FFF7FCFEBDE8084002
S21400455001201AF0C9BD00BF641B02000048704766
S214004560C012002010B503294FF000030A4A03606A
S2140045700446026343630ED10521FEF73FF96368E4
S21400458023F4407343F400736360636823F440636A
S21400459043F40063636010BD200010002DE9F04F67
S2140045A08BB00446894692461946202201A800256B
S2140045B01E461BF00CFA099515F068FC514680461D
S2140045C004F5827015F0E3FC494604F5847015F096
S2140045D0DEFC314604F5867015F0D9FC404615F031
S2140045E059FCDFF8BC815D4BDFF8B891DFF8B8A165
S2140045F02365DFF8B8B115F049FCC4F850B0676918
S21400460015F048FCFA0119D5554B236515F03EFC0C
S214004610C4F850B0656915F03DFCEB0140F18680AA
S21400462015F034FC1499054604F5887015F0B7FCAF
S214004630284615F02FFC0BB0BDE8F08FFB051CD408
S214004640484B2365013D9023A360636913F4807F84
S214004650454B23650ED015F019FC3146834604F50C
S214004660807015F094FC584615F014FC3F4B2365FB
S2140046703F4B63658823A360BBE7002D13DA3D4BF1
S214004680C4F850A0636515F001FC01A9834604F543
S214004690807015F084FC63695846C3F3034309939E
S2140046A015F0F8FB6D42344B23656369334F13F402
S2140046B0407F4FF08803A3604FF001016269C4F8A1
S2140046C050806165636927650ABF01204FF0FF309F
S2140046D005F1FF358842C3F30723C2F300220BD14E
S2140046E032B1DF0704D5264B2365264B6365AAE760
S2140046F0254B2365254BF9E79AB9D80711D5244BE6
S2140047002365244B6365A16501A904F5807015F047
S2140047103EFC099B03F00F03C4F848318323A360D3
S21400472091E71D4BC4F850906365EDE715F0AEFBBE
S21400473004F5807831460546404615F028FC2846A4
S21400474015F0A8FB154B236515F0A0FB149904463D
S214004750404615F024FC20466BE700BF30848801F5
S21400476098390100C93E8101D23E8201C024D0346E
S2140047700982010099830100D9080100DB3E01008F
S214004780C8340981E20C8201C80881E20C8201006B
S21400479083D9341181E21482E2148201E010010010
S2140047A0C93E819883D9108190A284883539380112
S2140047B02DE9F04F89B081460D461646002120228D
S2140047C068461F461BF0B0F94FF00A0A99F8003009
S2140047D0022B40D0032B07D0012B47D06FF0710B74
S2140047E0584609B0BDE8F08F202269463846B047E3
S2140047F08346BBF1000FF3D100F082FB99F800105E
S2140048000446FFF7AFFE15F041FB6946804604F507
S214004810827015F0BCFB404615F03CFB394B236517
S214004820204615F031FD15F031FB04F580788346FF
S2140048306946404615F0B3FB584615F02BFB009B27
S214004840012B1CD8204600F065FBBAF1010ABDD149
S214004850DFF8C4B0C4E71C2269463846B0470422D5
S2140048608346002107A81BF05FF9C2E718226946B5
S2140048703846B04708228346002106A8F3E715F01D
S21400488005FB05F108070646294604F5847015F071
S214004890FFFC05F11009394604F5867015F0F8FCA2
S2140048A0494604F5887015F0F3FC304615F0F2FA28
S2140048B0154B2365204615F0E7FC4946404615F0A3
S2140048C021FD8346C8B9114B2365114B636520460D
S2140048D015F0DAFC2946404615F014FD834660B90B
S2140048E00C4B23654FF48E736365204615F0CCFCA5
S2140048F03946404615F006FD8346204600F00AFB82
S2140049006EE700BF30C80C0181E11C018CE11C8100
S214004910D11C0100E11C81D900B3FFFF2DE9F8434B
S214004920064610460F4690461D4617F096F928B1E3
S21400493029463846BDE8F84317F079B92B69002BAD
S21400494040F0AD8000F0DCFA31780446FFF70AFE4E
S21400495015F09CFA04F5807608F110018146304681
S21400496015F096FC484615F095FA574B236540F22D
S21400497081136365204615F087FC15F087FA2946F3
S2140049808146304615F084FC484615F083FA4F4BB6
S214004990236501232046636515F076FC4C4B2365A2
S2140049A015F072FC15F072FA05F1080181463046E2
S2140049B015F06EFC484615F06DFA464B236520460A
S2140049C015F062FC15F062FA08F10809494605463A
S2140049D004F5827015F05CFC284615F05BFA3E4B39
S2140049E02365204615F050FC15F050FA4146054662
S2140049F0304615F04DFC284615F04CFA374B23652B
S214004A00374B6365204615F03FFC07F11001304632
S214004A1015F078FC054600283BD1324B236520462E
S214004A2015F032FC304B236515F02EFC2F4B23651A
S214004A3015F02AFC2E4B23654FF48A73636515F038
S214004A4023FC2C4B236515F01FFC3946304615F029
S214004A5059FC0546E8B9284B2365284B6365204674
S214004A6015F012FC15F012FA49460546304615F0C8
S214004A700FFC284615F00EFA214B2365214B636583
S214004A80204615F001FC07F10801304615F03AFC07
S214004A900546204600F03EFA2846BDE8F88328463C
S214004AA017F0DBF808B1414643E72B69002B3FF4CB
S214004AB049AF012105F1100016F0ABF900283FF4CC
S214004AC041AF114DE8E700BF8184E11C83D91C8308
S214004AD0E11C810182D11C01C81482019983D9147A
S214004AE081E11C018CE11C01811C8401D91C83011D
S214004AF091D11CE0D814140181CB1481D11C820101
S214004B0081E11C84E214010080B0FFFF2DE9F0472C
S214004B1088B0904605460F4600F0F2F92978DFF88F
S214004B2054910446FFF71EFD15F0B0F904F58076A3
S214004B3008F110010546304615F0AAFB284615F088
S214004B40A9F940F28313C4F850902046636515F027
S214004B509BFB15F09BF908F108010546304615F059
S214004B6097FB284615F096F94FF0010A354B23655A
S214004B702046C4F854A015F087FB07F11001304614
S214004B8015F0C0FB0546002854D12F4B23654FF483
S214004B9086736365204615F077FB15F077F9414676
S214004BA0054604F5887015F073FB6946304615F027
S214004BB0F6F9284615F06EF9244B2365244B6365F9
S214004BC0244BA365204615F05FFB234B2365234B40
S214004BD0636515F059FB224B2365224B6365C4F8C9
S214004BE058A015F051FB3946304615F08BFB0546AC
S214004BF000BB1D4B23651D4B6365204615F044FB2B
S214004C0015F044F969460546304615F0C0F92846C1
S214004C1015F040F9164BC4F8509063654FF48A734C
S214004C20A365204615F030FB07F10801304615F065
S214004C3069FB0546204600F06DF9284608B0BDE839
S214004C40F08700BF821CC00C91D11CC0C00C81E153
S214004C501C82DC0C81148401E11C81C80C0C8101CF
S214004C60D20C848BD91CE01484E21482D11C8301FC
S214004C70C00C82D38182D11C2DE9F047A2B00E462B
S214004C80054600F03DF915F8041B044606F110072A
S214004C90FFF768FC1C22002103A81AF045FF4FF01E
S214004CA0010839460AA80DF16809CDF8088015F004
S214004CB076FB294612A815F072FB12AB0AAA02A9C7
S214004CC0CDF800902046FFF769FC15F0DFF849465E
S214004CD0054604F5867904F5827015F058F906F154
S214004CE0080A3146484615F0D3FA514604F588704E
S214004CF015F0CEFA284615F0CDF8134B236520465E
S214004D0015F0C2FA114B236515F0BEFA104B236559
S214004D1015F0BAFA0F4B236515F0B6FA514604F5AE
S214004D20807015F0EFFA58B93146484615F0EAFAA1
S214004D3030B9204600F0EEF84146384615F080FFC0
S214004D4022B0BDE8F08700BF8AD11C0181D91C01C2
S214004D5083D11C0181E11C0110F1860F06D038B109
S214004D609330044808BF6FF06F0070476FF0710013
S214004D70704700BF009FFFFF70B58CB004460D461D
S214004D801646002122220DF10E001AF0CDFE4FF439
S214004D901053ADF80C302CB323681BB315B39B79B6
S214004DA0022B1AD0042B20D14FF48073206CADF860
S214004DB00E304C2198B9012015F09EFEC0B120643B
S214004DC00C4B0093206CF3082A4603A900F03CFC29
S214004DD00CB0BDE87040FFF7BFBF8023E6E703F0E6
S214004DE025F8EDE704480CB070BD6FF07100FAE7E7
S214004DF00248F8E70002C003009FFFFF809EFFFF07
S214004E0010B550B1046844B139B1006C28B100F057
S214004E1059FCBDE81040FFF79FBF014810BD00BF1A
S214004E20009FFFFF07B578B102686AB1006C58B101
S214004E3051B100230193102201AB00F0ADFC03B08A
S214004E405DF804EBFFF788BF014803B05DF804FB8C
S214004E50009FFFFF2DE9F04190B0DDE916870D4673
S214004E6014461E4680B379B373B36FB38379022BAF
S214004E7006D0042B25D06FF0710010B0BDE8F0818D
S214004E80802A21D1202200210DEB020006911AF083
S214004E904BFE4FF41053ADF81C3006AB04931023B2
S214004EA0CDE90273CDE90068084BADF81E40E20874
S214004EB0294607A800F076FB10B0BDE8F041FFF7E2
S214004EC04BBFB2F5807FDCE70148D6E70002C0039F
S214004ED0009FFFFF08B501290BDC074B074A002996
S214004EE00CBF1146194600F0BDF9BDE8084015F0A4
S214004EF078BA6FF0730008BD0800000209000002CF
S214004F00024B03480122C3F8002670470010C8432E
S214004F1000000F4010B50D4B984214D003F5806387
S214004F2098420FD101220A4B03EBC2035C681F2C88
S214004F3003D90848912114F06CFF074B23449B00CB
S214004F4000221A6010BD0022EDE700BF00000F40EF
S214004F501C1C0200B71802008005F210024B034822
S214004F600122C3F8002670470010C84300000F4017
S214004F70044B984203D003F58063984201D1FFF7B3
S214004F80C9BF704700000F4070B5114C114E0A257E
S214004F90236843F4807223F48073226030462360D3
S214004FA0FCF7E6FE0023800A62680AB983420AD14B
S214004FB0636853B9013DEBD1236823F001032360F6
S214004FC06FF0920070BD0133EEE70020FAE700BFF5
S214004FD000D00140700002002DE9F04F85B0CDE909
S214004FE00012684A684DD2F8C03043F40043C2F855
S214004FF0C0302B688146D80719D50024DDF800B0EC
S214005000614E4F46A0464FF00A0ABBF1000F2DD165
S2140050104CB114F1940F06D05A46002148461AF0B7
S21400502083FD4FF00008019BC3F800801AE040F2B1
S21400503071632B60FFF7A8FF044698B96B68032BD3
S214005040FCD9D5F800312B61D5F800316B61D5F865
S2140050500031AB61D5F80031EB61FFF795FF0446F0
S2140050600028CAD0204605B0BDE8F08F7468A400BA
S21400507005D0356B15F45C7F12D1002436E043482A
S214005080FCF776FEC00A844205D17368002BF0D187
S2140050906FF09304C7E77368002BF6D10134F2E78C
S2140050A0E90515D525F48075356373685BB9BAF1E3
S2140050B00108EDD0DDF800B04F466FF093040023F2
S2140050C0C2469846A1E7D6F800310393039BECE767
S2140050D0FFF75AFF044618B915F41C7FCDD0E6E753
S2140050E010F1930F98D010F1940FE0D075687368A4
S2140050F0AD005D4528BF5D46B5EB830F04D9244857
S21400510040F2211114F085FEBA073B4636D125F051
S21400511003011D483944994213D105F0030149B1F2
S2140051201948D0F80001194403F8010B8B424FEAE6
S2140051301020F9D108EB05032F44ABEB050BD04646
S214005140BEE7D0F8002143F8042BE4E7D2F80011BC
S21400515003F8041C4FEA112E03F803EC4FEA114E35
S214005160090E03F802EC03F8011C0438032803F1C7
S2140051700403EBD825F003033B44CEE7024A284657
S214005180F4E700BF00400E4000D00140700002006F
S2140051902C1C02002DE9F04788B0074688461546C5
S2140051A01E46FFF7ADFE044607F17E40083801288C
S2140051B050D80423236000236360E364626822F40B
S2140051C0406262606A46236391466363A8F1040303
S2140051D008F11C0853F8041F09BA434542F8041B9B
S2140051E0F8D114F053FE4946074604F5827014F0D1
S2140051F0CEFE384614F04EFE184B2365109BDFF8A3
S214005200609005EB831704F5D27A14F03FFE29462A
S2140052108046504614F0CBFE4035404614F03AFE29
S214005220BD42C4F85090F0D114F030FE3146054629
S21400523004F5807014F0B3FE284614F02BFE2046CA
S214005240FFF768FE331F1C3653F8042F12BAB3421A
S2140052501A60F9D108B0BDE8F08700BF888AC80197
S214005260070D810138B50D460446D0B16C220021E9
S2140052701AF05AFC0C4B9D4205D001339D420DD0CE
S2140052806FF0850038BD0949202204F10C001AF0A1
S2140052909EFB0020C4E901002560F3E704492022B4
S2140052A0F3E76FF08600EDE708000002021D02003B
S2140052B0E21C02002DE9F3410E461F460546002873
S2140052C05FD083B9002A5CD12B68324A93425ED005
S2140052D0013293420CBF6FF089046FF088042046B9
S2140052E002B0BDE8F0810029ECD0036829498B4262
S2140052F044D001318B4247D14FF02008904546D824
S2140053006A68D3008DF8073053098DF80630530BC2
S2140053108DF80530530D8DF80430AB68D90001EBDD
S21400532052718DF8031002F03F025909372A8DF8A2
S21400533002104FEA53318DF801104FEA53531649C5
S2140053408DF8003094BFC2F13802C2F178022846C8
S21400535015F0EEF804460028C1D108226946284612
S21400536015F0E6F804460028B9D1C7F80080424692
S21400537005F10C0130461AF02AFBB0E74FF01C0886
S214005380BCE76FF08604AAE76FF08804A7E76FF023
S2140053908904A4E708000002A21C02002DE9F04FD1
S2140053A091B01E469DF87430BDF87080029091460C
S2140053B003930D46002900F0BB804F1E3F09FFF700
S2140053C09FFD08F1FF330F2B044600F2DC80B9F195
S2140053D0000F00F0D880102E02D0202E40F0D38090
S2140053E014F054FD0023236023636363674B236537
S2140053F06749824604F1840014F09CFD102E14BF09
S214005400102308231A4649462046019314F0F8FD57
S214005410604B2365604B6365604BA365604BE3653B
S2140054204FF4C1732366266916F00306FBD105F018
S2140054300F03C3F110035FFA83FBBBF1100F04A93F
S21400544001D1002D76D104F1800014F08AFD50467B
S21400545014F020FD1022002108A81AF065FB029B1C
S214005460A5EB071203EB071108A81AF0B0FABBF178
S214005470100F4FEA071A60D010ABA3EB0B02802187
S214005480BBF1010F02F8101C08D0CBF1110008ABDD
S2140054900BF1FF32002118441AF046FB08AB04A9B2
S2140054A01A6851F8040B01364240042E43F8042BC8
S2140054B0F6D114F0EBFC236B019A43F01003494637
S2140054C02363054604F18007204614F099FD1A99D7
S2140054D0384614F031FD029E04F1A009B24440F2B1
S2140054E0051B564534D108A9484614F023FD40F262
S2140054F00513236523699B07FCD10CA9384614F0D5
S21400550030FD039B63B31B9842460CA91AF05FFA62
S2140055100026102200210CA81AF006FB284614F0DC
S214005520B9FC2046FFF7F6FC304611B0BDE8F08F18
S2140055300F4644E704F1880087E7002DAED15A46AF
S214005540294608A81AF0F0FA80238DF82030A5E73F
S2140055503146484614F0F0FC1036C4F850B0C0E7A8
S2140055601B9B039A0CA8984413F8011B10F8016BB8
S214005570984581EA060142EA0102F5D1002AC7D021
S2140055806FF09406C5E76FF08606CDE7308201001F
S214005590241D0200F50536F024FC31FE3683362441
S2140055A0FC31FE362DE9F04788B00E46DDF8408027
S2140055B0149FDDE9129100283AD0002E38D0B8F1B9
S2140055C0000F35D0B9F1000F32D089B387B3048805
S2140055D0B4F5105F2FD14488E408182C2BD0202C6B
S2140055E001D0102C24D1944222D1164A23F47E10E6
S2140055F0904220D113F47C1FC3F3054508BF102545
S2140056008D421BD80DF1100A1022002150461AF0C8
S2140056108BFA0123CDE90253CDE900A9119923465F
S21400562032464046FFF7BAFE3D6008B0BDE8F08758
S2140056306FF08600F9E76FF08500F6E76FF08900F7
S214005640F3E700BF0002C0032DE9F041DDF8188043
S2140056500C4617461E46054630B329B302B91BBB97
S2140056604C22002128461AF05FFA2388B3F5105F13
S21400567009D108F0FE43B3F1407F15D1104B28F452
S2140056807E129A4203D06FF08500BDE8F0816488F0
S214005690C5F80080E208B2426A6205D8182AF2D03D
S2140056A0202A04D0102A02D06FF08600EDE7B2421E
S2140056B0FAD13946281D1AF08AF90020E5E700BF1E
S2140056C00002C0032DE9F74F0D4616460446002893
S2140056D05DD051B9002A5AD103682E4A23F47E13AE
S2140056E0934244D06FF088001DE00368294A23F4F3
S2140056F07E139342F6D1002E39D0806CE8B1C0F10B
S2140057001002B24219D2383020441AF060F904F17F
S21400571028020092616A04F13803201D14F08DFF00
S21400572020B16FF0920003B0BDE8F08FA36CA064C8
S214005730C3F11002103E15441E4406F10F084FEA4E
S21400574018182F464FF0010904F1280A04F1040B3B
S214005750C1450ED33544ED1B09D0A06C38302A461F
S214005760394620441AF033F9A36C2B44A364002076
S214005770D9E7CDF800A0616A3B465246584614F079
S2140057805CFF0028CDD1103709F10109E0E76FF082
S2140057908600C8E70002C0037FB51D4608B301B304
S2140057A0FAB1F3B10368154C23F47E16A6421BD15A
S2140057B013F47C1FC3F3054408BF1024944216D884
S2140057C00123CDE9024300F1280301910093436AC7
S2140057D0816C021D3830FFF7E1FD58B92C6004B02B
S2140057E070BD6FF08600FAE76FF08800F7E76FF09D
S2140057F08900F4E76FF09200F1E700BF0002C003F3
S2140058007FB5094B6A4603F11006154618685968B5
S214005810144603C40833B3422246F7D12846FDF7A0
S2140058203BFC002004B070BD341D020070B586B08D
S214005830184B01AA03F11006154618685968144655
S21400584003C40833B3422246F7D11B882380124B89
S214005850D3F8B420120317D5A3F500434FF6FF7113
S2140058601A8840F24F138A4218BF13460B48ADF809
S2140058700A30FBF703F82846FCF73AFF3220FCF71D
S2140058808FFB002006B070BDD3F8B830C3F3080312
S214005890ECE700BF441D02000081E00F00F0490263
S2140058A007B5084B18680190202301A88DF804302E
S2140058B0FCF76EFF3220FCF76DFB002003B05DF8AE
S2140058C004FB00BF561D020010B50C480C4C6FF0D0
